:020000040000FA
:100000000C9494040C94BC040C94BC040C94320E18
:100010000C94320E0C94320E0C94BC040C94340DDF
:100020000C94BC040C94BC040C94BC040C94BC0450
:100030000C94BC040C94BC040C94BC040C94BC0440
:100040000C94E80D0C94BC040C94B60D0C94900D1B
:100050000C94BC040C94BC040C94BC040C94BC0420
:100060000C94BC040C94BC040000C1C081C14001CC
:1000700001C3C003800241C201C6C006800741C758
:100080000005C1C581C4400401CCC00C800D41CD28
:10009000000FC1CF81CE400E000AC1CA81CB400BF8
:1000A00001C9C009800841C801D8C018801941D9C8
:1000B000001BC1DB81DA401A001EC1DE81DF401F58
:1000C00001DDC01D801C41DC0014C1D481D5401568
:1000D00001D7C017801641D601D2C012801341D378
:1000E0000011C1D181D0401001F0C030803141F108
:1000F0000033C1F381F240320036C1F681F7403758
:1001000001F5C035803441F4003CC1FC81FD403D27
:1001100001FFC03F803E41FE01FAC03A803B41FBF7
:100120000039C1F981F840380028C1E881E9402947
:1001300001EBC02B802A41EA01EEC02E802F41EF57
:10014000002DC1ED81EC402C01E4C024802541E567
:100150000027C1E781E640260022C1E281E3402377
:1001600001E1C021802041E001A0C060806141A187
:100170000063C1A381A240620066C1A681A7406757
:1001800001A5C065806441A4006CC1AC81AD406D27
:1001900001AFC06F806E41AE01AAC06A806B41ABF7
:1001A0000069C1A981A840680078C1B881B94079C7
:1001B00001BBC07B807A41BA01BEC07E807F41BF57
:1001C000007DC1BD81BC407C01B4C074807541B567
:1001D0000077C1B781B640760072C1B281B3407377
:1001E00001B1C071807041B00050C1908191405107
:1001F0000193C053805241920196C0568057419757
:100200000055C19581944054019CC05C805D419D26
:10021000005FC19F819E405E005AC19A819B405BF6
:100220000199C059805841980188C0488049418946
:10023000004BC18B818A404A004EC18E818F404F56
:10024000018DC04D804C418C0044C1848185404566
:100250000187C047804641860182C0428043418376
:100260000041C1818180404000000190016000F0A8
:1002700002C0035003A0023007C0065006A007309A
:1002800005000490046005F00DC00C500CA00D306A
:100290000F000E900E600FF00A000B900B600AF03A
:1002A00008C0095009A0083019C0185018A019300A
:1002B0001B001A901A601BF01E001F901F601EF09A
:1002C0001CC01D501DA01C3014001590156014F0AA
:1002D00016C0175017A0163013C0125012A01330BA
:1002E00011001090106011F031C0305030A031304A
:1002F00033003290326033F036003790376036F09A
:1003000034C0355035A034303C003D903D603CF069
:100310003EC03F503FA03E303BC03A503AA03B3039
:1003200039003890386039F028002990296028F089
:100330002AC02B502BA02A302FC02E502EA02F3099
:100340002D002C902C602DF025C0245024A02530A9
:1003500027002690266027F022002390236022F0B9
:1003600020C0215021A0203061C0605060A06130C9
:1003700063006290626063F066006790676066F099
:1003800064C0655065A064306C006D906D606CF069
:100390006EC06F506FA06E306BC06A506AA06B3039
:1003A00069006890686069F078007990796078F009
:1003B0007AC07B507BA07A307FC07E507EA07F3099
:1003C0007D007C907C607DF075C0745074A07530A9
:1003D00077007690766077F072007390736072F0B9
:1003E00070C0715071A0703050005190516050F049
:1003F00052C0535053A0523057C0565056A0573099
:1004000055005490546055F05DC05C505CA05D3068
:100410005F005E905E605FF05A005B905B605AF038
:1004200058C0595059A0583049C0485048A0493088
:100430004B004A904A604BF04E004F904F604EF098
:100440004CC04D504DA04C3044004590456044F0A8
:1004500046C0475047A0463043C0425042A04330B8
:1004600041004090406041F0000051C0A1C0F00048
:1004700041C11001E001B1C181C2D002200271C2AC
:10048000C00391C361C3300301C55005A005F1C588
:10049000400411C4E1C4B0048007D1C721C770076C
:1004A000C1C69006600631C601CA500AA00AF1CA48
:1004B000400B11CBE1CBB00B8008D1C821C870082C
:1004C000C1C99009600931C9000F51CFA1CFF00F08
:1004D00041CE100EE00EB1CE81CDD00D200D71CDEC
:1004E000C00C91CC61CC300C01D45014A014F1D4C8
:1004F000401511D5E1D5B0158016D1D621D670168C
:10050000C1D79017601731D7001151D1A1D1F01187
:1005100041D01010E010B1D081D3D013201371D38B
:10052000C01291D261D23012001E51DEA1DEF01E47
:1005300041DF101FE01FB1DF81DCD01C201C71DC0B
:10054000C01D91DD61DD301D01DB501BA01BF1DB07
:10055000401A11DAE1DAB01A8019D1D921D970190B
:10056000C1D89018601831D801E85028A028F1E8C7
:10057000402911E9E1E9B029802AD1EA21EA702A6B
:10058000C1EB902B602B31EB002D51EDA1EDF02D47
:1005900041EC102CE02CB1EC81EFD02F202F71EF2B
:1005A000C02E91EE61EE302E002251E2A1E2F02247
:1005B00041E31023E023B1E381E0D020202071E06B
:1005C000C02191E161E1302101E75027A027F1E747
:1005D000402611E6E1E6B0268025D1E521E570252B
:1005E000C1E49024602431E4003C51FCA1FCF03CC7
:1005F00041FD103DE03DB1FD81FED03E203E71FE4B
:10060000C03F91FF61FF303F01F95039A039F1F946
:10061000403811F8E1F8B038803BD1FB21FB703B4A
:10062000C1FA903A603A31FA01F65036A036F1F646
:10063000403711F7E1F7B0378034D1F421F470344A
:10064000C1F59035603531F5003351F3A1F3F03346
:1006500041F21032E032B1F281F1D031203171F14A
:10066000C03091F061F03030000001FC01B800446E
:10067000013000CC008801740260039C03D802247E
:10068000035002AC02E8031404C0053C057804845E
:1006900005F0040C044805B406A0075C071806E43E
:1006A0000790066C062807D40BC00A3C0A780B8416
:1006B0000AF00B0C0B480AB409A0085C081809E4FE
:1006C0000890096C092808D40F000EFC0EB80F44DE
:1006D0000E300FCC0F880E740D600C9C0CD80D24BE
:1006E0000C500DAC0DE80C1415C0143C1478158496
:1006F00014F0150C154814B417A0165C161817E45E
:100700001690176C172816D4110010FC10B811445D
:10071000103011CC118810741360129C12D813245D
:10072000125013AC13E812141E001FFC1FB81E4415
:100730001F301ECC1E881F741C601D9C1DD81C24DD
:100740001D501CAC1CE81D141AC01B3C1B781A84DD
:100750001BF01A0C1A481BB418A0195C191818E4DD
:100760001990186C182819D429C0283C2878298495
:1007700028F0290C294828B42BA02A5C2A182BE43D
:100780002A902B6C2B282AD42D002CFC2CB82D441D
:100790002C302DCC2D882C742F602E9C2ED82F24FD
:1007A0002E502FAC2FE82E14220023FC23B8224415
:1007B000233022CC228823742060219C21D820243D
:1007C000215020AC20E8211426C0273C277826841D
:1007D00027F0260C264827B424A0255C251824E4FD
:1007E0002590246C242825D43C003DFC3DB83C4495
:1007F0003D303CCC3C883D743E603F9C3FD83E241D
:100800003F503EAC3EE83F1438C0393C397838841C
:1008100039F0380C384839B43AA03B5C3B183AE41C
:100820003B903A6C3A283BD437C0363C3678378414
:1008300036F0370C374836B435A0345C341835E41C
:100840003490356C352834D4330032FC32B833441C
:10085000323033CC338832743160309C30D831241C
:10086000305031AC31E83014000622766D247F2000
:10087000390F5C50104008063F065B4F666D7D07E0
:100880007F6F303058484C535F777F395E79713DC8
:1008900076060E753815373F7367336D783E1C2A20
:1008A000766E5B39300F1308105F7C585E7B716F7A
:1008B00074040C753015545C7367506D781C1C2AD9
:1008C00076665B79064F4000000000002400270098
:1008D0002A000200000008000201000003040700D3
:1008E0000000000000000000000000230026002996
:1008F0000000000000250028002B0004040404046C
:1009000004040402020202020203030303030301BC
:100910000204081020408001020408102001020493
:1009200008102000AA0EA91411241FBECFEFD8E092
:10093000DEBFCDBF24E0A4E8B3E001C01D92A33E1A
:10094000B207E1F713E0A0E0B1E0E8EAFFE202C09D
:1009500005900D92A438B107D9F714E0C3E9D4E0AB
:1009600004C02197FE010E94CF15C239D107C9F7F3
:100970000E94920F0C94C7170C940000AF92BF9284
:10098000CF92DF92EF92FF920F931F93CF93DF935B
:100990006C017B018B01040F151FEB015E01AE188A
:1009A000BF08C017D10759F06991D601ED91FC91AC
:1009B0000190F081E02DC6010995892B79F7C501D9
:1009C000DF91CF911F910F91FF90EF90DF90CF902B
:1009D000BF90AF900895FC01538D448D252F30E0DA
:1009E000842F90E0821B930B541710F0CF9608953C
:1009F00001970895FC01918D828D981761F0A28D69
:100A0000AE0FBF2FB11D5D968C91928D9F5F9F732E
:100A1000928F90E008958FEF9FEF0895FC01918DE4
:100A2000828D981731F0828DE80FF11D858D90E051
:100A300008958FEF9FEF0895FC01918D228D892FEE
:100A400090E0805C9F4F821B91098F7399270895D6
:100A500082E194E00E941C0521E0892B09F420E04A
:100A6000822F089580E090E0892B29F00E942805CC
:100A700081110C9400000895FC01A48DA80FB92FDA
:100A8000B11DA35ABF4F2C91848D90E001968F73B6
:100A90009927848FA689B7892C93A089B1898C91D5
:100AA000837080648C93938D848D981306C0028824
:100AB000F389E02D80818F7D80830895EF92FF92EE
:100AC0000F931F93CF93DF93EC0181E0888F9B8D71
:100AD0008C8D98131AC0E889F989808185FF15C02B
:100AE0009FB7F894EE89FF896083E889F98980814E
:100AF0008370806480839FBF81E090E0DF91CF911D
:100B00001F910F91FF90EF900895F62E0B8D10E03E
:100B10000F5F1F4F0F731127E02E8C8D8E110CC0AD
:100B20000FB607FCFACFE889F989808185FFF5CFF8
:100B3000CE010E943C05F1CFEB8DEC0FFD2FF11D96
:100B4000E35AFF4FF0829FB7F8940B8FEA89FB8935
:100B500080818062CFCFCF93DF93EC01888D882393
:100B6000B9F0AA89BB89E889F9898C9185FD03C010
:100B7000808186FD0DC00FB607FCF7CF8C9185FFF5
:100B8000F2CF808185FFEDCFCE010E943C05E9CFF9
:100B9000DF91CF910895833081F028F4813099F06E
:100BA0008230A9F008958730A9F08830C9F08430E8
:100BB000B1F4809180008F7D03C0809180008F7799
:100BC00080938000089584B58F7784BD089584B59F
:100BD0008F7DFBCF8091B0008F778093B000089518
:100BE0008091B0008F7DF9CF1F93CF93DF93282F93
:100BF00030E0F901ED52F74F8491F901E15FF64FD2
:100C0000D491F901E550F74FC491CC23A9F0162FE8
:100C100081110E94CB05EC2FF0E0EE0FFF1FEF508B
:100C2000F74FA591B4918FB7F894EC91111108C0CA
:100C3000D095DE23DC938FBFDF91CF911F91089574
:100C4000DE2BF8CF9091000189130BC0E2EDF8E0A4
:100C5000E4919FEF90930001E13049F028F0E230F9
:100C600061F060E00C94F40510926E00FACF909160
:100C70006F009D7F90936F00F4CF909170009D7FE7
:100C80009093700091E09093B0009091B100987FA4
:100C900094609093B1001092B300E3CFCF93DF93B1
:100CA00090E0FC01E15FF64F24918550974FFC01E5
:100CB00084918823C9F090E0880F991FFC01E853C4
:100CC000F74FA591B491FC01EF50F74FC591D49126
:100CD00061110DC09FB7F8948C91209582238C935D
:100CE0008881282328839FBFDF91CF9108956230A8
:100CF00051F49FB7F8943C91822F809583238C9375
:100D0000E8812E2BEFCF8FB7F894EC912E2B2C93FC
:100D10008FBFEACF3FB7F8948091E4039091E50349
:100D2000A091E603B091E70326B5A89B05C02F3F2D
:100D300019F00196A11DB11D3FBFBA2FA92F982F01
:100D40008827BC01CD01620F711D811D911D42E0FC
:100D5000660F771F881F991F4A95D1F708958F92C4
:100D60009F92AF92BF92CF92DF92EF92FF926B0170
:100D70007C010E948A064B015C01C114D104E1048C
:100D8000F104B9F00E948A06681979098A099B0959
:100D9000683E73408105910580F321E0C21AD108B5
:100DA000E108F10888EE880E83E0981EA11CB11CB2
:100DB000E4CFFF90EF90DF90CF90BF90AF909F90E7
:100DC0008F900895CF93DF93EBE2F0E0883040F00E
:100DD00098EF980FE8E2F0E0963010F4E5E2F0E0EA
:100DE000908142EF480F8E3010F4482F477021E079
:100DF00030E001C0220F4A95EAF7322F3095932355
:100E00009083AAE2B0E0683040F098EF960FA7E236
:100E1000B0E0963010F4A4E2B0E09C9122EF260FEF
:100E20006E3010F4262F277041E050E001C0440FCF
:100E30002A95EAF7409549234C93CBE2D0E06830FD
:100E400040F098EF960FC8E2D0E0963010F4C5E27B
:100E5000D0E0288191E042EF460F6E3010F4462F2B
:100E6000477001C0990F4A95EAF7292B2883CFE0F4
:100E7000D0E02197F1F7C9E2D0E0683038F068504F
:100E8000C6E2D0E0663010F4C3E2D0E02881292326
:100E900061E009F060E050818E30B0F08E5021E0CA
:100EA00001C0220F8A95EAF7252B2083CFE0D0E0FE
:100EB0002197F1F72081322330832C91922B9C9340
:100EC000862FDF91CF9108958770E9CFCF93DF937D
:100ED000EBE2F0E0883040F098EF980FE8E2F0E0C5
:100EE000963010F4E5E2F0E0908142EF480F8E304A
:100EF00010F4482F477021E030E001C0220F4A95DE
:100F0000EAF7209529232083AFE0B0E01197F1F7AD
:100F1000ABE2B0E0683040F098EF960FA8E2B0E0A6
:100F2000963010F4A5E2B0E09C9142EF460F6E308F
:100F300010F4462F477021E030E001C0220F4A959F
:100F4000EAF7209529232C93CFE0D0E02197F1F701
:100F500020818E30D8F092EF980F81E001C0880F89
:100F60009A95EAF7822B80838FE090E00197F1F762
:100F70009C916E3098F06E5081E001C0880F6A95A8
:100F8000EAF7892B8C93DF91CF910895877091E0D8
:100F900001C0990F8A95EAF7892FE4CF6770ECCFEB
:100FA000EBE2F0E0683040F098EF960FE8E2F0E016
:100FB000963010F4E5E2F0E0208191E032EF360F58
:100FC0006E3010F4362F377001C0990F3A95EAF75A
:100FD000922B9083ABE2B0E0883040F098EF980F0E
:100FE000A8E2B0E0963010F4A5E2B0E02C918E308B
:100FF000D8F08E5091E001C0990F8A95EAF7892FB9
:10100000822B8C938FE090E00197F1F720816E3076
:1010100068F06E5081E090E001C0880F6A95EAF7B1
:1010200080958223808308958770E4CF6770F2CF24
:10103000BF92CF92DF92EF92FF920F931F93CF93C5
:10104000DF93982F977021E030E0D90101C0AA0FFB
:101050009A95EAF792EF980F01C0220F9A95EAF756
:10106000FA2E8E3008F0F22EF094962F9770E1E071
:10107000F0E0EF0101C0CC0F9A95EAF792EF960FDE
:1010800001C0EE0F9A95EAF7EC2E6E3008F0EE2EC6
:10109000E094DC2EBC2E6E3008F0BE2ECA2E8E30B0
:1010A00008F42A2F58E098EF980F38EF360FCFE06A
:1010B000D0E0ABE2B0E0883030F0A5E2B0E09630AE
:1010C00010F0A8E2B0E07C917F21ABE2B0E0883084
:1010D00030F0A5E2B0E0963010F0A8E2B0E07C93EA
:1010E000A42FB0E040FF4AC00BE210E0683030F0BF
:1010F00005E210E0363010F008E210E0F80140811F
:101100007D2D0BE210E0683038F07B2D05E210E019
:10111000363010F008E210E0472BF8014083FE0162
:101120003197F1F7B595A7954A2FABE2B0E088303B
:1011300030F0A5E2B0E0963010F0A8E2B0E07C918B
:10114000FC2DABE2B0E0883038F0F22FA5E2B0E041
:10115000963010F0A8E2B0E07F2B7C93DE0111976F
:10116000F1F7515009F0A5CFDF91CF911F910F9169
:10117000FF90EF90DF90CF90BF9008950BE210E0CA
:10118000683030F005E210E0363010F008E210E090
:10119000F80140814E210BE210E0683008F4BDCF29
:1011A00005E210E0363008F4B8CF08E210E0B5CF21
:1011B0001F93CF93DF93C82FD62F142F0E94D007F1
:1011C000412F6D2F8C2F0E9418086D2F8C2F0E949D
:1011D000E206182F6D2F8C2F0E946607812FDF915A
:1011E000CF911F91089508952091EA033091EB0368
:1011F0002817390771F49091E8038091E903981753
:1012000041F0E091E803F0E0ED55FC4F808190E083
:1012100008958FEF9FEF08950895EF92FF920F9337
:101220001F93CF93DF93DC015C96ED90FC905D976C
:10123000E114F10479F481E090E013969C938E938D
:10124000129790E080E0DF91CF911F910F91FF9076
:10125000EF9008955196ED91FC91529750968C9194
:101260005097982F90950FB75E962C915E97122FFE
:10127000127021FD6095F8942081112319F1282B1B
:101280002083E7012197F1F728E0462F50E03081D5
:1012900060FF1AC0382B3083E7012197F1F7BA01BC
:1012A00075956795215089F7112381F080818923F5
:1012B00080830FBF5C968D919C910197F1F781E03F
:1012C00090E0C1CF2923DCCF3923E5CF9081892B52
:1012D000EFCF2091EA033091EB032817390771F41F
:1012E0008091E9032091E80390E0805C9F4F821B8E
:1012F000910960E470E00E948515089590E080E017
:1013000008952091EA033091EB0328173907B9F4C7
:101310009091E8038091E903981789F0E091E80340
:10132000F0E0ED55FC4F80812091E80330E02F5F25
:101330003F4F2F7333272093E80390E008958FEFFA
:101340009FEF0895EF92FF920F931F93CF93DF9338
:101350007B018C01D0E0C0E02FB7F89480910E049F
:1013600090910F04A0911004B09111042FBF8093AD
:10137000B7049093B804A093B904B093BA048FEA69
:1013800094E00E94810997FF2CC02FB7F8948091B8
:101390000E0490910F04A0911004B09111042FBF7E
:1013A0004091B7045091B8046091B9047091BA04A7
:1013B000841B950BA60BB70B4091B3045091B4045A
:1013C0006091B5047091B60484179507A607B70716
:1013D000B0F2CE01DF91CF911F910F91FF90EF906E
:1013E0000895F80181938F012196EC16FD0609F00E
:1013F000B3CFEFCF90E080E00895FB010190002093
:10140000E9F73197AF01461B570BDC01ED91FC91D9
:101410000280F381E02D09948F929F92AF92BF9248
:10142000EF92FF920F931F93CF93DF93CDB7DEB769
:10143000A1970FB6F894DEBF0FBECDBF7C01FA01B5
:10144000CB0119A2223008F42AE08E010F5D1F4F54
:10145000822E912CB12CA12CBF01A50194010E94D8
:101460009915F901CA016A300CF5605DD8016E93D7
:101470008D01232B242B252B79F790E080E010970A
:1014800021F0BD01C7010E94FD09A1960FB6F89495
:10149000DEBF0FBECDBFDF91CF911F910F91FF90A7
:1014A000EF90BF90AF909F908F900895695CDECFD2
:1014B000CF93DF93BC0182E194E00E94FD09EC012F
:1014C00067E671E082E194E00E94FD098C0F9D1FA8
:1014D000DF91CF9108950C94FD090F931F93CF9343
:1014E000DF93EC0188819981009759F02A813B8133
:1014F0002617370730F081E0DF91CF911F910F91D0
:1015000008958B016F5F7F4F0E94FA16009759F084
:10151000998388831B830A832C813D81232B59F770
:10152000FC011082E8CF80E0E7CFEF92FF920F93AB
:101530001F93CF93DF93EC017B018A01BA010E94D4
:101540006D0A28813981811114C02115310519F0E6
:10155000C9010E947116198218821D821C821B8289
:101560001A82CE01DF91CF911F910F91FF90EF90E2
:1015700008951D830C83B701C9010E94C017F1CFE4
:101580008F929F92AF92BF92DF92EF92FF920F9352
:101590001F93CF93DF9300D000D01F92CDB7DEB75B
:1015A0007C015B018A01D22EFC0186819A012D0DFE
:1015B000311D8217130608F458C0CE0101964C0164
:1015C00085E0F40111928A95E9F78D2D8770806C82
:1015D0008983CE0102960E94B717F1E0FD1568F0ED
:1015E000F7019485D11024C00230110508F18B81D8
:1015F0009923E1F090E8892B8B830F5FF701D58069
:1016000014816D2D812F0E94D00774018E2D8819B1
:101610008017B8F4F70141917F016D2D812F0E9451
:1016200018086D2D812F0E94E206F0CF90E0E3CFE5
:101630008A81992321F090E8892B8A83DECF90E07C
:10164000FBCF6D2D812F0F900F900F900F900F906B
:10165000DF91CF911F910F91FF90EF90DF90BF909E
:10166000AF909F908F900C946607182F1D19412FF3
:1016700050E02D2DC7010E94C00AF70162857385D5
:1016800090E080E00E94AF060D5F011B11E0F701C2
:101690004681041790F050E0B501610F711D20E004
:1016A000C7010E94C00AF7016285738590E080E05F
:1016B0000E94AF0601501F5FEACF0F900F900F906E
:1016C0000F900F90DF91CF911F910F91FF90EF90AE
:1016D000DF90BF90AF909F908F9008950F931F93CE
:1016E000CF93DF9300D000D0CDB7DEB78C01198245
:1016F0001A821B821C8220E044E050E0BE016F5F32
:101700007F4F0E94C00AF80111860F900F900F9032
:101710000F90DF91CF911F910F910895E6E0F4E0D3
:101720009C01285F3F4FDC015D91CD014191541335
:1017300011C0A217B307B9F78AE691E00E94580AD0
:101740008EEC94E00E946E0B6AE671E08EEC94E001
:101750000C946B0A8FE691E00E94580A8EEC94E09C
:101760000E946E0B66E771E0F1CF48E050E067E061
:1017700071E08FEA94E00E94BE0461E170E082E9CA
:1017800093E00E94A2096BE771E082E194E00E947D
:101790006B0A80918603811103C081E080938603E8
:1017A000A2E9B3E08FEF9FEF2FE030E0FD01AD0144
:1017B00043705527452B99F42A0F3B1FA217B307F7
:1017C00011F1492F5527ED91F0E0E827EE0FFF1FAB
:1017D000E859FF4F8591949184279527EFCF2115E4
:1017E000310589F0492F55271196E081F0E0E8276F
:1017F000EE0FFF1FE859FF4F85919491842795279D
:1018000021503109D3CF9093850380938403209195
:10181000A103281304C08091A203891771F089E8FD
:1018200091E00E94580A8EEC94E00E946E0B66E7ED
:1018300071E08EEC94E00C946B0A87EA92E00E94CF
:10184000580A8091980380938E0380919703809328
:101850008F038091960380939003809195038093EA
:10186000910360918E0370918F038091900390910A
:1018700091030E944F15CB0108950F931F93CF93AF
:10188000DF93CDB7DEB7C058D1090FB6F894DEBFED
:101890000FBECDBF362F272F8A014138510510F0DA
:1018A00000E810E0BE016F5F7F4FA32FB22F9B01B6
:1018B000A901461B570B4017510770F4ED9140E00A
:1018C000E03234F00E2E000CFF0BE85BF74F449132
:1018D000F90141939F01ECCFFC012185A8010E94F1
:1018E000C00AC801C058DF4F0FB6F894DEBF0FBE64
:1018F000CDBFDF91CF911F910F910895EF92FF928D
:101900001F93CF93DF93EC01162F89859E81F12CD5
:10191000E12C891326C0BE01635F7F4F262FFB0198
:101920009E2F921B981718F491819193F9CF898576
:1019300090E0E0E010323CF0E12F012E000CFF0BB4
:10194000E85BF74FE4918C0F9D1FDC011D96EC9333
:101950004E8150E020E0CE010E94C00AEE24E394C4
:10196000F12C49858E81481708F550E0E0E01032EF
:1019700034F0E12F110FFF0BE85BF74FE491DE012C
:10198000A40FB51F1D96EC934F5F5F4F20E0BE0183
:10199000635F7F4FCE010E94C00A89858F5F8430CC
:1019A00008F083E08987BFEFEB1AFB0AC701DF91DC
:1019B000CF911F91FF90EF9008951F93CF93DF93E6
:1019C00097FD28C011E0CFE0D7E2803127E29207EF
:1019D0003CF4EC01C9318CEFD80714F4C9E1DCEF19
:1019E0008EEC94E00E946E0B111116C0D195C1953A
:1019F000D1096CEB72E08EEC94E00E946B0A81E0FE
:101A0000C436D10524F4CA30D1058CF082E080932D
:101A1000D70408C010E0DDCFC83E23E0D2077CF336
:101A20001092D704AE01DD0F660B770B15C083E073
:101A30008093D704D7FFF6CF6DE28EEC94E00E943E
:101A40007E0CAE01DD0F660B770B7095609550959F
:101A500041955F4F6F4F7F4F2AE08EEC94E0DF910E
:101A6000CF911F910C940C0A1F920F920FB60F92F8
:101A700011242F933F934F935F936F937F938F9393
:101A80009F93AF93BF93EF93FF938091F303909154
:101A9000F403A091F503B091F603892B8A2B8B2BCD
:101AA000D1F19091EE03E091EF03F091F00380818A
:101AB000892780838091F3039091F403A091F5032B
:101AC000B091F603181619061A061B069CF48091AD
:101AD000F3039091F403A091F503B091F6030197FD
:101AE000A109B1098093F3039093F403A093F50344
:101AF000B093F603FF91EF91BF91AF919F918F91BA
:101B00007F916F915F914F913F912F910F900FBEF9
:101B10000F901F901895809100010E942206EACF35
:101B20001F920F920FB60F9211242F933F934F9352
:101B30005F936F937F938F939F93AF93BF93EF9335
:101B4000FF9382E194E00E943C05FF91EF91BF91E9
:101B5000AF919F918F917F916F915F914F913F9145
:101B60002F910F900FBE0F901F9018951F920F92FC
:101B70000FB60F9211242F938F939F93EF93FF93A0
:101B8000E0912204F09123048081E0912804F091F7
:101B9000290482FD1BC0908180912B048F5F8F737D
:101BA00020912C04821741F0E0912B04F0E0EE5ECE
:101BB000FB4F958F80932B04FF91EF919F918F9115
:101BC0002F910F900FBE0F901F9018958081F4CF2A
:101BD0001F920F920FB60F9211242F933F938F9362
:101BE0009F93AF93BF9380910E0490910F04A091A7
:101BF0001004B09111043091E30323E0230F2D373B
:101C000058F50196A11DB11D2093E30380930E04A6
:101C100090930F04A0931004B09311048091E403F7
:101C20009091E503A091E603B091E7030196A11D11
:101C3000B11D8093E4039093E503A093E603B09372
:101C4000E703BF91AF919F918F913F912F910F909B
:101C50000FBE0F901F90189526E8230F0296A11D26
:101C6000B11DD2CF1F920F920FB60F9211242F9356
:101C70003F934F935F936F937F938F939F93AF9314
:101C8000BF93EF93FF93E091EA03F091EB0330975A
:101C900049F0A685B7858585968D91FF14C09C91E6
:101CA0008923A1F4FF91EF91BF91AF919F918F9103
:101CB0007F916F915F914F913F912F910F900FBE48
:101CC0000F901F9018959C91892361F7A389B4897F
:101CD0009C918589809589238C9386899789019722
:101CE000F1F7608D718DA685B785558538E020E0C8
:101CF000CB010197F1F7822F90E095958795282FDA
:101D00004C91452309F02068315091F7868D81FD73
:101D100020958091E90390E001968F739927309187
:101D2000E803381799F0A091E903B0E0AD55BC4F36
:101D30002C938093E903828D938D0197F1F7A3890A
:101D4000B4898C919589892B8C93ACCF868D8160D9
:101D5000868FF1CF109215041092140488EE93E050
:101D6000A0E0B0E08093160490931704A0931804A9
:101D7000B09319048BE391E09093130480931204C1
:101D800085EC90E090931F0480931E0484EC90E017
:101D9000909321048093200480EC90E0909323049E
:101DA0008093220481EC90E0909325048093240496
:101DB00082EC90E0909327048093260486EC90E0D8
:101DC000909329048093280410922B0410922C04E1
:101DD00010922D0410922E041092D1041092D0046F
:101DE0008FE591E09093CF048093CE0489E08093B7
:101DF000D20488E08093D304219A209A299AE5E2BC
:101E0000F0E08081816080831092D7048CE291E0C1
:101E10009093D9048093D8041092DA0484E68093D6
:101E2000D6044FE86091D3048091D2040E94D80870
:101E300040E46091D3048091D2040E94D8088FE5D9
:101E400091E09093CF048093CE041092B20410924C
:101E5000B10488EE93E0A0E0B0E08093B3049093E7
:101E6000B404A093B504B093B6048DE491E09093CC
:101E7000B0048093AF041092C6041092C50410926F
:101E8000C8041092C7041092CA041092C904109298
:101E9000CC041092CB046091CD046E7F6D7F609373
:101EA000CD046695617081E0682786E00E94F405A4
:101EB00061E086E00E944E06E5E1F9E0E491E093FE
:101EC000BF04E1E0F9E0E491F0E0EE0FFF1FEF5016
:101ED000F74F859194919093C1048093C00460E082
:101EE00087E00E944E068091CD0481FD04C061E030
:101EF00087E00E94F40587E08093BB04E6E1F9E007
:101F0000E491E093BC04E2E0F9E0E491F0E0EE0F4C
:101F1000FF1FE951F74F859194919093BE048093F0
:101F2000BD040895CF93DF93CDB7DEB767970FB6A3
:101F3000F894DEBF0FBECDBF789484B5826084BDB7
:101F400084B5816084BD85B5826085BD85B58160BD
:101F500085BD80916E00816080936E00109281003B
:101F600080918100826080938100809181008160F6
:101F700080938100809180008160809380008091B7
:101F8000B10084608093B1008091B0008160809343
:101F9000B00080917A00846080937A0080917A000A
:101FA000826080937A0080917A00816080937A00C9
:101FB00080917A00806880937A001092C10062E07C
:101FC00082E00E944E0661E084E00E944E0660E0DE
:101FD00084E00E94F405E0912204F091230482E061
:101FE0008083E0911E04F0911F041082E091200490
:101FF000F091210480E1808310922A04E09126046C
:10200000F091270486E08083E0912404F091250478
:10201000808180618083E0912404F0912504808197
:1020200088608083E0912404F09125048081806899
:102030008083E0912404F091250480818F7D80834A
:102040008EE891E00E94580A84E08093D40481E0F5
:102050008093D5048EEC94E00E946E0B84E680930E
:10206000D6044FE86091D3048091D2040E94D8082E
:102070001092CA041092C9041092C8041092C704A6
:102080001092C6041092C5048DEC90E09093CC049D
:102090008093CB049091BB04963108F047C025E5AE
:1020A00030E03093C6042093C5042BEC30E030932D
:1020B000C8042093C70420E930E03093CA04209379
:1020C000C9042091680084E0983048F031E09E30E7
:1020D00008F430E081E001C0880F3A95EAF7822BDE
:1020E000809368002DE630E0983050F02BE630E029
:1020F0009E3030F02CE630E0963110F030E020E0F9
:102100003093C3042093C204292F30E0983008F0A4
:1021100055C181E001C0880F9A95EAF78093C40405
:102120008091CB049091CC040197F1F78091C90480
:102130009091CA04892B49F1E091EA03F091EB03F5
:1021400024E0EF3AF20709F1309739F0A389B48916
:102150009C918589809589238C938091CD048E7F75
:102160008093CD041092E9031092E8038FEA94E083
:102170009093EB038093EA03E091C204F091C304CF
:1021800080819091C404892B808368EE73E080E0A5
:1021900090E00E94AF0648E050E067E271E08FEA0D
:1021A00094E00E94BE0468E070E086E094E00E9443
:1021B000A20989EA91E00E94580A87E291E00E9410
:1021C0008E0B68EE73E080E090E00E94AF0648E07E
:1021D00050E06FE171E08FEA94E00E94BE0468E095
:1021E00070E086E094E00E94A20986EC91E00E94F3
:1021F000580A8FE191E00E948E0B68EE73E080E058
:1022000090E00E94AF0648E050E067E171E08FEA9D
:1022100094E00E94BE0468E070E086E094E00E94D2
:10222000A2098AEE91E00E94580A48E050E06FE06F
:1022300071E08FEA94E00E94BE0467E070E086E0FF
:1022400094E00E94A20961E172E082E194E00E94C0
:102250006B0A80910A048111BEC06AE272E082E1D9
:1022600094E00E946B0A8EEC94E00E946E0B6FE08B
:1022700070E080E090E00E94AF066AE671E08EECCC
:1022800094E00E946B0A67E671E082E194E00E94AC
:10229000FD0968EE73E080E090E00E94AF068E01D9
:1022A0000F5F1F4F0E94B50B2091EC033091ED039F
:1022B000892B09F0AAC02530310508F0A6C01B8A79
:1022C0001A8A1D8A1C8A1F8A1E8A4AE0B801C9011F
:1022D0000E94C514F80101900020E9F73197AF0181
:1022E000401B510BB801CE0142960E94950A1A82FA
:1022F00019821C821B821E821D8245E350E063E32B
:1023000072E0C8010E94950A8E899F89CA88DB887D
:10231000ED80FE80E80EF91EC114D10409F468C0F6
:10232000892B91F0B701C8010E946D0A882309F436
:102330005FC029813A818D819E81B601820F931FF2
:102340000E94C017FE82ED824D815E8169817A8193
:1023500082E194E00E94BE0467E671E082E194E0CD
:102360000E94FD0989819A81009711F00E947116DF
:102370008A899B89009711F00E9471168EEC94E077
:102380000E946E0B64E170E080E090E00E94AF0676
:1023900069E672E08EEC94E00E946B0A64EC79E0EE
:1023A00080E090E00E94AF068091EC039091ED03F5
:1023B00001969093ED038093EC0374CF9E3040F42C
:1023C0002850310981E001C0880F2A95EAF7A6CE8E
:1023D0002E503109F7CF6FE272E082E194E00E9463
:1023E0006B0A8EEC94E00E946E0B66E771E047CFBB
:1023F00089819A81009711F00E9471161A821982C0
:102400001E821D821C821B829FCF2530310579F4EC
:102410008DE692E00E94580A88E19AE00FB6F8949F
:10242000A895809360000FBE90936000FFCF86E771
:1024300092E00E94580A8EEC94E00E946E0B67E9CD
:1024400072E08EEC94E00E946B0A8CE992E00E94AC
:10245000580A60EA7FE080E090E00E94AF068EECD0
:1024600094E00E946E0B6AEA72E082E194E00E94BE
:102470006B0AFEE1CF2ED12CE12CF12C8EEC94E0F6
:102480000E946E0B64EB72E08EEC94E00E946B0A8B
:1024900068EE73E080E090E00E94AF068EEC94E07E
:1024A0000E946E0BC6010E94DD0C2AE0B701A60156
:1024B00082E194E00E940C0A67E671E082E194E018
:1024C0000E94FD0968EE73E080E090E00E94AF0694
:1024D00082E0C81AD108E108F1089EEFC9169FEF03
:1024E000D906E906F90651F68EEC94E00E946E0BCF
:1024F00069EB72E08EEC94E00E946B0A68E873E18D
:1025000080E090E00E94AF0666E0E62E69E0F62EDD
:102510007AE1C72E79E0D72E88248A94982C54012A
:1025200050E0252E50E0352E0E94B50B9093050407
:1025300080930404892B09F44AC06EEB72E082E1B7
:1025400094E00E946B0A409104045091050470E0ED
:1025500060E02AE082E194E00E940C0A67E671E004
:1025600082E194E00E94FD098EEC94E00E946E0BE3
:102570006AE070E080E090E00E94AF068091040481
:10258000909105040E94DD0C809104049091050453
:10259000893E934008F4CAC0809100018B30F1F469
:1025A000E2EDF8E0149117FDB8C061E08BE00E9405
:1025B0004E06112309F481C0123009F092C08091B7
:1025C000B100887F84608093B10089E8F3C06AE03D
:1025D00070E080E090E00E94AF06D6CF8F3F09F018
:1025E0009CC08BE080930001E2EDF8E014911F3F66
:1025F00009F493C0113019F150F0123009F43CC0C5
:1026000017FD8BC061E08BE00E944E06D5CF14BC55
:1026100015BC84B5826084BD85B5816085BDF70138
:102620008491E82FF0E0EE0FFF1FEF50F74F8591F8
:102630009491F60184918093F20310E0B6CF10924A
:1026400080001092810080918100886080938100D9
:1026500080918100816080938100F7018491E82F4F
:10266000F0E0EE0FFF1FEF50F74F85919491F601C8
:1026700084918093F10399CF1092B0001092B10031
:102680008091B00082608093B0008091B100816041
:102690008093B100F7018491E82FF0E0EE0FFF1F67
:1026A000EF50F74F859194919093F0038093EF034F
:1026B000F60184918093EE0378CF85B5887F83609F
:1026C00085BD89E887BD8092FB039092FC03A092B0
:1026D000FD03B092FE0380916E00826080936E00D5
:1026E0001CC0113009F05FC080918100887F81603B
:1026F0008093810087EB92E2909389008093880019
:102700008092F7039092F803A092F903B092FA0333
:1027100080916F00826080936F006AE471E080E0D6
:1027200090E00E94AF068BE00E9422068FB7F894DB
:1027300040900E0450900F046090100470901104AB
:102740008FBFE5EDF8E08491E1E1F9E00491EDEF70
:10275000F8E01491112309F43DC081110E94CB05CA
:10276000E12FF0E0EE0FFF1FE951F74FA591B49173
:102770008C91082379F1109203048FE693E00E9474
:10278000580A60ED77E080E090E00E94AF062114E7
:10279000310409F4C9CE0E942805882309F4C0CE6B
:1027A0000E940000BDCE123021F01111B6CF87EB90
:1027B00089CF87EB8093B3008092F3039092F40368
:1027C000A092F503B092F60380917000826080932E
:1027D0007000A3CF80910304882309F49FC08091E7
:1027E000FF0390910004A0910104B0910204885766
:1027F0009C4EAF4FBF4F84159505A605B70508F051
:10280000BCCF89EC92E00E94580A8EEC94E00E94C2
:102810006E0B64E670E080E090E00E94AF068CE210
:10282000482E55245394612C712C8EEC94E00E9418
:102830006E0B62E073E08EEC94E00E946B0A68EE2F
:1028400073E080E090E00E94AF062AE0B301A201AD
:1028500082E194E00E940C0A67E672E082E194E073
:102860000E946B0A0E94B50B9093050480930404A8
:102870006EEB72E082E194E00E946B0A40910404E6
:102880005091050470E060E02AE082E194E00E944B
:102890000C0A67E671E082E194E00E94FD098EEC8B
:1028A00094E00E946E0BC2010E94DD0C68EE73E0A2
:1028B00080E090E00E94AF06F2E04F1A51086108F4
:1028C00071082EEF42162FEF52066206720609F0CB
:1028D000ACCF64E670E080E090E00E94AF0648E094
:1028E00050E06FE271E08FEA94E00E94BE0468E07D
:1028F00070E086E094E00E94A20967E073E082E164
:1029000094E00E946B0A8FE291E00E948E0B60EAD5
:102910007FE080E090E00E94AF062DCF2FB7F894C3
:1029200080910E0490910F04A0911004B0911104B5
:102930002FBF8093FF0390930004A0930104B093F2
:10294000020481E08093030484E393E00E94580A28
:1029500014CF8DE491E09093B0048093AF04809104
:10296000EA039091EB038F5A944071F4E091C20412
:10297000F091C30490818091C40480958923808361
:102980001092EB031092EA030895BB27FB01552731
:10299000AA27880F991FAA1FA41710F0A41B8395BC
:1029A0005051B9F7A05DAA3308F0A95DA193009733
:1029B00079F7B111B1931192CB010C94DF14DC01C2
:1029C000FC01672F71917723E1F7329704C07C9166
:1029D0006D9370836291AE17BF07C8F3089557FDDA
:1029E0009058440F551F59F05F3F71F04795880F7D
:1029F00097FB991F61F09F3F79F087950895121614
:102A000013061406551FF2CF4695F1DF08C01616BF
:102A100017061806991FF1CF869571056105089470
:102A20000895E894BB2766277727CB0197F9089587
:102A30002F923F924F925F926F927F928F929F92CE
:102A4000AF92BF92CF92DF92EF92FF920F931F93BC
:102A5000CF93DF93CDB7DEB7CA1BDB0B0FB6F8946D
:102A6000DEBF0FBECDBF09942A88398848885F84AD
:102A70006E847D848C849B84AA84B984C884DF801E
:102A8000EE80FD800C811B81AA81B981CE0FD11D02
:102A90000FB6F894DEBF0FBECDBFED0108950E94C2
:102AA00056156894B1110C94121508950E94F714EC
:102AB00088F09F5798F0B92F9927B751B0F0E1F0FF
:102AC000660F771F881F991F1AF0BA95C9F714C0AF
:102AD000B13091F00E941115B1E008950C941115D8
:102AE000672F782F8827B85F39F0B93FCCF38695E8
:102AF00077956795B395D9F73EF490958095709545
:102B000061957F4F8F4F9F4F089597FB072E16F4C7
:102B1000009407D077FD09D00E94BB1507FC05D0B3
:102B20003EF4909581959F4F0895709561957F4FE4
:102B30000895A1E21A2EAA1BBB1BFD010DC0AA1FFE
:102B4000BB1FEE1FFF1FA217B307E407F50720F016
:102B5000A21BB30BE40BF50B661F771F881F991F91
:102B60001A9469F760957095809590959B01AC01DA
:102B7000BD01CF010895AA1BBB1B51E107C0AA1FCD
:102B8000BB1FA617B70710F0A61BB70B881F991F0E
:102B90005A95A9F780959095BC01CD010895EE0F47
:102BA000FF1F0590F491E02D09940F931F93CF938D
:102BB000DF938230910510F482E090E0E091E1042F
:102BC000F091E20430E020E0B0E0A0E0309799F42A
:102BD0002115310509F44AC0281B390B2430310571
:102BE000D8F58A819B816115710589F1FB01938379
:102BF0008283FE0111C040815181028113814817F7
:102C00005907E0F04817590799F4109761F01296A8
:102C10000C93129713961C933296CF01DF91CF91AC
:102C20001F910F9108950093E1041093E204F4CFF3
:102C30002115310551F04217530738F0A901DB0186
:102C40009A01BD01DF01F801C1CFEF01F9CF9093E7
:102C5000E2048093E104CDCFFE01E20FF31F8193E4
:102C600091932250310939832883D7CF2091DF04F3
:102C70003091E004232B41F42091030130910401B1
:102C80003093E0042093DF04209101013091020190
:102C90002115310541F42DB73EB740910501509102
:102CA0000601241B350BE091DF04F091E004E217EC
:102CB000F307A0F42E1B3F0B2817390778F0AC015F
:102CC0004E5F5F4F2417350748F04E0F5F1F50933C
:102CD000E0044093DF04819391939FCFF0E0E0E024
:102CE0009CCFCF93DF930097E9F0FC0132971382DA
:102CF0001282A091E104B091E204ED0130E020E005
:102D00001097A1F420813181820F931F2091DF045D
:102D10003091E0042817390709F061C0F093E0040E
:102D2000E093DF04DF91CF910895EA01CE17DF072A
:102D3000E8F54A815B819E0141155105B1F7E90132
:102D4000FB83EA8349915991C40FD51FEC17FD0706
:102D500061F4808191810296840F951FE901998326
:102D60008883828193819B838A83F0E0E0E01296DE
:102D70008D919C9113970097B9F52D913C911197E6
:102D8000CD010296820F931F2091DF043091E00461
:102D90002817390739F6309751F51092E20410924E
:102DA000E104B093E004A093DF04BCCFD383C283DB
:102DB00040815181840F951FC817D90761F44E5F78
:102DC0005F4F88819981480F591F518340838A81C1
:102DD0009B81938382832115310509F0B0CFF09355
:102DE000E204E093E1049ECFFD01DC01C0CF138239
:102DF0001282D7CFB0E0A0E0E0E0F7E10C941A1522
:102E00008C01009751F4CB010E94D5158C01C801AB
:102E1000CDB7DEB7E0E10C943615FC01E60FF71FE5
:102E20009C0122503109E217F30708F49DC0D90133
:102E3000CD91DC911197C617D70798F0C530D10511
:102E400030F3CE0104978617970708F3C61BD70BFC
:102E50002297C193D1936D937C93CF010E947116F9
:102E6000D6CF5B01AC1ABD0A4C018C0E9D1EA09101
:102E7000E104B091E204512C412CF12CE12C10978B
:102E800031F58091DF049091E0048815990509F0EF
:102E90005CC04616570608F058C080910101909119
:102EA0000201009741F48DB79EB740910501509102
:102EB0000601841B950BE817F90708F055C0F0933D
:102EC000E004E093DF04F90171836083A0CF8D916A
:102ED0009C91119712966C90129713967C90139771
:102EE000A815B90559F56C0142E0C40ED11CCA14ED
:102EF000DB0420F1AC014A195B09DA01129615973F
:102F000080F06282738251834083D9016D937C93F8
:102F1000E114F10471F0D7011396FC93EE9312972C
:102F200076CF22968C0F9D1FF90191838083F30148
:102F3000EFCFF093E204E093E10469CF481659061D
:102F400008F42C017D01D3019ACFCB010E94D51545
:102F50007C01009749F0AE01B8010E94B717C80183
:102F60000E947116870153CF10E000E050CFFB01A3
:102F7000DC0102C001900D9241505040D8F70895F5
:102F8000FB01DC0101900D920020E1F7089514E0AF
:102F9000C3E9D4E004C0FE010E94CF152196C439D4
:102FA000D107C9F7F894FFCFFF0000E30480006168
:102FB00003002800064C606103003A0001ADA761E0
:102FC00006003A0000A0676106002500021060615B
:102FD00006003600006064610600390190519B00D4
:102FE0000000005E05BE04EB04AB051C05FA040EF0
:102FF00005000000000D09BE04FA090C09690981E9
:1030000009F408000000007E0C3D0CFA09F3080DDD
:103010000A00646F6E65006661696C6564006661D4
:10302000696C00526561642053656E736F723A205B
:10303000004641494C005374617274205343443339
:1030400030204D6F64627573206C656374757265B2
:1030500000537461727420636F6E74696E696F756A
:1030600073206D6561737572656D656E740053656F
:1030700074206D6561737572656D656E7420696E1F
:1030800074657276616C2032207365636F6E647351
:1030900020004465616374697661746520417574CC
:1030A0006F6D617469632053656C662D43616C6953
:1030B00062726174696F6E20004175746F63616C38
:1030C0006962726174696F6E2073657420746F3AFF
:1030D0002000204F464600204F4E00416972207369
:1030E000656E736F72206E6F7420646574656374AF
:1030F00065642E20506C6561736520636865636B41
:1031000020776972696E672E2E2E205472792320E3
:10311000006261640052455345542E2E2E004169D1
:10312000722073656E736F72206465746563746575
:1031300064205350533330204D6F646275730067C1
:103140006F6F640053434433302072656164204FD5
:103150004B00507265686561743A200048454154DF
:1031600000434F322D00434F322870706D293A20B2
:103170000053746172742063616C69627261746976
:103180006F6E2070726F636573733A203330302036
:103190007365636F6E6473206F6620343030207007
:1031A000706D20737461626C650043414C2D005258
:1031B0006573657474696E6720666F7263656420F9
:1031C00063616C6962726174696F6E2066616374B9
:1031D0006F7220746F203430303A2000427574745E
:1031E0006F6E20686173206265656E207072657312
:1031F0007365642C20686F6C64203573206D6F726A
:103200006520746F2073746172742063616C6962ED
:10321000726174696F6E0057616974696E672066C8
:0C3220006F72206E65772064617461009D
:107E0000112484B714BE81FFF0D085E080938100F7
:107E100082E08093C00088E18093C10086E0809377
:107E2000C20080E18093C4008EE0C9D0259A86E02C
:107E300020E33CEF91E0309385002093840096BBD3
:107E4000B09BFECF1D9AA8958150A9F7CC24DD24C4
:107E500088248394B5E0AB2EA1E19A2EF3E0BF2EE7
:107E6000A2D0813461F49FD0082FAFD0023811F036
:107E7000013811F484E001C083E08DD089C08234E0
:107E800011F484E103C0853419F485E0A6D080C0E4
:107E9000853579F488D0E82EFF2485D0082F10E0AE
:107EA000102F00270E291F29000F111F8ED06801E7
:107EB0006FC0863521F484E090D080E0DECF843638
:107EC00009F040C070D06FD0082F6DD080E0C81688
:107ED00080E7D80618F4F601B7BEE895C0E0D1E017
:107EE00062D089930C17E1F7F0E0CF16F0E7DF06D8
:107EF00018F0F601B7BEE89568D007B600FCFDCFD4
:107F0000A601A0E0B1E02C9130E011968C91119780
:107F100090E0982F8827822B932B1296FA010C0160
:107F200087BEE89511244E5F5F4FF1E0A038BF0790
:107F300051F7F601A7BEE89507B600FCFDCF97BE46
:107F4000E89526C08437B1F42ED02DD0F82E2BD052
:107F50003CD0F601EF2C8F010F5F1F4F84911BD097
:107F6000EA94F801C1F70894C11CD11CFA94CF0C13
:107F7000D11C0EC0853739F428D08EE10CD085E9AC
:107F80000AD08FE07ACF813511F488E018D01DD067
:107F900080E101D065CF982F8091C00085FFFCCF94
:107FA0009093C60008958091C00087FFFCCF809118
:107FB000C00084FD01C0A8958091C6000895E0E648
:107FC000F0E098E1908380830895EDDF803219F02E
:107FD00088E0F5DFFFCF84E1DECF1F93182FE3DFCA
:107FE0001150E9F7F2DF1F91089580E0E8DFEE27F6
:047FF000FF270994CA
:027FFE00040479
:00000001FF
