:100000000C9463000C948B000C948B000C94811066
:100010000C9481100C9481100C948B000C948B0028
:100020000C948B000C948B000C948B000C948B0024
:100030000C948B000C945A100C948B000C948B0035
:100040000C94F50E0C948B000C94C30E0C949D0E26
:100050000C948B000C948B000C948B000C948B00F4
:100060000C943F0F0C948B0000000000240027002C
:100070002A0000000008000201000003040700003D
:1000800000000000000000000000230026002900FE
:1000900000000000250028002B00040404040404D0
:1000A0000404020202020202030303030303010227
:1000B00004081020408001020408102001020408F6
:1000C0001020F910521711241FBECFEFD8E0DEBF69
:1000D000CDBF27E0A4E0B5E001C01D92A136B20774
:1000E000E1F715E0A0E0B1E0E4E3F5E302C005903C
:1000F0000D92A430B107D9F710E0C2E6D0E004C0F9
:100100002197FE010E949518C136D107C9F70E94B8
:100110004C120C948D1A0C940000CF93DF9300D0F6
:1001200000D0CDB7DEB719821A821B821C82DC0197
:1001300090E04FE7ED91E1110CC0E1E0F0E0EC0F51
:10014000FD1FE90FF11D8FEF943028F481939F5F1D
:10015000FBCF943098F08981809303018A8180934A
:1001600004018B81809305018C81809306010F909F
:100170000F900F900F90DF91CF910895EE3299F488
:10018000992371F0292F2150330BF90161E070E0C0
:100190006C0F7D1FE60FF71F80818F778083CACF9A
:1001A000498391E0C7CF292F30E080ED8E0F8A3050
:1001B00070F4F0E0EF5EFE4F8081E1E0F0E0EC0FE4
:1001C000FD1F2E0F3F1FF90180839F5FB3CF8FE983
:1001D0008E0F8A3120F4F0E0EA53FF4FEDCF8FEB22
:1001E0008E0F8A3120F4F0E0EA51FF4FE5CF8FEB1C
:1001F000ED3219F32CF48FEFE032F9F286EBDDCF1C
:100200008FE7EE32D1F287EFEF35B9F2F7CFEF9209
:10021000FF920F931F93CF93DF9300D000D01F92D4
:10022000CDB7DEB725E0EDE0F1E0DE0111960190FB
:100230000D922A95E1F79C0129513C4F273F3A4204
:1002400090F085E48C83CE0101960E948D000F9082
:100250000F900F900F900F90DF91CF911F910F9102
:10026000FF90EF900895009711F480E3EBCF20E02A
:1002700097FF04C091958195910921E0E3E03AE070
:10028000E32EF12C01E010E00C0F1D1F0E0F111DCD
:10029000B7010E944B18805DD8018C93CB01E150CF
:1002A000009781F7222379F281E090E08C0F9D1F67
:1002B0008E0F911DFC018DE28083C5CF9091C20607
:1002C000963009F0B0F4E091C306F0E0ED54F94F38
:1002D00081878091C2068F5F8093C2068091C3069A
:1002E0008F5F8093C3068091C306863010F0109212
:1002F000C3060895AF92BF92CF92DF92EF92FF9222
:100300000F931F93CF93DF936C017B018B01040F3D
:10031000151FEB015E01AE18BF08C017D10759F0D9
:100320006991D601ED91FC910190F081E02DC6011B
:100330000995892B79F7C501DF91CF911F910F9115
:10034000FF90EF90DF90CF90BF90AF900895FC01A9
:10035000538D448D252F30E0842F90E0821B930B2A
:10036000541710F0CF96089501970895FC01918DD0
:10037000828D981761F0A28DAE0FBF2FB11D5D96D3
:100380008C91928D9F5F9F73928F90E008958FEF75
:100390009FEF0895FC01918D828D981731F0828D29
:1003A000E80FF11D858D90E008958FEF9FEF089580
:1003B000FC01918D228D892F90E0805C9F4F821BE4
:1003C00091098F739927089586E196E00E94D801DC
:1003D00021E0892B09F420E0822F089580E090E04D
:1003E000892B29F00E94E40181110C9400000895EA
:1003F000FC01A48DA80FB92FB11DA35ABF4F2C919A
:10040000848D90E001968F739927848FA689B78990
:100410002C93A089B1898C91837080648C93938D87
:10042000848D981306C00288F389E02D80818F7D2A
:1004300080830895EF92FF920F931F93CF93DF93E2
:10044000EC0181E0888F9B8D8C8D98131AC0E88910
:10045000F989808185FF15C09FB7F894EE89FF89DF
:100460006083E889F98980818370806480839FBF7D
:1004700081E090E0DF91CF911F910F91FF90EF907D
:100480000895F62E0B8D10E00F5F1F4F0F7311278D
:10049000E02E8C8D8E110CC00FB607FCFACFE889C8
:1004A000F989808185FFF5CFCE010E94F801F1CF57
:1004B000EB8DEC0FFD2FF11DE35AFF4FF0829FB73C
:1004C000F8940B8FEA89FB8980818062CFCFCF932C
:1004D000DF93EC01888D8823B9F0AA89BB89E8896C
:1004E000F9898C9185FD03C0808186FD0DC00FB612
:1004F00007FCF7CF8C9185FFF2CF808185FFEDCF90
:10050000CE010E94F801E9CFDF91CF9108958330A9
:1005100081F028F4813099F08230A9F00895873075
:10052000A9F08830C9F08430B1F4809180008F7DCB
:1005300003C0809180008F7780938000089584B5F8
:100540008F7784BD089584B58F7DFBCF8091B000F7
:100550008F778093B00008958091B0008F7DF9CFA0
:10056000CF93DF93282F30E0F901EE58FF4F8491AD
:10057000F901E255FF4FD491F901E656FF4FC491BE
:10058000CC23A1F081110E948702EC2FF0E0EE0F46
:10059000FF1FEA57FF4FA591B491EC91ED2381E045
:1005A00090E009F480E0DF91CF91089580E090E041
:1005B000FACF1F93CF93DF93282F30E0F901EE5845
:1005C000FF4F8491F901E255FF4FD491F901E656AE
:1005D000FF4FC491CC23A9F0162F81110E948702EE
:1005E000EC2FF0E0EE0FFF1FE057FF4FA591B49105
:1005F0008FB7F894EC91111108C0D095DE23DC93ED
:100600008FBFDF91CF911F910895DE2BF8CFCF934D
:10061000DF9390E0FC01E255FF4F249186569F4FF7
:10062000FC0184918823D1F090E0880F991FFC0190
:10063000E859FF4FA591B491FC01E057FF4FC591D8
:10064000D49161110EC09FB7F8948C91E22FE09580
:100650008E238C932881E223E8839FBFDF91CF9183
:1006600008958FB7F894EC91E22BEC938FBFF6CFFF
:100670003FB7F89480918F0590919005A0919105D6
:10068000B091920526B5A89B05C02F3F19F00196A1
:10069000A11DB11D3FBFBA2FA92F982F8827BC01DC
:1006A000CD01620F711D811D911D42E0660F771F04
:1006B000881F991F4A95D1F708958F929F92AF9204
:1006C000BF92CF92DF92EF92FF924B015C010E94AA
:1006D00038036B017C010E9438036C197D098E0977
:1006E0009F09683E734081059105A8F321E0821AB5
:1006F0009108A108B10888EEC80E83E0D81EE11C5D
:10070000F11C81149104A104B10429F7FF90EF902A
:10071000DF90CF90BF90AF909F908F9008952FB7AC
:10072000F89460918B0570918C0580918D05909166
:100730008E052FBF08951F93CF93DF93C1E0C09321
:100740004605882399F1D091B8001091BA008091A4
:10075000BC008A7B8093BC0060E082E10E94D902E9
:1007600060E083E10E94D9021092EC05C093EB0592
:100770001092C60561E082E10E94D90261E083E146
:100780000E94D9028091B9008E7F8093B900809138
:10079000B9008D7F8093B90088E48093B80085E428
:1007A0008093BC001093BA00D093B800DF91CF9132
:1007B0001F9108958F929F92AF92BF92CF92DF9236
:1007C000EF92FF920F931F93CF93DF93D091150673
:1007D000D13208F0D7C0182FC09114060E943803F8
:1007E0006B017C018091EC0581116BC082E08093EC
:1007F000EC051093EB058FEF8093EA051092E90565
:10080000D093E805A4EFB5E0E8ECF5E080E0D8137C
:1008100091C01092C7058091C705CC0FC82BC0931B
:10082000C7058091C605813009F088C01092C605C1
:100830000E9438036B017C018091C7058093BB0047
:100840008091EE059091EF05A091F005B091F10532
:10085000892B8A2B8B2BA1F00E9438030091EE0587
:100860001091EF052091F0053091F1056C197D098B
:100870008E099F09061717072807390708F442C091
:100880008091BC0083FDD8CF85EC8093BC000E9492
:1008900038036B017C018091EC05823009F450C073
:1008A0008091EA058F3F09F46FC08091EA0580329C
:1008B00009F46CC08091EA05803309F469C084E0D2
:1008C00026C08091EE059091EF05A091F005B091C2
:1008D000F105892B8A2B8B2B09F484CF0E943803D6
:1008E0008090EE059090EF05A090F005B090F10596
:1008F0006C197D098E099F0986169706A806B90608
:1009000008F070CF8091ED050E949B0385E0109266
:10091000F305109215061092F205DF91CF911F9109
:100920000F91FF90EF90DF90CF90BF90AF909F908E
:100930008F9008959D9191938F5F69CF85EEA5CF9C
:100940008091EE059091EF05A091F005B091F10531
:10095000892B8A2B8B2B09F49ECF0E9438030091A0
:10096000EE051091EF052091F0053091F1056C191D
:100970007D098E099F09061717072807390708F010
:100980008ACFC0CF81E0C3CF80E0C1CF82E0BFCFAC
:1009900083E0BDCF8F929F92AF92BF92CF92DF92B2
:1009A000EF92FF920F931F93CF93DF93D82FC62F11
:1009B000142F613208F09CC00E9438036B017C0147
:1009C0008091EC0581116FC081E08093EC0510935C
:1009D000EB059FEF9093EA051092E9059C0F909329
:1009E000E8058093C7058091C705DD0FD82BD0930C
:1009F000C7058091C605813009F07CC01092C605FC
:100A00000E9438036B017C018091C7058093BB0075
:100A10008091EE059091EF05A091F005B091F10560
:100A2000892B8A2B8B2BA1F00E9438030091EE05B5
:100A30001091EF052091F0053091F1056C197D09B9
:100A40008E099F09061717072807390708F44CC0B5
:100A50008091BC0083FDD8CF85EC8093BC000E94C0
:100A600038036B017C018091EC05813009F444C0AE
:100A70008091E9058C1710F4C091E905E8ECF5E0E8
:100A8000A6EAB5E080E08C1359C08C2FDF91CF919E
:100A90001F910F91FF90EF90DF90CF90BF90AF909C
:100AA0009F908F9008958091EE059091EF05A09111
:100AB000F005B091F105892B8A2B8B2B09F480CF9F
:100AC0000E9438038090EE059090EF05A090F0050D
:100AD000B090F1056C197D098E099F09861697065D
:100AE000A806B90608F06CCF8091ED050E949B0323
:100AF000C0E0CBCF85EEB1CF8091EE059091EF05B0
:100B0000A091F005B091F105892B8A2B8B2B09F46C
:100B1000AACF0E9438030091EE051091EF052091B5
:100B2000F0053091F1056C197D098E099F090617B2
:100B300017072807390708F096CFD6CF91919D93D4
:100B40008F5FA1CF20916705260F3327331F2132F6
:100B50003105ECF42091EC05FC0190E080E02430BC
:100B600069F082E00895A09167052191AC01495B8D
:100B70005A4FA40FB52FB11D2C930196861798F3E9
:100B800080916705680F6093670580E0089581E0B4
:100B900008950895E091450580914405E81730F4E3
:100BA000F0E0EA55FA4F808190E008958FEF9FEFD3
:100BB000089590914505809144052FEF3FEF9817D8
:100BC00048F4E92FF0E0EA55FA4F208130E09F5FCA
:100BD00090934505C901089580914405909145057C
:100BE000891B990B0895CF92DF92EF92FF920F939A
:100BF0001F93CF93DF937C01CB018A012091F205F3
:100C0000222389F0EB016B01C40ED51ECC15DD0546
:100C100069F06991D701ED91FC910190F081E02D8F
:100C2000C7010995F3CF642F0E94A205C801DF9187
:100C3000CF911F910F91FF90EF90DF90CF9008958B
:100C4000CF93DF931F92CDB7DEB769832091F20572
:100C50002223F9F020911506203258F021E030E0EF
:100C6000FC013383228390E080E00F90DF91CF91ED
:100C700008958091F305E82FF0E0EC50FA4F998148
:100C800090838F5F8093F3058093150681E090E059
:100C9000ECCF61E0CE0101960E94A205F7CF813032
:100CA00061F028F0823079F0833099F0089566235E
:100CB00011F02D9A08952D980895662311F02C9A1D
:100CC00008952C980895662311F02B9A08952B9877
:100CD0000895662311F02A9A08952A9808955C9839
:100CE00027E030E070E0AB01022E02C05595479539
:100CF0000A94E2F740FF1FC0289A5F9A5F9821503C
:100D0000310988F727E030E0E82FF0E0EB5EFE4F96
:100D1000808190E0AC01022E02C0559547950A945F
:100D2000E2F740FF0AC0289A5F9A5F982150310984
:100D300088F75C9A08952898E0CF2898F5CFCF934C
:100D4000DF93362FBA01DC0112968D919C9141E020
:100D50004093F205309314061092F3051092150695
:100D6000422F50E0DC01ED91FC910280F381E02DF7
:100D70000995EC0181E00E94DA0381E0CD2B09F4B2
:100D800080E0DF91CF9108951F93CF93DF93122FCF
:100D9000DC0112968D919C9121E02093F2056093E5
:100DA00014061092F30510921506DC01ED91FC91EA
:100DB0000190F081E02D642F0995EC0181E0111183
:100DC00080E00E94DA0381E0CD2B09F480E0DF911E
:100DD000CF911F9108950895209195053091960522
:100DE0002817390771F4909193058091940598170D
:100DF00041F0E0919305F0E0EC5FFA4F808190E0E4
:100E000008958FEF9FEF0895EF92FF920F931F9336
:100E1000CF93DF93DC015C96ED90FC905D97E1143D
:100E2000F10479F481E090E013969C938E931297ED
:100E300090E080E0DF91CF911F910F91FF90EF90B4
:100E400008955196ED91FC91529750968C91509740
:100E5000982F90950FB75E962C915E97122F127077
:100E600021FD6095F8942081112319F1282B20830E
:100E7000E7012197F1F728E0462F50E0308160FF2D
:100E80001AC0382B3083E7012197F1F7BA01759525
:100E90006795215089F7112381F080818923808310
:100EA0000FBF5C968D919C910197F1F781E090E0E6
:100EB000C1CF2923DCCF3923E5CF9081892BEFCF18
:100EC00020919505309196052817390771F4809186
:100ED00094052091930590E0805C9F4F821B9109BF
:100EE00060E470E00E944B18089590E080E008955F
:100EF000209195053091960528173907B9F49091FE
:100F0000930580919405981789F0E0919305F0E09E
:100F1000EC5FFA4F80812091930530E02F5F3F4FC7
:100F20002F7333272093930590E008958FEF9FEF61
:100F3000089590E080E00895CF92DF92EF92FF92C3
:100F40000F931F93CF93DF9380910001815009F499
:100F5000A2C0809300018091D80681112AC080919F
:100F6000DA069091DB06892B21F18091DE069091C3
:100F7000DF06892B51F48091D906813009F434C100
:100F800008F420C1823009F459C18091DE069091A5
:100F9000DF06892B49F08091DE069091DF060197EC
:100FA0009093DF068093DE068091D906811161C19E
:100FB0005B988091C5069091C6068233910508F42E
:100FC00072C11092C6061092C50603EB16E07801B6
:100FD000D0E0DD24D394C6B1D13009F44CC1D23075
:100FE00009F44DC1C695C170CC2ECD24F70184897A
:100FF000DF5F8C1539F0C11146C18D2F0E945E0153
:10100000F701C48AC11118C0F8018789908D853114
:10101000910540F083709927892B21F48D2F8068EA
:101020000E945E01F8018789908D8F3F980721F01B
:101030000196F801908F878B0E5F1F4FFFEFEF1A1D
:10104000FF0AD33041F68091ED06882309F47DC173
:101050008091EF06811179C1E6E8F0E0A591B491A5
:101060008C918091FA06882329F08091F5068823D7
:1010700009F41FC12091F3063091F4068091F00627
:101080009091F1062817390708F4A8C11092F706C5
:101090001092F60639C184E0809300014091E70682
:1010A000411106C08091EB06811102C0D1E011C050
:1010B0008091E9068F5F8093E906D091E806DD23F1
:1010C00009F466C0823490F31092E8061092E906A3
:1010D000D0E08091E606282F30E050E0082E02C0D4
:1010E000559547950A94E2F740FF03C06FEFDD2363
:1010F00021F02D5F3E4FF90160810E946F068091C3
:10110000E6068F5F843008F04CC08093E60680913D
:10111000EA06C091EB06C8239FEF9D0FC923C8279D
:101120008091EC06C81709F416CF10E000E0802F7C
:101130002091EC062C2730E0002E02C03595279533
:101140000A94E2F720FF1CC02091EB0630E0002E4D
:1011500002C0359527950A94E2F720FF25C061E08B
:10116000DD2361F06091EA0670E0002E02C0759503
:1011700067950A94E2F76095709561700E944F063A
:101180000F5F1F4F0430110591F6C093EC06E3CEBC
:10119000853108F49ECF81E08093E8061092E9063D
:1011A00085CF1092E606B3CF6091EA0670E0002E7C
:1011B00002C0759567950A94E2F760957095617025
:1011C0007727DCCF8091DC069091DD06892B61F0DA
:1011D0008091DC069091DD069093DF068093DE0619
:1011E00081E08093D906D1CE8091E1068150809331
:1011F000E1068091E106882359F08091DA0690910A
:10120000DB069093DF068093DE061092D906BDCEF2
:101210008091E0068093E1068091E4069091E506D6
:101220009093DF068093DE0682E08093D90680915A
:10123000E4069091E506892B09F0A7CE8091E2069D
:101240009091E306892BC9F28091E2069091E30622
:1012500001979093E3068093E2068091E2069091D5
:10126000E306892B51F61092DB061092DA065B9AA0
:101270008CCE5B9A9ECEC2FBCC27C0F9B5CEC3FB09
:10128000CC27C0F9B1CEF8018789908D459740F001
:101290008D2F806C0E945E01F801108E178AB0CEEF
:1012A0008D2F8064F7CF01969093C6068093C50674
:1012B000CACE8091FB069091FC06A091FD06B091EC
:1012C000FE060196A11DB11D8093FB069093FC06BE
:1012D000A093FD06B093FE062091F3063091F4062C
:1012E0008091F0069091F1062817390708F073C035
:1012F0008091F3069091F4069093F7068093F6069A
:101300001092F4061092F3068091EE06811118C037
:101310008091F6069091F7069093F9068093F8066F
:101320008091FB069091FC06A091FD06B091FE060F
:101330008093FF0690930007A0930107B0930207E4
:101340008091FA0681111092FA068091D006909150
:10135000D106A091D206B091D306892B8A2B8B2B74
:10136000B9F08091B806811113C08091D006909198
:10137000D106A091D206B091D3060197A109B10977
:101380008093D0069093D106A093D206B093D30653
:101390008091B706811110C08091D0069091D1063E
:1013A000A091D206B091D3068093D4069093D5062F
:1013B000A093D606B093D706E091B306F091B40699
:1013C0003097B1F0DF91CF911F910F91FF90EF9087
:1013D000DF90CF90099490E080E08ECF8091F3066B
:1013E0009091F40601969093F4068093F3068CCFC7
:1013F000DF91CF911F910F91FF90EF90DF90CF90F1
:1014000008950F931F93CF93DF93EC01862F8A01EA
:1014100041E061E00E94CA041092450580934405B2
:101420008A819B81DC01ED91FC910084F185E02DA6
:101430000995892B89F08A819B81DC01ED91FC91D2
:101440000284F385E02D0995F801808381E0DF9126
:10145000CF911F910F91089580E0F9CFCF92DF9245
:10146000EF92FF920F931F93CF93DF936C01862F20
:10147000D42FC52FE22EF12C622F213208F060E22A
:1014800041E00E94CA0410924505809344050D2F47
:101490001C2FD0E0C0E0D60112968D919C91DC010A
:1014A000ED91FC910084F185E02D0995892B91F057
:1014B000CE15DF057CF4F60182819381DC01ED918C
:1014C000FC910284F385E02D0995F80181938F0149
:1014D0002196E1CF81E0EC16FD0609F080E0DF9176
:1014E000CF911F910F91FF90EF90DF90CF900895D3
:1014F000FC0101900020E9F73197AF01481B590B1F
:10150000BC0186E196E00C947A018F929F92AF9293
:10151000BF920F931F93CF93DF93CDB7DEB7A19701
:101520000FB6F894DEBF0FBECDBF19A2423008F44B
:101530004AE08E010F5D1F4F842E912CB12CA12CFF
:10154000A50194010E945F18E62FB901CA01EA3093
:10155000F4F4E05DD801EE938D01232B242B252B91
:1015600079F790E080E0109719F0CD010E94780A99
:10157000A1960FB6F894DEBF0FBECDBFDF91CF911D
:101580001F910F91BF90AF909F908F900895E95C4D
:10159000E1CFCF92DF92EF92FF92CF93DF936B0177
:1015A0007C016DE286E196E00E941A02EC0166275A
:1015B0007727CB016C197D098E099F094AE00E94AB
:1015C000850A8C0F9D1FDF91CF91FF90EF90DF90E8
:1015D000CF900895CF93DF930E94780AEC018FE6B5
:1015E00091E00E94780A8C0F9D1FDF91CF910895A2
:1015F0000C94780AFF920F931F93CF93DF93EC0123
:10160000F42E8C01075F1F4F81E0481709F44CC08E
:1016100061114EC082E791E00E94F80A80911007A4
:10162000882331F18FE791E00E94F80A699170E018
:1016300090E080E04AE00E94850A8EE393E00E94F9
:10164000F80A0C171D0791F788E891E00E94F80A44
:101650006F2D70E090E080E04AE00E94850A8FE6FE
:1016600091E0DF91CF911F910F91FF900C94780A38
:1016700085E891E00E94F80A8991803120F48BEB93
:1016800093E00E94F80AFE013197608170E090E0DB
:1016900080E040E10E94850A8EE393E00E94F80A10
:1016A000C017D10729F7D0CF82E791E0662311F068
:1016B00085E991E00E94F80A809110078823D9F00B
:1016C0008FE791E00E94F80A699170E090E080E075
:1016D0004AE00E94850A8EE393E00E94F80A0C1704
:1016E0001D0791F78EE393E0DF91CF911F910F914A
:1016F000FF900C94EA0A85E891E00E94F80A89912B
:10170000803120F48BEB93E00E94F80AFE013197C0
:10171000608170E090E080E040E10E94850A8EE305
:1017200093E00E94F80A0C171D0729F7DBCFCF932F
:10173000DF93EC0180910F07882331F0409105077A
:1017400061E0CE010E94FA0A80910A0790910B078E
:10175000DC01ED91FC910280F381E02D49E050E045
:10176000BE01099580910A0790910B07DC01ED916C
:10177000FC910680F781E02DDF91CF9109941F93B2
:10178000CF93DF93182FC0E0C117E9F080910A07CB
:1017900090910B07DC01ED91FC910284F385E02D23
:1017A0000995D82F8EE991E00E94F80A6D2F70E01C
:1017B00090E080E04AE00E94850A8FE691E00E9476
:1017C000780ACF5FE1CFDF91CF911F910895CF933A
:1017D000DF93BC01990F880B990B97FF0CC00E94F7
:1017E000C90AEC018FE691E00E94780A8C0F9D1FD8
:1017F000DF91CF9108954AE00E94850AF2CF80914F
:101800009A058F3F11F410929A0580919A0524E66B
:10181000829FC00111249C0128513C4F253145E095
:101820003407F4F43093A3052093A20588EB91E0EC
:101830000E94F80A8091A2059091A3050E94E70BEF
:1018400082E794E00E948D0068EE73E080E090E013
:101850000E945D038091A2059091A3050C9407015D
:10186000845D9E4F9093A3058093A205DFCF8F9256
:101870009F92AF92BF92CF92DF92EF92FF920F931F
:101880001F93CF93DF93EC010E948F036B017C01C8
:1018900089E0DE011D928A95E9F710920507809193
:1018A0000A0790910B07DC01ED91FC910084F18512
:1018B000E02D099509976CF50E948F036C197D093D
:1018C0008E099F09643F71408105910540F385ECC5
:1018D00091E00E94EA0A82E08093050780910A075E
:1018E00090910B07DC01ED91FC910084F185E02DD6
:1018F00009950E94BF0B82E0DF91CF911F910F915C
:10190000FF90EF90DF90CF90BF90AF909F908F901F
:10191000089500910A0710910B076E01B9E0CB0EF4
:10192000D11C7E010E948F03F80160877187828736
:101930009387D801ED91FC910284F385E02DC801D5
:10194000099597FF58C00E948F03F8018084918405
:10195000A284B384681979098A099B0984809580D7
:10196000A680B780681579058A059B0510F38091DC
:101970000507823009F2FE0131969E01285F3F4F34
:1019800080E09191890F2E173F07D9F781959885AF
:10199000981719F084E080930507988180911107CA
:1019A000981305C0998180911307981781F0809151
:1019B0000A0790910B07DC01ED91FC910084F18501
:1019C000E02D09950E94BF0B83E08093050780916D
:1019D0000507811103C081E08093050780910F07FF
:1019E000882331F04091050760E0CE010E94FA0A99
:1019F0008091050781CFF70181937F01EC15FD05EB
:101A000009F090CFB4CFCF93DF93CDB7DEB729974E
:101A10000FB6F894DEBF0FBECDBFFE01339627E0B0
:101A2000DF011D922A95E9F7E1E1F7E029E0DF0106
:101A30001D922A95E9F72FEF298321E02A83FC01E3
:101A4000E75EFE4F20812B838630910579F108F502
:101A5000019731F1FE0132969E01275F3F4F80E0F2
:101A60009191890F2E173F07D9F78195898789E0D2
:101A7000FE013196A1E1B7E001900D928A95E1F760
:101A800029960FB6F894DEBF0FBECDBFDF91CF9180
:101A900008958730910579F00897E1F66887DACFE5
:101AA00080910C078111D6CF6C83D4CF611571055D
:101AB00089F26F83CFCF6D83CDCF0F931F930E9499
:101AC000030D81E197E00E94970B80911307843802
:101AD00079F58CE297E00E94370C0E948F03009109
:101AE0000607109107072091080730910907601B2E
:101AF000710B820B930B0E94981720E83BEC44E299
:101B00005CE40E94461887FD20C080910C07882362
:101B1000E1F00E948F03609306077093070780939C
:101B200008079093090781E090E070E060E0C7CF7C
:101B3000853819F48AE197E0CECF863819F483E22C
:101B400097E0C9CF85E397E0C6CF1F910F91089525
:101B5000CF9370E060E084E090E00E945D0D8091A2
:101B60000507813089F4C0910D07C11110C0809123
:101B70001E07282F30E0322F222780911F07820F67
:101B8000932F911D97FF4CC090E080E049C070E01A
:101B900060E085E090E00E945D0D80911E07282F97
:101BA00030E0322F222780911F07820F932F911D43
:101BB00020912507422F50E0542F442720912607DB
:101BC000240F352F311D40910E07442389F097FDD6
:101BD0000BC037FD09C0AC01421B530B4A30510505
:101BE000F8F02A393140E1F485E080930507CCCF45
:101BF00097FF03C04C2F8FEF9FE737FF03C04C2F99
:101C00002FEF3FE7BC01621B730B6A30710518F0C0
:101C10002A39314011F0442319F025E020930507BB
:101C2000CF9108950F931F93CF93DF93EC01888199
:101C30009981009759F02A813B812617370730F0A8
:101C400081E0DF91CF911F910F9108958B016F5F1C
:101C50007F4F0E94C019009759F0998388831B8396
:101C60000A832C813D81232B59F7FC011082E8CF98
:101C700080E0E7CFEF92FF920F931F93CF93DF9314
:101C8000EC017B018A01BA010E94120E2881398180
:101C9000811114C02115310519F0C9010E943719AD
:101CA000198218821D821C821B821A82CE01DF914A
:101CB000CF911F910F91FF90EF9008951D830C839A
:101CC000B701C9010E94861AF1CF85ED8093BC004F
:101CD0008091EE059091EF05A091F005B091F1058E
:101CE0000796A11DB11D23E0B695A79597958795F9
:101CF0002A95D1F72091BC0024FD03C01092EC0579
:101D000008954091EE055091EF056091F0057091B6
:101D1000F105452B462B472B69F30097A105B1052B
:101D200041F025E32A95F1F700000197A109B109D7
:101D3000E1CF8091ED050C949B031F920F920FB69B
:101D40000F9211242F933F934F935F936F937F9341
:101D50008F939F93AF93BF93EF93FF9386E196E0AA
:101D60000E94F801FF91EF91BF91AF919F918F91E8
:101D70007F916F915F914F913F912F910F900FBE87
:101D80000F901F9018951F920F920FB60F9211246B
:101D90002F938F939F93EF93FF93E0912606F091FB
:101DA00027068081E0912C06F0912D0682FD1BC054
:101DB000908180912F068F5F8F732091300682175C
:101DC00041F0E0912F06F0E0EA5EF94F958F8093A5
:101DD0002F06FF91EF919F918F912F910F900FBE42
:101DE0000F901F9018958081F4CF1F920F920FB61D
:101DF0000F9211242F933F938F939F93AF93BF9391
:101E000080918B0590918C05A0918D05B0918E05E8
:101E100030918A0523E0230F2D3758F50196A11D37
:101E2000B11D20938A0580938B0590938C05A09318
:101E30008D05B0938E0580918F0590919005A091AE
:101E40009105B09192050196A11DB11D80938F055A
:101E500090939005A0939105B0939205BF91AF9197
:101E60009F918F913F912F910F900FBE0F901F90D8
:101E7000189526E8230F0296A11DB11DD2CF1F92FF
:101E80000F920FB60F9211242F933F934F935F93AE
:101E90006F937F938F939F93AF93BF93EF93FF9332
:101EA0008091B900887F803609F44AC0F0F5883205
:101EB00009F4A5C018F5803109F499C0B8F4882355
:101EC00009F4F5C0883009F492C0FF91EF91BF91F9
:101ED000AF919F918F917F916F915F914F913F91C2
:101EE0002F910F900FBE0F901F901895883109F415
:101EF00086C0803251F78093EA0514C0803409F41B
:101F00009BC040F48033B9F38833F9F68093EA0537
:101F100085ECAEC0803509F483C0883509F494C0DF
:101F2000883499F60E94650ED0CF883909F48AC0AA
:101F300038F5883729F050F4883611F0803729F6C3
:101F400083E08093EC051092890555C0883809F428
:101F500079C0803919F0803809F0B7CF80918905B0
:101F6000803208F06FC0E091890581E08E0F809388
:101F700089058091BB00F0E0E759FA4F80833BC0B0
:101F8000803B39F0D0F4803A09F477C0883A09F000
:101F90009CCF84E08093EC05109268051092670551
:101FA000F0E0E0E009958091670581110FC081E0C4
:101FB000809367051092470509C0803C09F4A8CFBB
:101FC000883C09F4A5CF883B09F07FCFE0916805F4
:101FD00081E08E0F80936805F0E0E95BFA4F808125
:101FE0008093BB00909168058091670529C080911E
:101FF000C7058093BB0085EC8093BC0066CF9091B1
:10200000E9058091E805981758F5E091E90581E028
:102010008E0F8093E905F0E0E853FA4F8081E9CF15
:10202000E091E90581E08E0F8093E9058091BB0086
:10203000F0E0E853FA4F80839091E9058091E8053C
:102040009817C8F285E8D8CFE091E90581E08E0FB6
:102050008093E9058091BB00F0E0E853FA4F80835C
:102060008091EB0581115ECF81E08093C60584EA03
:102070008093BC001092EC0528CF85EC8093BC00C7
:102080001092EC0580918905803230F4E091890549
:10209000F0E0E759FA4F10826091890570E089E617
:1020A00095E0F0E0E0E00995109289050ECF1092DE
:1020B000EA0538CF1F920F920FB60F9211242F937B
:1020C0003F934F935F936F937F938F939F93AF93C0
:1020D000BF93EF93FF93E0910101F0910201099505
:1020E000FF91EF91BF91AF919F918F917F916F91F0
:1020F0005F914F913F912F910F900FBE0F901F90C6
:1021000018951F920F920FB60F9211242F933F93A1
:102110004F935F936F937F938F939F93AF93BF93EF
:10212000EF93FF93E0919505F0919605309749F074
:10213000A685B7858585968D91FF14C09C918923CE
:10214000A1F4FF91EF91BF91AF919F918F917F91FA
:102150006F915F914F913F912F910F900FBE0F9014
:102160001F9018959C91892361F7A389B4899C914C
:102170008589809589238C93868997890197F1F7C2
:10218000608D718DA685B785558538E020E0CB013F
:102190000197F1F7822F90E095958795282F4C9124
:1021A000452309F02068315091F7868D81FD2095F7
:1021B0008091940590E001968F7399273091930553
:1021C000381799F0A0919405B0E0AC5FBA4F2C930A
:1021D00080939405828D938D0197F1F7A389B4893B
:1021E0008C919589892B8C93ACCF868D8160868F5D
:1021F000F1CF109219061092180688EE93E0A0E035
:10220000B0E080931A0690931B06A0931C06B0932F
:102210001D062FE431E0309317062093160625ECB7
:1022200030E0309323062093220624EC30E03093F4
:1022300025062093240620EC30E0309327062093D7
:10224000260621EC30E0309329062093280622EC64
:1022500030E030932B0620932A0626EC30E03093B2
:102260002D0620932C0610922F0610923006109205
:102270003106109232061092B4061092B3061092F4
:10228000B7061092B80620911201309113014091C7
:1022900014012093B9063093BA064093BB061092FE
:1022A000C2061092C3061092C4061092C60610927F
:1022B000C5061092C7061092C8061092C906109261
:1022C000CB061092CA061092CD061092CC06109240
:1022D000CF061092CE061092D0061092D106109220
:1022E000D2061092D3061092D4061092D506109200
:1022F000D6061092D7061092D8061092D9061092E0
:10230000DB061092DA061092DD061092DC061092BF
:10231000DF061092DE061092E0061092E10610929F
:10232000E3061092E2061092E5061092E40610927F
:10233000E6061092E7061092E8061092E90610925F
:10234000EA061092EB061092EC061092ED0610923F
:10235000EE061092EF0628EB3BE03093F106209357
:10236000F0064FE04093F2063093F4062093F30614
:102370001092F5061092F7061092F6061092F906E2
:102380001092F8061092FA061092FB061092FC06C4
:102390001092FD061092FE061092FF0610920007A2
:1023A000109201071092020761E0609303076093A7
:1023B00004071092410710924007809342079093C0
:1023C0004307A0934407B093450781E691E09093BB
:1023D0003F0780933E0710925507109254071092C2
:1023E00057071092560710925907109258071092EB
:1023F0005B0710925A0780915C078E7F8D7F8093D8
:102400005C0786958170682785E00E94D90261E0AB
:1024100085E00E940703E3EBF0E0E491E0934E07D0
:10242000EFE9F0E0E491F0E0EE0FFF1FE057FF4F1F
:10243000859194919093500780934F0760E086E0D8
:102440000E94070380915C0781FD04C061E086E083
:102450000E94D90286E080934A07E4EBF0E0E49121
:10246000E0934B07E0EAF0E0E491F0E0EE0FFF1FAD
:10247000EA57FF4F8591949190934D0780934C07B5
:1024800010920C0710920D0781E080930E071092B6
:102490000F07809310070895CF93DF93CDB7DEB772
:1024A00067970FB6F894DEBF0FBECDBF789484B5A2
:1024B000826084BD84B5816084BD85B5826085BD40
:1024C00085B5816085BD80916E00816080936E00CE
:1024D00010928100809181008260809381008091C0
:1024E0008100816080938100809180008160809371
:1024F00080008091B10084608093B1008091B00031
:1025000081608093B00080917A00846080937A002B
:1025100080917A00826080937A0080917A00816055
:1025200080937A0080917A00806880937A0010927C
:10253000C10010E1109381001092800082E19AE7BF
:10254000909387008093860084E18093810061E00E
:102550008DE00E94070361E08CE00E94070361E0C8
:102560008BE00E94070361E08AE00E94070361E0BC
:102570008DE00E94D90261E08CE00E94D90261E006
:102580008BE00E94D90261E08AE00E94D90261E0FA
:1025900084E00E94070361E087E00E94070361E096
:1025A00088E00E9407036FEF80E00E946F0661E001
:1025B00083E00E94070361E083E00E94D90289E979
:1025C00095E09093B6068093B50680E49FE19093E2
:1025D00087008093860081E1809381008CE997E0F9
:1025E000909302018093010181E080936F00E0915C
:1025F0002606F091270682E08083E0912206F09182
:1026000023061082E0912406F09125061083109293
:102610002E06E0912A06F0912B0686E08083E09159
:102620002806F0912906808180618083E091280648
:10263000F0912906808188608083E0912806F091DE
:102640002906808180688083E0912806F091290620
:1026500080818F7D80838CEE91E00E94EA0A109247
:102660005907109258071092570710925607109268
:102670005507109254078DE991E090935B07809382
:102680005A0790914A07963108F047C02DEB30E089
:1026900030935507209354072BE931E030935707C7
:1026A000209356072CE231E03093590720935807C6
:1026B0002091680084E0983048F031E09E3008F4C2
:1026C00030E081E001C0880F3A95EAF7822B8093D1
:1026D00068002DE630E0983050F02BE630E09E3078
:1026E00030F02CE630E0963110F030E020E030930E
:1026F000520720935107292F30E0983008F034C159
:1027000081E001C0880F9A95EAF780935307809182
:102710005A0790915B070197F1F7809158079091C4
:102720005907892B49F1E0919505F091960527E02D
:10273000EE33F20709F1309739F0A389B4899C91FF
:102740008589809589238C9380915C078E7F809307
:102750005C0710929405109293058EE397E0909396
:10276000960580939505E0915107F091520780817D
:1027700090915307892B80838EE397E090930B070A
:1027800080930A070E948F036B017C0170E060E078
:1027900084E090E00E94030D81E197E00E94970B96
:1027A0008AE197E00E94370C813009F4EAC00E9468
:1027B0008F036C197D098E099F09643F7140810563
:1027C000910570F38BE092E00E94EA0A8091050780
:1027D000813021F08EEA92E00E94EA0A68EE73E00E
:1027E00080E090E00E945D0390E080E00E94F91795
:1027F00080939A050E94FF0B6CED75E080E090E0FD
:102800000E945D0381E080930C0770E060E081E04E
:1028100090E00E945D0D8FED92E00E94F80A70E05A
:1028200060E082E090E00E945D0D809105078130BC
:1028300029F480913C07882309F4D4C08CEF92E0FE
:102840000E94EA0A64E670E080E090E00E945D0386
:102850008E010F5F1F4F0E94A80D209197053091A8
:102860009805892B09F0CEC02530310508F0CAC083
:102870001B8A1A8A1D8A1C8A1F8A1E8A4AE0B8018E
:10288000C9010E946E17F80101900020E9F7319705
:10289000AF01401B510BB801CE0142960E943A0E87
:1028A0001A8219821C821B821E821D8245E350E01F
:1028B0006AE073E0C8010E943A0EEE88FF88CA8879
:1028C000DB88C114D10409F490C0E114F104B1F023
:1028D0008D819E81E80EF91EB701C8010E94120E7B
:1028E000882309F482C029813A818D819E81B601B5
:1028F000820F931F0E94861AFE82ED824D815E81B7
:1029000069817A8186E196E00E947A018FE691E002
:102910000E94780A89819A81009711F00E943719E4
:102920008A899B89009711F00E94371981E791E00D
:102930000E948D0064E170E080E090E00E945D0301
:1029400080E493E00E948D0064EC79E080E090E008
:102950000E945D0380919705909198050196909350
:1029600098058093970577CF9E3040F42850310921
:1029700081E001C0880F2A95EAF7C7CE2E503109B1
:10298000F7CF70E060E08CE090E00E94030D81E101
:1029900097E00E94970B0E948F036B017C0185E3F7
:1029A00097E00E94370C813071F00E948F036C1900
:1029B0007D098E099F09643F71408105910578F377
:1029C0008DE392E001CFECE1F7E080E297E0319116
:1029D000228D321719F08FE692E0F6CE8E179F0700
:1029E000B1F7F4CE84E093E02BCF89819A810097F0
:1029F00011F00E9437191A8219821E821D821C82D0
:102A00001B827CCF25303105A9F460ED77E080E0B2
:102A100090E00E945D0384E493E00E94EA0A88E16A
:102A20009AE00FB6F894A895809360000FBE90933B
:102A30006000FFCF8DE493E00E94EA0A81E791E015
:102A40000E948D006AE070E080E090E00E945D03EB
:102A500087E693E00E948D008CE693E00E94EA0AEC
:102A600060EA7FE080E090E00E945D038AE793E007
:102A70000E94F80A02E110E084E893E00E948D00D1
:102A800068EE73E080E090E00E945D03C8010E9460
:102A90000701C8010E94E70B68EE73E080E090E058
:102AA0000E945D03025011090E3F8FEF180721F7B6
:102AB00089E893E00E94EA0A8CE993E00E948D0085
:102AC00068E873E180E090E00E945D0390E0E92E09
:102AD00090E0F92E332433940AE411E0CC24C3941B
:102AE000D12C0E94A80D9093A5058093A405009772
:102AF000B1F48DEF92E00E94EA0A81E791E00E9432
:102B00008D006AE070E080E090E00E945D0381EA61
:102B100093E00E948D008091A4059091A50590936B
:102B2000A5058093A405181619060CF03AC186EA8B
:102B300093E00E94F80A8091A4059091A5050E9457
:102B4000E70B81E791E00E948D006AE070E080E091
:102B500090E00E945D038091A4059091A5050E94DC
:102B600007018091EA069091EB064091A4055091EF
:102B7000A5052091A2053091A305421753070CF437
:102B80001BC13092D8061092D9061093DB06009331
:102B9000DA061092DD061092DC061093DF06009331
:102BA000DE063092E0063092E106D092E306C09253
:102BB000E2061092E5061092E4061092D8068F60A5
:102BC0008093EA069F609093EB060E948F032B018F
:102BD0003C018FE00E94B002892B09F013C1809163
:102BE000A105882309F4FDC080919D0590919E0563
:102BF000A0919F05B091A00588579C4EAF4FBF4F45
:102C000084159505A605B70508F07BC010929C05B4
:102C100081E791E00E948D0064E670E080E090E042
:102C20000E945D038DEB93E00E94EA0A8CE0882EFF
:102C3000912CA12CB12C87EF93E00E948D0068EEBF
:102C400073E080E090E00E945D034AE0C501B401BA
:102C50000E94850A8EE393E00E94F80A0E94A80D64
:102C60009093A5058093A40586EA93E00E94F80A54
:102C70008091A4059091A5050E94E70BC4010E94D4
:102C8000070168EE73E080E090E00E945D0381E15F
:102C90000E94B002892B09F096C062E370E080E0E8
:102CA00090E00E945D0381E10E94B002892B09F04F
:102CB0008AC030929C0580919C05811120C064E6F9
:102CC00070E080E090E00E945D038CEF93E00E9452
:102CD000F80A70E060E086E090E00E945D0D85E01B
:102CE00093E00E94EA0A85E093E00E948D0060EA8A
:102CF0007FE080E090E00E945D031092A1051092B9
:102D00009C0580E10E94B002892B09F0C8C0809127
:102D10009B05882309F4B4C080919D0590919E0580
:102D2000A0919F05B091A00588579C4EAF4FBF4F13
:102D300084159505A605B70508F087C08AE694E0D6
:102D40000E94EA0A0E94FF0B81E10E94B0020197F3
:102D500009F05EC06AE070E080E090E00E945D03F0
:102D600080E10E94B002892B79F762E370E080E095
:102D700090E00E945D0380E10E94B002892B21F760
:102D800080919A058F5F883008F03FC080939A0544
:102D90000E94FF0B68EC70E080E090E00E945D0311
:102DA000D3CF81EB93E00E94EA0A6AE070E080E012
:102DB00090E00E945D03D5CE907F9093EB06807FDC
:102DC0008093EA0602CF22E0821A9108A108B10896
:102DD0008EEF88168FEF9806A806B80609F02BCF5D
:102DE0006ACF0E948F0360939D0570939E05809328
:102DF0009F059093A0053092A10589E294E00E947E
:102E0000EA0A7FCF1092A1057CCF10929A05C0CF1D
:102E100062E370E080E090E00E945D0381E10E9447
:102E2000B002892B41F560919A0590E080E00E9404
:102E3000011810929B0587E794E00E94F80A8091A0
:102E4000A2059091A3050E94E70B8EEE94E00E94EC
:102E5000EA0A60ED77E080E090E00E945D03E11413
:102E6000F10409F43ECE0E94E401882309F439CE2E
:102E70000E94000036CE88E894E00E94EA0AE5CF7E
:102E80000E948F0360939D0570939E0580939F051C
:102E90009093A00530929B0580EA94E0EECF1092CB
:102EA0009B05D3CF81E691E090933F0780933E0747
:102EB00080919505909196058E53974071F4E0911D
:102EC0005107F09152079081809153078095892393
:102ED000808310929605109295050895BB27FB01FB
:102EE0005527AA27880F991FAA1FA41710F0A41B03
:102EF00083955051B9F7A05DAA3308F0A95DA1935D
:102F0000009779F7B111B1931192CB010C94881706
:102F1000DC01FC01672F71917723E1F7329704C040
:102F20007C916D9370836291AE17BF07C8F30895CB
:102F3000E89409C097FB3EF4909580957095619553
:102F40007F4F8F4F9F4F9923A9F0F92F96E9BB2709
:102F50009395F695879577956795B795F111F8CF85
:102F6000FAF4BB0F11F460FF1BC06F5F7F4F8F4FF0
:102F70009F4F16C0882311F096E911C0772321F0E6
:102F80009EE8872F762F05C0662371F096E8862F7E
:102F900070E060E02AF09A95660F771F881FDAF7D5
:102FA000880F9695879597F90895990F0008550F02
:102FB000AA0BE0E8FEEF16161706E807F907C0F0BF
:102FC00012161306E407F50798F0621B730B840BC7
:102FD000950B39F40A2661F0232B242B252B21F4A1
:102FE00008950A2609F4A140A6958FEF811D811D41
:102FF0000895F999FECF92BD81BDF89A992780B5C1
:103000000895262FF999FECF1FBA92BD81BD20BD2C
:103010000FB6F894FA9AF99A0FBE019608952F9276
:103020003F924F925F926F927F928F929F92AF9258
:10303000BF92CF92DF92EF92FF920F931F93CF93A5
:10304000DF93CDB7DEB7CA1BDB0B0FB6F894DEBF3C
:103050000FBECDBF09942A88398848885F846E8462
:103060007D848C849B84AA84B984C884DF80EE80AC
:10307000FD800C811B81AA81B981CE0FD11D0FB6B5
:10308000F894DEBF0FBECDBFED0108950E94D517A5
:1030900008F48FEF089597FB072E16F4009407D0DD
:1030A00077FD09D00E94811807FC05D03EF4909569
:1030B00081959F4F0895709561957F4F0895A1E286
:1030C0001A2EAA1BBB1BFD010DC0AA1FBB1FEE1FA2
:1030D000FF1FA217B307E407F50720F0A21BB30BED
:1030E000E40BF50B661F771F881F991F1A9469F769
:1030F00060957095809590959B01AC01BD01CF01C5
:103100000895AA1BBB1B51E107C0AA1FBB1FA6172E
:10311000B70710F0A61BB70B881F991F5A95A9F780
:1031200080959095BC01CD010895EE0FFF1F05908D
:10313000F491E02D09940F931F93CF93DF93823086
:10314000910510F482E090E0E0915F07F091600754
:1031500030E020E0B0E0A0E0309799F4211531058F
:1031600009F44AC0281B390B24303105D8F58A816F
:103170009B816115710589F1FB0193838283FE01B7
:1031800011C0408151810281138148175907E0F035
:103190004817590799F4109761F012960C931297FB
:1031A00013961C933296CF01DF91CF911F910F910F
:1031B000089500935F0710936007F4CF2115310540
:1031C00051F04217530738F0A901DB019A01BD0104
:1031D000DF01F801C1CFEF01F9CF90936007809331
:1031E0005F07CDCFFE01E20FF31F81939193225031
:1031F000310939832883D7CF20915D0730915E074D
:10320000232B41F42091090130910A0130935E078C
:1032100020935D07209107013091080121153105A8
:1032200041F42DB73EB740910B0150910C01241B86
:10323000350BE0915D07F0915E07E217F307A0F40C
:103240002E1B3F0B2817390778F0AC014E5F5F4FFC
:103250002417350748F04E0F5F1F50935E074093C9
:103260005D07819391939FCFF0E0E0E09CCFCF93F7
:10327000DF930097E9F0FC01329713821282A0914C
:103280005F07B0916007ED0130E020E01097A1F4F6
:1032900020813181820F931F20915D0730915E075D
:1032A0002817390709F061C0F0935E07E0935D07C6
:1032B000DF91CF910895EA01CE17DF07E8F54A8143
:1032C0005B819E0141155105B1F7E901FB83EA835A
:1032D00049915991C40FD51FEC17FD0761F4808106
:1032E00091810296840F951FE901998388838281D9
:1032F00093819B838A83F0E0E0E012968D919C910C
:1033000013970097B9F52D913C911197CD01029635
:10331000820F931F20915D0730915E0728173907B0
:1033200039F6309751F51092600710925F07B0930D
:103330005E07A0935D07BCCFD383C28340815181D8
:10334000840F951FC817D90761F44E5F5F4F8881BE
:103350009981480F591F518340838A819B819383B0
:1033600082832115310509F0B0CFF0936007E09317
:103370005F079ECFFD01DC01C0CF13821282D7CF41
:10338000B0E0A0E0E6ECF9E10C9411188C01009794
:1033900051F4CB010E949B188C01C801CDB7DEB758
:1033A000E0E10C942D18FC01E60FF71F9C01225060
:1033B0003109E217F30708F49DC0D901CD91DC91E2
:1033C0001197C617D70798F0C530D10530F3CE0155
:1033D00004978617970708F3C61BD70B2297C1934C
:1033E000D1936D937C93CF010E943719D6CF5B01A7
:1033F000AC1ABD0A4C018C0E9D1EA0915F07B091C6
:103400006007512C412CF12CE12C109731F5809163
:103410005D0790915E078815990509F05CC0461616
:10342000570608F058C08091070190910801009755
:1034300041F48DB79EB740910B0150910C01841B54
:10344000950BE817F90708F055C0F0935E07E09375
:103450005D07F90171836083A0CF8D919C911197D5
:1034600012966C90129713967C901397A815B90535
:1034700059F56C0142E0C40ED11CCA14DB0420F1E2
:10348000AC014A195B09DA011296159780F0628245
:10349000738251834083D9016D937C93E114F104CD
:1034A00071F0D7011396FC93EE93129776CF229684
:1034B0008C0F9D1FF90191838083F301EFCFF0936F
:1034C0006007E0935F0769CF4816590608F42C019E
:1034D0007D01D3019ACFCB010E949B187C010097FC
:1034E00049F0AE01B8010E947D1AC8010E94371947
:1034F000870153CF10E000E050CFFB01DC0102C098
:1035000001900D9241505040D8F70895FB01DC0125
:1035100001900D920020E1F7089510E0C2E6D0E09E
:1035200004C0FE010E9495182196C336D107C9F741
:04353000F894FFCF3D
:1035340004EB06FFFFFFFF0000610780002020204E
:1035440020000F1011F1F2F4F878797D84858687D4
:1035540088999B9CA0A2A38883A7A1868E908BCFD9
:10356400F1B6C7B6ABA38C98AF9287E3B6B6B69163
:10357400B6C0F9A4B0999282F88090000000001AB5
:10358400027A01A7016702D801B601CA010000004E
:103594000004077A019907C90560077807EC060D4E
:1035A4000A005265636965766564203E3E200044E6
:1035B40045433A20003078004552524F5220436F21
:1035C40064653A200053656E74203C3C200021570A
:1035D40061726E696E673A20436C656172696E67E9
:1035E40020427974653A200042454550206C657646
:1035F400656C3A2000214572726F723A2054696DED
:103604006564206F75742077616974696E672066DC
:103614006F7220726573706F6E736500537461729C
:1036240074204D482D5A3134206F72204D482D5A44
:103634003139206C65637475726500214552524FAF
:10364400523A204661696C656420746F2076657215
:1036540069667920636F6E6E656374696F6E283175
:103664002920746F2073656E736F722E002145528A
:10367400524F523A204661696C656420746F20761B
:10368400657269667920636F6E6E656374696F6EC7
:1036940028322920746F2073656E736F722E002197
:1036A4004552524F523A204C6173742072657370C4
:1036B4006F6E7365206973206E6F7420617320656B
:1036C400787065637465642C2076657269666963D5
:1036D4006174696F6E206661696C65642E002145B2
:1036E40052524F523A20496E697469616C20636F7B
:1036F4006D6D756E69636174696F6E206572726F4A
:1037040072436F6465207265636965766564004D14
:10371400485A31392053746F70204175746F636156
:103724006C6962726174696F6E3A20002066616927
:103734006C65640020646F6E650041697220736576
:103744006E736F72206E6F74206465746563746544
:10375400642E20506C6561736520636865636B201B
:10376400776972696E672E2E2E2054727923200099
:103774006261640052455345542E2E2E00416972F5
:103784002073656E736F7220646574656374656419
:10379400204D485A313900676F6F64004D485A31E3
:1037A400392072656164204F4B0050726568656111
:1037B400743A200048454154005374617274206D7A
:1037C4006561737572656D656E747300434F322D58
:1037D400006661696C00434F322870706D293A208D
:1037E400004552524F5220434F323D3000537461D2
:1037F40072742063616C6962726174696F6E2070A7
:10380400726F636573733A203132303020736563AD
:103814006F6E6473206F66203430302070706D20BA
:10382400737461626C650043414C2D00526573658D
:103834007474696E6720666F726365642063616C7B
:103844006962726174696F6E20666163746F72205D
:10385400746F203430303A2000427574746F6E20D7
:1038640043414C494220686173206265656E207053
:103874007265737365642C20686F6C6420357320E3
:103884006D6F726520746F2073746172742063614C
:103894006C6962726174696F6E00526F7574696EDF
:1038A400652042454550004E65772042656570208D
:1038B40056616C75653A20006E6F206368616E67AF
:1038C4006520696E20424545502076616C7565001F
:1038D400427574746F6E20424545502068617320B0
:1038E4006265656E20707265737365642C20686F01
:1038F4006C64203573206D6F726520746F2073744F
:103904006172742042454550206C6576656C206375
:1039140068616E676520726F7574696E65005761C2
:103924006974696E6720666F72206E6577206461C2
:0439340074610000BA
:00000001FF
