:100000000C9463040C948B040C948B040C94B41225
:100010000C94B4120C94B4120C948B040C948B04B6
:100020000C948B040C948B040C948B040C948B0414
:100030000C948B040C948D120C948B040C948B04F4
:100040000C9428110C948B040C94F6100C94D01082
:100050000C948B040C948B040C948B040C948B04E4
:100060000C9472110C948B040000C1C081C140013A
:1000700001C3C003800241C201C6C006800741C758
:100080000005C1C581C4400401CCC00C800D41CD28
:10009000000FC1CF81CE400E000AC1CA81CB400BF8
:1000A00001C9C009800841C801D8C018801941D9C8
:1000B000001BC1DB81DA401A001EC1DE81DF401F58
:1000C00001DDC01D801C41DC0014C1D481D5401568
:1000D00001D7C017801641D601D2C012801341D378
:1000E0000011C1D181D0401001F0C030803141F108
:1000F0000033C1F381F240320036C1F681F7403758
:1001000001F5C035803441F4003CC1FC81FD403D27
:1001100001FFC03F803E41FE01FAC03A803B41FBF7
:100120000039C1F981F840380028C1E881E9402947
:1001300001EBC02B802A41EA01EEC02E802F41EF57
:10014000002DC1ED81EC402C01E4C024802541E567
:100150000027C1E781E640260022C1E281E3402377
:1001600001E1C021802041E001A0C060806141A187
:100170000063C1A381A240620066C1A681A7406757
:1001800001A5C065806441A4006CC1AC81AD406D27
:1001900001AFC06F806E41AE01AAC06A806B41ABF7
:1001A0000069C1A981A840680078C1B881B94079C7
:1001B00001BBC07B807A41BA01BEC07E807F41BF57
:1001C000007DC1BD81BC407C01B4C074807541B567
:1001D0000077C1B781B640760072C1B281B3407377
:1001E00001B1C071807041B00050C1908191405107
:1001F0000193C053805241920196C0568057419757
:100200000055C19581944054019CC05C805D419D26
:10021000005FC19F819E405E005AC19A819B405BF6
:100220000199C059805841980188C0488049418946
:10023000004BC18B818A404A004EC18E818F404F56
:10024000018DC04D804C418C0044C1848185404566
:100250000187C047804641860182C0428043418376
:100260000041C1818180404000000190016000F0A8
:1002700002C0035003A0023007C0065006A007309A
:1002800005000490046005F00DC00C500CA00D306A
:100290000F000E900E600FF00A000B900B600AF03A
:1002A00008C0095009A0083019C0185018A019300A
:1002B0001B001A901A601BF01E001F901F601EF09A
:1002C0001CC01D501DA01C3014001590156014F0AA
:1002D00016C0175017A0163013C0125012A01330BA
:1002E00011001090106011F031C0305030A031304A
:1002F00033003290326033F036003790376036F09A
:1003000034C0355035A034303C003D903D603CF069
:100310003EC03F503FA03E303BC03A503AA03B3039
:1003200039003890386039F028002990296028F089
:100330002AC02B502BA02A302FC02E502EA02F3099
:100340002D002C902C602DF025C0245024A02530A9
:1003500027002690266027F022002390236022F0B9
:1003600020C0215021A0203061C0605060A06130C9
:1003700063006290626063F066006790676066F099
:1003800064C0655065A064306C006D906D606CF069
:100390006EC06F506FA06E306BC06A506AA06B3039
:1003A00069006890686069F078007990796078F009
:1003B0007AC07B507BA07A307FC07E507EA07F3099
:1003C0007D007C907C607DF075C0745074A07530A9
:1003D00077007690766077F072007390736072F0B9
:1003E00070C0715071A0703050005190516050F049
:1003F00052C0535053A0523057C0565056A0573099
:1004000055005490546055F05DC05C505CA05D3068
:100410005F005E905E605FF05A005B905B605AF038
:1004200058C0595059A0583049C0485048A0493088
:100430004B004A904A604BF04E004F904F604EF098
:100440004CC04D504DA04C3044004590456044F0A8
:1004500046C0475047A0463043C0425042A04330B8
:1004600041004090406041F0000051C0A1C0F00048
:1004700041C11001E001B1C181C2D002200271C2AC
:10048000C00391C361C3300301C55005A005F1C588
:10049000400411C4E1C4B0048007D1C721C770076C
:1004A000C1C69006600631C601CA500AA00AF1CA48
:1004B000400B11CBE1CBB00B8008D1C821C870082C
:1004C000C1C99009600931C9000F51CFA1CFF00F08
:1004D00041CE100EE00EB1CE81CDD00D200D71CDEC
:1004E000C00C91CC61CC300C01D45014A014F1D4C8
:1004F000401511D5E1D5B0158016D1D621D670168C
:10050000C1D79017601731D7001151D1A1D1F01187
:1005100041D01010E010B1D081D3D013201371D38B
:10052000C01291D261D23012001E51DEA1DEF01E47
:1005300041DF101FE01FB1DF81DCD01C201C71DC0B
:10054000C01D91DD61DD301D01DB501BA01BF1DB07
:10055000401A11DAE1DAB01A8019D1D921D970190B
:10056000C1D89018601831D801E85028A028F1E8C7
:10057000402911E9E1E9B029802AD1EA21EA702A6B
:10058000C1EB902B602B31EB002D51EDA1EDF02D47
:1005900041EC102CE02CB1EC81EFD02F202F71EF2B
:1005A000C02E91EE61EE302E002251E2A1E2F02247
:1005B00041E31023E023B1E381E0D020202071E06B
:1005C000C02191E161E1302101E75027A027F1E747
:1005D000402611E6E1E6B0268025D1E521E570252B
:1005E000C1E49024602431E4003C51FCA1FCF03CC7
:1005F00041FD103DE03DB1FD81FED03E203E71FE4B
:10060000C03F91FF61FF303F01F95039A039F1F946
:10061000403811F8E1F8B038803BD1FB21FB703B4A
:10062000C1FA903A603A31FA01F65036A036F1F646
:10063000403711F7E1F7B0378034D1F421F470344A
:10064000C1F59035603531F5003351F3A1F3F03346
:1006500041F21032E032B1F281F1D031203171F14A
:10066000C03091F061F03030000001FC01B800446E
:10067000013000CC008801740260039C03D802247E
:10068000035002AC02E8031404C0053C057804845E
:1006900005F0040C044805B406A0075C071806E43E
:1006A0000790066C062807D40BC00A3C0A780B8416
:1006B0000AF00B0C0B480AB409A0085C081809E4FE
:1006C0000890096C092808D40F000EFC0EB80F44DE
:1006D0000E300FCC0F880E740D600C9C0CD80D24BE
:1006E0000C500DAC0DE80C1415C0143C1478158496
:1006F00014F0150C154814B417A0165C161817E45E
:100700001690176C172816D4110010FC10B811445D
:10071000103011CC118810741360129C12D813245D
:10072000125013AC13E812141E001FFC1FB81E4415
:100730001F301ECC1E881F741C601D9C1DD81C24DD
:100740001D501CAC1CE81D141AC01B3C1B781A84DD
:100750001BF01A0C1A481BB418A0195C191818E4DD
:100760001990186C182819D429C0283C2878298495
:1007700028F0290C294828B42BA02A5C2A182BE43D
:100780002A902B6C2B282AD42D002CFC2CB82D441D
:100790002C302DCC2D882C742F602E9C2ED82F24FD
:1007A0002E502FAC2FE82E14220023FC23B8224415
:1007B000233022CC228823742060219C21D820243D
:1007C000215020AC20E8211426C0273C277826841D
:1007D00027F0260C264827B424A0255C251824E4FD
:1007E0002590246C242825D43C003DFC3DB83C4495
:1007F0003D303CCC3C883D743E603F9C3FD83E241D
:100800003F503EAC3EE83F1438C0393C397838841C
:1008100039F0380C384839B43AA03B5C3B183AE41C
:100820003B903A6C3A283BD437C0363C3678378414
:1008300036F0370C374836B435A0345C341835E41C
:100840003490356C352834D4330032FC32B833441C
:10085000323033CC338832743160309C30D831241C
:10086000305031AC31E83014000000002400270083
:100870002A00000000080002010000030407000035
:1008800000000000000000000000230026002900F6
:1008900000000000250028002B00040404040404C8
:1008A000040402020202020203030303030301021F
:1008B00004081020408001020408102001020408EE
:1008C00010202C13431911241FBECFEFD8E0DEBF38
:1008D000CDBF26E0AAE3B4E001C01D92A538B2075F
:1008E000E1F714E0A0E0B1E0EAE5F9E302C0059029
:1008F0000D92AA33B107D9F714E0C2E6D4E004C0E0
:100900002197FE010E94A81AC136D107C9F70E949B
:1009100074140C94A01C0C940000CF93DF9300D0AF
:1009200000D0CDB7DEB719821A821B821C82DC018F
:1009300090E04FE7ED91E1110CC0E1E0F0E0EC0F49
:10094000FD1FE90FF11D8FEF943028F481939F5F15
:10095000FBCF943098F08981809303018A81809342
:1009600004018B81809305018C81809306010F9097
:100970000F900F900F90DF91CF910895EE3299F480
:10098000992371F0292F2150330BF90161E070E0B8
:100990006C0F7D1FE60FF71F80818F778083CACF92
:1009A000498391E0C7CF292F30E080ED8E0F8A3048
:1009B00070F4F0E0E55DFE4F8081E1E0F0E0EC0FE7
:1009C000FD1F2E0F3F1FF90180839F5FB3CF8FE97B
:1009D0008E0F8A3120F4F0E0E052FF4FEDCF8FEB25
:1009E0008E0F8A3120F4F0E0E050FF4FE5CF8FEB1F
:1009F000ED3219F32CF48FEFE032F9F286EBDDCF14
:100A00008FE7EE32D1F287EFEF35B9F2F7CFEF9201
:100A1000FF920F931F93CF93DF9300D000D01F92CC
:100A2000CDB7DEB725E0EDE0F1E0DE0111960190F3
:100A30000D922A95E1F79C0129513C4F273F3A42FC
:100A400090F085E48C83CE0101960E948D040F9076
:100A50000F900F900F900F90DF91CF911F910F91FA
:100A6000FF90EF900895009711F480E3EBCF20E022
:100A700097FF04C091958195910921E0E3E03AE068
:100A8000E32EF12C01E010E00C0F1D1F0E0F111DC5
:100A9000B7010E945E1A805DD8018C93CB01E150B2
:100AA000009781F7222379F281E090E08C0F9D1F5F
:100AB0008E0F911DFC018DE28083C5CF90911F06A2
:100AC000963009F0B0F4E0912006F0E0E05FF94FD5
:100AD000818780911F068F5F80931F06809120067B
:100AE0008F5F8093200680912006863010F0109250
:100AF00020060895AF92BF92CF92DF92EF92FF92BD
:100B00000F931F93CF93DF936C017B018B01040F35
:100B1000151FEB015E01AE18BF08C017D10759F0D1
:100B20006991D601ED91FC910190F081E02DC60113
:100B30000995892B79F7C501DF91CF911F910F910D
:100B4000FF90EF90DF90CF90BF90AF900895FC01A1
:100B5000538D448D252F30E0842F90E0821B930B22
:100B6000541710F0CF96089501970895FC01918DC8
:100B7000828D981761F0A28DAE0FBF2FB11D5D96CB
:100B80008C91928D9F5F9F73928F90E008958FEF6D
:100B90009FEF0895FC01918D828D981731F0828D21
:100BA000E80FF11D858D90E008958FEF9FEF089578
:100BB000FC01918D228D892F90E0805C9F4F821BDC
:100BC00091098F739927089583E795E00E94D805CE
:100BD00021E0892B09F420E0822F089580E090E045
:100BE000892B29F00E94E40581110C9400000895DE
:100BF000FC01A48DA80FB92FB11DA35ABF4F2C9192
:100C0000848D90E001968F739927848FA689B78988
:100C10002C93A089B1898C91837080648C93938D7F
:100C2000848D981306C00288F389E02D80818F7D22
:100C300080830895EF92FF920F931F93CF93DF93DA
:100C4000EC0181E0888F9B8D8C8D98131AC0E88908
:100C5000F989808185FF15C09FB7F894EE89FF89D7
:100C60006083E889F98980818370806480839FBF75
:100C700081E090E0DF91CF911F910F91FF90EF9075
:100C80000895F62E0B8D10E00F5F1F4F0F73112785
:100C9000E02E8C8D8E110CC00FB607FCFACFE889C0
:100CA000F989808185FFF5CFCE010E94F805F1CF4B
:100CB000EB8DEC0FFD2FF11DE35AFF4FF0829FB734
:100CC000F8940B8FEA89FB8980818062CFCFCF9324
:100CD000DF93EC01888D8823B9F0AA89BB89E88964
:100CE000F9898C9185FD03C0808186FD0DC00FB60A
:100CF00007FCF7CF8C9185FFF2CF808185FFEDCF88
:100D0000CE010E94F805E9CFDF91CF91089583309D
:100D100081F028F4813099F08230A9F0089587306D
:100D2000A9F08830C9F08430B1F4809180008F7DC3
:100D300003C0809180008F7780938000089584B5F0
:100D40008F7784BD089584B58F7DFBCF8091B000EF
:100D50008F778093B00008958091B0008F7DF9CF98
:100D6000CF93DF93282F30E0F901EE58F74F8491AD
:100D7000F901E255F74FD491F901E656F74FC491C6
:100D8000CC23A1F081110E948706EC2FF0E0EE0F3A
:100D9000FF1FEA57F74FA591B491EC91ED2381E045
:100DA00090E009F480E0DF91CF91089580E090E039
:100DB000FACF1F93CF93DF93282F30E0F901EE583D
:100DC000F74F8491F901E255F74FD491F901E656B6
:100DD000F74FC491CC23A9F0162F81110E948706EA
:100DE000EC2FF0E0EE0FFF1FE057F74FA591B49105
:100DF0008FB7F894EC91111108C0D095DE23DC93E5
:100E00008FBFDF91CF911F910895DE2BF8CFCF9345
:100E1000DF9390E0FC01E255F74F24918656974FFF
:100E2000FC0184918823D1F090E0880F991FFC0188
:100E3000E859F74FA591B491FC01E057F74FC591E0
:100E4000D49161110EC09FB7F8948C91E22FE09578
:100E50008E238C932881E223E8839FBFDF91CF917B
:100E600008958FB7F894EC91E22BEC938FBFF6CFF7
:100E70003FB7F8948091E4049091E504A091E604D2
:100E8000B091E70426B5A89B05C02F3F19F0019645
:100E9000A11DB11D3FBFBA2FA92F982F8827BC01D4
:100EA000CD01620F711D811D911D42E0660F771FFC
:100EB000881F991F4A95D1F708958F929F92AF92FC
:100EC000BF92CF92DF92EF92FF924B015C010E94A2
:100ED00038076B017C010E9438076C197D098E0967
:100EE0009F09683E734081059105A8F321E0821AAD
:100EF0009108A108B10888EEC80E83E0D81EE11C55
:100F0000F11C81149104A104B10429F7FF90EF9022
:100F1000DF90CF90BF90AF909F908F9008952FB7A4
:100F2000F8946091E0047091E1048091E204909162
:100F3000E3042FBF08951F93CF93DF93C1E0C093C5
:100F40009B04882399F1D091B8001091BA00809148
:100F5000BC008A7B8093BC0060E082E10E94D906DD
:100F600060E083E10E94D90610924105C0934005DC
:100F700010921B0561E082E10E94D90661E083E1E5
:100F80000E94D9068091B9008E7F8093B90080912C
:100F9000B9008D7F8093B90088E48093B80085E420
:100FA0008093BC001093BA00D093B800DF91CF912A
:100FB0001F9108958F929F92AF92BF92CF92DF922E
:100FC000EF92FF920F931F93CF93DF93D0916A0517
:100FD000D13208F0D7C0182FC09169050E94380798
:100FE0006B017C018091410581116BC082E080938F
:100FF0004105109340058FEF80933F0510923E0509
:10100000D0933D05A9E4B5E0EDE1F5E080E0D8132B
:1010100091C010921C0580911C05CC0FC82BC09369
:101020001C0580911B05813009F088C010921B05BA
:101030000E9438076B017C0180911C058093BB00E6
:101040008091430590914405A0914505B0914605D6
:10105000892B8A2B8B2BA1F00E9438070091430526
:101060001091440520914505309146056C197D0984
:101070008E099F09061717072807390708F442C089
:101080008091BC0083FDD8CF85EC8093BC000E948A
:1010900038076B017C0180914105823009F450C012
:1010A00080913F058F3F09F46FC080913F058032EA
:1010B00009F46CC080913F05803309F469C084E075
:1010C00026C08091430590914405A0914505B091BB
:1010D0004605892B8A2B8B2B09F484CF0E94380775
:1010E0008090430590904405A0904505B09046053A
:1010F0006C197D098E099F0986169706A806B90600
:1011000008F070CF809142050E949B0785E0109205
:10111000480510926A0510924705DF91CF911F9103
:101120000F91FF90EF90DF90CF90BF90AF909F9086
:101130008F9008959D9191938F5F69CF85EEA5CF94
:101140008091430590914405A0914505B0914605D5
:10115000892B8A2B8B2B09F49ECF0E943807009194
:1011600043051091440520914505309146056C19C1
:101170007D098E099F09061717072807390708F008
:101180008ACFC0CF81E0C3CF80E0C1CF82E0BFCFA4
:1011900083E0BDCF8F929F92AF92BF92CF92DF92AA
:1011A000EF92FF920F931F93CF93DF93D82FC62F09
:1011B000142F613208F09CC00E9438076B017C013B
:1011C0008091410581116FC081E0809341051093AA
:1011D00040059FEF90933F0510923E059C0F909322
:1011E0003D0580931C0580911C05DD0FD82BD09305
:1011F0001C0580911B05813009F07CC010921B05F5
:101200000E9438076B017C0180911C058093BB0014
:101210008091430590914405A0914505B091460504
:10122000892B8A2B8B2BA1F00E9438070091430554
:101230001091440520914505309146056C197D09B2
:101240008E099F09061717072807390708F44CC0AD
:101250008091BC0083FDD8CF85EC8093BC000E94B8
:1012600038076B017C0180914105813009F444C04D
:1012700080913E058C1710F4C0913E05EDE1F5E03C
:10128000ABEFB4E080E08C1359C08C2FDF91CF918D
:101290001F910F91FF90EF90DF90CF90BF90AF9094
:1012A0009F908F9008958091430590914405A0915F
:1012B0004505B0914605892B8A2B8B2B09F480CFED
:1012C0000E9438078090430590904405A090450502
:1012D000B09046056C197D098E099F098616970600
:1012E000A806B90608F06CCF809142050E949B07C2
:1012F000C0E0CBCF85EEB1CF8091430590914405FE
:10130000A0914505B0914605892B8A2B8B2B09F4BA
:10131000AACF0E94380700914305109144052091FF
:101320004505309146056C197D098E099F09061700
:1013300017072807390708F096CFD6CF91919D93CC
:101340008F5FA1CF2091BC04260F3327331F21329A
:101350003105ECF420914105FC0190E080E024305F
:1013600069F082E00895A091BC042191AC0144563B
:101370005B4FA40FB52FB11D2C930196861798F3E0
:101380008091BC04680F6093BC0480E0089581E004
:1013900008950895E0919A0480919904E81730F433
:1013A000F0E0E550FB4F808190E008958FEF9FEFD4
:1013B000089590919A04809199042FEF3FEF981728
:1013C00048F4E92FF0E0E550FB4F208130E09F5FCB
:1013D00090939A04C90108958091990490919A0478
:1013E000891B990B0895CF92DF92EF92FF920F9392
:1013F0001F93CF93DF937C01CB018A012091470596
:10140000222389F0EB016B01C40ED51ECC15DD053E
:1014100069F06991D701ED91FC910190F081E02D87
:10142000C7010995F3CF642F0E94A209C801DF917B
:10143000CF911F910F91FF90EF90DF90CF90089583
:10144000CF93DF931F92CDB7DEB769832091470515
:101450002223F9F020916A05203258F021E030E093
:10146000FC013383228390E080E00F90DF91CF91E5
:10147000089580914805E82FF0E0E75BFA4F9981E5
:1014800090838F5F8093480580936A0581E090E0A8
:10149000ECCF61E0CE0101960E94A209F7CF813026
:1014A00061F028F0823079F0833099F00895662356
:1014B00011F02D9A08952D980895662311F02C9A15
:1014C00008952C980895662311F02B9A08952B986F
:1014D0000895662311F02A9A08952A9808955C9831
:1014E00027E030E070E0AB01022E02C05595479531
:1014F0000A94E2F740FF1FC0289A5F9A5F98215034
:10150000310988F727E030E0E82FF0E0E35EFE4F96
:10151000808190E0AC01022E02C0559547950A9457
:10152000E2F740FF0AC0289A5F9A5F98215031097C
:1015300088F75C9A08952898E0CF2898F5CFCF9344
:10154000DF93362FBA01DC0112968D919C9141E018
:1015500040934705309369051092480510926A053B
:10156000422F50E0DC01ED91FC910280F381E02DEF
:101570000995EC0181E00E94DA0781E0CD2B09F4A6
:1015800080E0DF91CF9108951F93CF93DF93122FC7
:10159000DC0112968D919C9121E020934705609388
:1015A00069051092480510926A05DC01ED91FC91E5
:1015B0000190F081E02D642F0995EC0181E011117B
:1015C00080E00E94DA0781E0CD2B09F480E0DF9112
:1015D000CF911F91089508952091EA043091EB0472
:1015E0002817390771F49091E8048091E90498175D
:1015F00041F0E091E804F0E0E75AFB4F808190E091
:1016000008958FEF9FEF0895EF92FF920F931F932E
:10161000CF93DF93DC015C96ED90FC905D97E11435
:10162000F10479F481E090E013969C938E931297E5
:1016300090E080E0DF91CF911F910F91FF90EF90AC
:1016400008955196ED91FC91529750968C91509738
:10165000982F90950FB75E962C915E97122F12706F
:1016600021FD6095F8942081112319F1282B208306
:10167000E7012197F1F728E0462F50E0308160FF25
:101680001AC0382B3083E7012197F1F7BA0175951D
:101690006795215089F7112381F080818923808308
:1016A0000FBF5C968D919C910197F1F781E090E0DE
:1016B000C1CF2923DCCF3923E5CF9081892BEFCF10
:1016C0002091EA043091EB042817390771F48091D6
:1016D000E9042091E80490E0805C9F4F821B91090F
:1016E00060E470E00E945E1A089590E080E0089542
:1016F0002091EA043091EB0428173907B9F490914E
:10170000E8048091E904981789F0E091E804F0E09A
:10171000E75AFB4F80812091E80430E02F5F3F4F74
:101720002F7333272093E80490E008958FEF9FEF05
:1017300008958F929F92AF92BF92EF92FF920F9374
:101740001F93CF93DF937B018C01D0E0C0E00E9418
:101750008F0760936A0670936B0680936C06909374
:101760006D0682E696E00E94780B97FF27C00E94E4
:101770008F0780906A0690906B06A0906C06B090E0
:101780006D06681979098A099B0980906606909010
:101790006706A0906806B0906906681579058A0505
:1017A0009B05F8F2CE01DF91CF911F910F91FF9031
:1017B000EF90BF90AF909F908F900895F801819324
:1017C0008F012196EC16FD0611F6ECCF90E080E03B
:1017D0000895CF92DF92EF92FF920F931F93CF93D2
:1017E000DF9380910001815009F4A2C08093000131
:1017F0008091350681112AC0809137069091380674
:10180000892B21F180913B0690913C06892B51F464
:1018100080913606813009F434C108F420C1823049
:1018200009F459C180913B0690913C06892B49F0FF
:1018300080913B0690913C06019790933C068093E3
:101840003B0680913606811161C15B98809122062A
:10185000909123068233910508F472C110922306F9
:101860001092220600E116E07801D0E0DD24D39446
:10187000C6B1D13009F44CC1D23009F44DC1C6957E
:10188000C170CC2ECD24F7018489DF5F8C1539F02F
:10189000C11146C18D2F0E945E05F701C48AC11196
:1018A00018C0F8018789908D8531910540F08370CB
:1018B0009927892B21F48D2F80680E945E05F801FD
:1018C0008789908D8F3F980721F00196F801908FBE
:1018D000878B0E5F1F4FFFEFEF1AFF0AD33041F6E1
:1018E00080914A06882309F47DC180914C068111BC
:1018F00079C1E6E8F8E0A591B4918C918091570602
:10190000882329F080915206882309F41FC1209171
:1019100050063091510680914D0690914E06281741
:10192000390708F4A8C1109254061092530639C121
:1019300084E08093000140914406411106C08091EB
:101940004806811102C0D1E011C0809146068F5F28
:1019500080934606D0914506DD2309F466C08234A3
:1019600090F31092450610924606D0E0809143060F
:10197000282F30E050E0082E02C0559547950A9474
:10198000E2F740FF03C06FEFDD2321F02D5F3E4FF4
:10199000F90160810E946F0A809143068F5F843055
:1019A00008F04CC08093430680914706C0914806DA
:1019B000C8239FEF9D0FC923C82780914906C817E8
:1019C00009F416CF10E000E0802F209149062C2763
:1019D00030E0002E02C0359527950A94E2F720FFEB
:1019E0001CC02091480630E0002E02C03595279596
:1019F0000A94E2F720FF25C061E0DD2361F06091E9
:101A0000470670E0002E02C0759567950A94E2F7CC
:101A10006095709561700E944F0A0F5F1F4F0430F0
:101A2000110591F6C0934906E3CE853108F49ECFA7
:101A300081E0809345061092460685CF10924306BA
:101A4000B3CF6091470670E0002E02C07595679590
:101A50000A94E2F76095709561707727DCCF8091EA
:101A6000390690913A06892B61F080913906909160
:101A70003A0690933C0680933B0681E080933606BD
:101A8000D1CE80913E06815080933E0680913E06E5
:101A9000882359F0809137069091380690933C0640
:101AA00080933B0610923606BDCE80913D06809312
:101AB0003E06809141069091420690933C068093A9
:101AC0003B0682E080933606809141069091420663
:101AD000892B09F0A7CE80913F0690914006892B73
:101AE000C9F280913F06909140060197909340067D
:101AF00080933F0680913F0690914006892B51F6D6
:101B000010923806109237065B9A8CCE5B9A9ECE66
:101B1000C2FBCC27C0F9B5CEC3FBCC27C0F9B1CEF0
:101B2000F8018789908D459740F08D2F806C0E9439
:101B30005E05F801108E178AB0CE8D2F8064F7CF26
:101B400001969093230680932206CACE8091580670
:101B500090915906A0915A06B0915B060196A11D7D
:101B6000B11D8093580690935906A0935A06B093DE
:101B70005B06209150063091510680914D06909160
:101B80004E062817390708F073C0809150069091CF
:101B9000510690935406809353061092510610926A
:101BA000500680914B06811118C080915306909188
:101BB000540690935606809355068091580690914E
:101BC0005906A0915A06B0915B0680935C069093EB
:101BD0005D06A0935E06B0935F0680915706811163
:101BE0001092570680912D0690912E06A0912F06F7
:101BF000B0913006892B8A2B8B2BB9F0809115067A
:101C0000811113C080912D0690912E06A0912F0670
:101C1000B09130060197A109B10980932D069093E8
:101C20002E06A0932F06B0933006809114068111E2
:101C300010C080912D0690912E06A0912F06B09194
:101C400030068093310690933206A0933306B0930A
:101C50003406E0911006F09111063097B1F0DF9153
:101C6000CF911F910F91FF90EF90DF90CF9009944B
:101C700090E080E08ECF80915006909151060196C1
:101C800090935106809350068CCFDF91CF911F9196
:101C90000F91FF90EF90DF90CF9008950F931F93D7
:101CA000CF93DF93EC01862F8A0141E061E00E942F
:101CB000CA0810929A04809399048A819B81DC015E
:101CC000ED91FC910084F185E02D0995892B89F037
:101CD0008A819B81DC01ED91FC910284F385E02DEA
:101CE0000995F801808381E0DF91CF911F910F91D9
:101CF000089580E0F9CFCF92DF92EF92FF920F9399
:101D00001F93CF93DF936C01862FD42FC52FE22E24
:101D1000F12C622F213208F060E241E00E94CA08F3
:101D200010929A04809399040D2F1C2FD0E0C0E0EC
:101D3000D60112968D919C91DC01ED91FC9100846D
:101D4000F185E02D0995892B91F0CE15DF057CF406
:101D5000F60182819381DC01ED91FC910284F3858F
:101D6000E02D0995F80181938F012196E1CF81E063
:101D7000EC16FD0609F080E0DF91CF911F910F91E5
:101D8000FF90EF90DF90CF900895FC01019000202C
:101D9000E9F73197AF01481B590BBC0183E795E088
:101DA0000C947A058F929F92AF92BF920F931F93DC
:101DB000CF93DF93CDB7DEB7A1970FB6F894DEBF10
:101DC0000FBECDBF19A2423008F44AE08E010F5D6C
:101DD0001F4F842E912CB12CA12CA50194010E949F
:101DE000721AE62FB901CA01EA30F4F4E05DD801B5
:101DF000EE938D01232B242B252B79F790E080E0A7
:101E0000109719F0CD010E94C50EA1960FB6F89457
:101E1000DEBF0FBECDBFDF91CF911F910F91BF905D
:101E2000AF909F908F900895E95CE1CFCF92DF92C1
:101E3000EF92FF92CF93DF936B017C016DE283E71A
:101E400095E00E941A06EC0166277727CB016C19F2
:101E50007D098E099F094AE00E94D20E8C0F9D1FBA
:101E6000DF91CF91FF90EF90DF90CF900895CF93C7
:101E7000DF93BC01990F880B990B97FF0CC00E9450
:101E8000160FEC0189E891E00E94C50E8C0F9D1F92
:101E9000DF91CF9108954AE00E94D20EF2CFCF9306
:101EA000DF930E94C50EEC0189E891E00E94C50E07
:101EB0008C0F9D1FDF91CF910895EBE6F5E09C011B
:101EC000285F3F4FDC015D91CD014191541315C056
:101ED000A217B307B9F78CE891E00E944F0F8BE887
:101EE00091E00E948D046AE070E080E090E00E9442
:101EF0005D078CE891E00C948D0481E991E00E94EB
:101F00004F0F8BE891E00E948D046AE070E080E062
:101F100090E00E945D0788E991E0EDCF8091EF04A9
:101F20008F3F11F41092EF048091EF0424E6829F1A
:101F3000C00111249C0128513C4F253145E0340754
:101F4000F4F43093F8042093F7048DE991E00E94B3
:101F5000C50E8091F7049091F8040E94370F89EA2A
:101F600093E00E948D0468EE73E080E090E00E94B0
:101F70005D078091F7049091F8040C940705845D47
:101F80009E4F9093F8048093F704DFCFCF93DF93B5
:101F9000EC0188819981009711F00E944A1B1982F7
:101FA00018821D821C821B821A82DF91CF910895B4
:101FB0000F931F93CF93DF93EC0188819981009752
:101FC00059F02A813B812617370730F081E0DF91F5
:101FD000CF911F910F9108958B016F5F7F4F0E94EA
:101FE000D31B009759F0998388831B830A832C8124
:101FF0003D81232B59F7FC011082E8CF80E0E7CF29
:1020000085ED8093BC008091430590914405A0919B
:102010004505B09146050796A11DB11D23E0B69573
:10202000A795979587952A95D1F72091BC0024FD17
:1020300003C0109241050895409143055091440515
:102040006091450570914605452B462B472B69F35A
:102050000097A105B10541F025E32A95F1F70000AD
:102060000197A109B109E1CF809142050C949B072A
:10207000E8E4F4E081E1DF011D928A95E9F748E0A8
:1020800050E065E171E082E696E00E947A0561E148
:1020900070E088E494E00E94990B8AEA91E00E9443
:1020A000C50E80914E048093440480914D0480932A
:1020B000450480914C048093460480914B048093A6
:1020C000470420E030E0A901609144047091450488
:1020D00080914604909147040E948919882309F44D
:1020E00056C080913C04811103C081E080933C0480
:1020F000A8E4B4E08FEF9FEF2FE030E0FD01AD01E9
:1021000043705527452B99F42A0F3B1FA217B3079D
:1021100011F1492F5527ED91F0E0E827EE0FFF1F51
:10212000E859FF4F8591949184279527EFCF21158A
:10213000310589F0492F55271196E081F0E0E82715
:10214000EE0FFF1FE859FF4F859194918427952743
:1021500021503109D3CF90933B0480933A042091CE
:102160005704281314C080915804891310C083EBBE
:1021700092E00E944F0F6091440470914504809159
:102180004604909147040E94281ACB01089588EBD9
:1021900091E00E944F0F88E991E00E948D04EBCFFF
:1021A0001F920F920FB60F9211242F933F934F93CC
:1021B0005F936F937F938F939F93AF93BF93EF93AF
:1021C000FF9383E795E00E94F805FF91EF91BF919F
:1021D000AF919F918F917F916F915F914F913F91BF
:1021E0002F910F900FBE0F901F9018951F920F9276
:1021F0000FB60F9211242F938F939F93EF93FF931A
:10220000E0918305F09184058081E0918905F0914A
:102210008A0582FD1BC0908180918C058F5F8F7332
:1022200020918D05821741F0E0918C05F0E0ED588A
:10223000FA4F958F80938C05FF91EF919F918F912D
:102240002F910F900FBE0F901F9018958081F4CFA3
:102250001F920F920FB60F9211242F933F938F93DB
:102260009F93AF93BF938091E0049091E104A0917C
:10227000E204B091E3043091DF0423E0230F2D3713
:1022800058F50196A11DB11D2093DF048093E00451
:102290009093E104A093E204B093E3048091E404FA
:1022A0009091E504A091E604B091E7040196A11D88
:1022B000B11D8093E4049093E504A093E604B093E9
:1022C000E704BF91AF919F918F913F912F910F9014
:1022D0000FBE0F901F90189526E8230F0296A11DA0
:1022E000B11DD2CF1F920F920FB60F9211242F93D0
:1022F0003F934F935F936F937F938F939F93AF938E
:10230000BF93EF93FF938091B900887F803609F4E3
:102310004AC0F0F5883209F4A5C018F5803109F4F7
:1023200099C0B8F4882309F4F5C0883009F492C044
:10233000FF91EF91BF91AF919F918F917F916F919D
:102340005F914F913F912F910F900FBE0F901F9073
:102350001895883109F486C0803251F780933F0583
:1023600014C0803409F49BC040F48033B9F388333F
:10237000F9F680933F0585ECAEC0803509F483C043
:10238000883509F494C0883499F60E940010D0CFA3
:10239000883909F48AC038F5883729F050F488362E
:1023A00011F0803729F683E0809341051092DE0416
:1023B00055C0883809F479C0803919F0803809F09F
:1023C000B7CF8091DE04803208F06FC0E091DE0468
:1023D00081E08E0F8093DE048091BB00F0E0E25438
:1023E000FB4F80833BC0803B39F0D0F4803A09F446
:1023F00077C0883A09F09CCF84E080934105109221
:10240000BD041092BC04F0E0E0E009958091BC04AA
:1024100081110FC081E08093BC0410929C0409C01C
:10242000803C09F4A8CF883C09F4A5CF883B09F08B
:102430007FCFE091BD0481E08E0F8093BD04F0E07A
:10244000E456FB4F80818093BB009091BD04809146
:10245000BC0429C080911C058093BB0085EC80934F
:10246000BC0066CF90913E0580913D05981758F5C8
:10247000E0913E0581E08E0F80933E05F0E0E35E43
:10248000FA4F8081E9CFE0913E0581E08E0F809385
:102490003E058091BB00F0E0E35EFA4F80839091AF
:1024A0003E0580913D059817C8F285E8D8CFE091A8
:1024B0003E0581E08E0F80933E058091BB00F0E0E9
:1024C000E35EFA4F80838091400581115ECF81E009
:1024D00080931B0584EA8093BC001092410528CFAD
:1024E00085EC8093BC00109241058091DE0480321F
:1024F00030F4E091DE04F0E0E254FB4F1082609192
:10250000DE0470E08EEB94E0F0E0E0E009951092DC
:10251000DE040ECF10923F0538CF1F920F920FB6F8
:102520000F9211242F933F934F935F936F937F9359
:102530008F939F93AF93BF93EF93FF93E09101012C
:10254000F09102010995FF91EF91BF91AF919F9199
:102550008F917F916F915F914F913F912F910F904C
:102560000FBE0F901F9018951F920F920FB60F92EB
:1025700011242F933F934F935F936F937F938F9388
:102580009F93AF93BF93EF93FF93E091EA04F09191
:10259000EB04309749F0A685B7858585968D91FF28
:1025A00014C09C918923A1F4FF91EF91BF91AF9149
:1025B0009F918F917F916F915F914F913F912F915B
:1025C0000F900FBE0F901F9018959C91892361F773
:1025D000A389B4899C918589809589238C93868968
:1025E00097890197F1F7608D718DA685B78555851F
:1025F00038E020E0CB010197F1F7822F90E095952C
:102600008795282F4C91452309F02068315091F788
:10261000868D81FD20958091E90490E001968F736D
:1026200099273091E804381799F0A091E904B0E0B7
:10263000A75ABB4F2C938093E904828D938D019709
:10264000F1F7A389B4898C919589892B8C93ACCFB0
:10265000868D8160868FF1CF109276051092750578
:1026600088EE93E0A0E0B0E0809377059093780542
:10267000A0937905B0937A0529E631E0309374058B
:102680002093730525EC30E03093800520937F057F
:1026900024EC30E0309382052093810520EC30E07B
:1026A000309384052093830521EC30E03093860538
:1026B0002093850522EC30E0309388052093870530
:1026C00026EC30E030938A052093890510928C0522
:1026D00010928D0510928E0510928F0510921106A2
:1026E00010921006109214061092150620911201F5
:1026F0003091130140911401209316063093170670
:102700004093180610921F06109220061092210680
:10271000109223061092220610922406109225068B
:1027200010922606109228061092270610922A066A
:102730001092290610922C0610922B0610922D064C
:1027400010922E0610922F0610923006109231062B
:10275000109232061092330610923406109235060B
:1027600010923606109238061092370610923A06EA
:102770001092390610923C0610923B0610923D06CC
:1027800010923E061092400610923F0610924206AA
:10279000109241061092430610924406109245068C
:1027A000109246061092470610924806109249066B
:1027B00010924A0610924B0610924C0628EB3BE012
:1027C00030934E0620934D064FE040934F063093D2
:1027D0005106209350061092520610925406109201
:1027E00053061092560610925506109257061092F4
:1027F00058061092590610925A0610925B061092D3
:102800005C0610925D0610925E0610925F0661E013
:1028100060936006609361061092650610926406EC
:102820008093660690936706A0936806B093690646
:102830008BE791E09093630680936206109279068D
:102840001092780610927B0610927A0610927D06FE
:1028500010927C0610927F0610927E068091800670
:102860008E7F8D7F8093800686958170682785E0B6
:102870000E94D90661E085E00E940707E3EBF8E0DB
:10288000E491E0937206EFE9F8E0E491F0E0EE0FF6
:10289000FF1FE057F74F85919491909374068093B2
:1028A000730660E086E00E9407078091800681FD44
:1028B00004C061E086E00E94D90686E080936E063F
:1028C000E4EBF8E0E491E0936F06E0EAF8E0E491ED
:1028D000F0E0EE0FFF1FEA57F74F85919491909328
:1028E0007106809370060895CF93DF93CDB7DEB75E
:1028F00067970FB6F894DEBF0FBECDBF789484B54E
:10290000826084BD84B5816084BD85B5826085BDEB
:1029100085B5816085BD80916E00816080936E0079
:10292000109281008091810082608093810080916B
:10293000810081608093810080918000816080931C
:1029400080008091B10084608093B1008091B000DC
:1029500081608093B00080917A00846080937A00D7
:1029600080917A00826080937A0080917A00816001
:1029700080937A0080917A00806880937A00109228
:10298000C10010E1109381001092800082E19AE76B
:10299000909387008093860084E18093810061E0BA
:1029A0008DE00E94070761E08CE00E94070761E06C
:1029B0008BE00E94070761E08AE00E94070761E060
:1029C0008DE00E94D90661E08CE00E94D90661E0AA
:1029D0008BE00E94D90661E08AE00E94D90661E09E
:1029E00084E00E94070761E087E00E94070761E03A
:1029F00088E00E9407076FEF80E00E946F0A61E0A5
:102A000083E00E94070761E083E00E94D9068EEE12
:102A100094E0909313068093120680E49FE19093D4
:102A200087008093860081E18093810089EE9BE09E
:102A3000909302018093010181E080936F00E09107
:102A40008305F091840582E08083E0917F05F09119
:102A500080051082E0918105F0918205108310922B
:102A60008B05E0918705F091880586E08083E091F1
:102A70008505F0918605808180618083E0918505E0
:102A8000F0918605808188608083E0918505F091D2
:102A90008605808180688083E0918505F0918605B8
:102AA00080818F7D80838DEB91E00E944F0F10928B
:102AB0007D0610927C0610927B0610927A06109288
:102AC0007906109278068DEC90E090937F068093C3
:102AD0007E0690916E06963108F047C025E530E0FD
:102AE00030937906209378062BEC30E030937B0608
:102AF00020937A0620E930E030937D0620937C060F
:102B00002091680084E0983048F031E09E3008F46D
:102B100030E081E001C0880F3A95EAF7822B80937C
:102B200068002DE630E0983050F02BE630E09E3023
:102B300030F02CE630E0963110F030E020E03093B9
:102B4000760620937506292F30E0983008F039C1B9
:102B500081E001C0880F9A95EAF78093770680910B
:102B60007E0690917F060197F1F780917C06909107
:102B70007D06892B49F1E091EA04F091EB0486E0AF
:102B8000E236F80709F1309739F0A389B4899C91AE
:102B90008589809589238C93809180068E7F809390
:102BA00080061092E9041092E80482E696E0909381
:102BB000EB048093EA04E0917506F091760680813B
:102BC00090917706892B808368EE73E080E090E037
:102BD0000E945D0790E080E00E94DB198093EF0483
:102BE0000E948E0F6CED75E080E090E00E945D0722
:102BF00048E050E061E371E082E696E00E947A05E9
:102C000068E070E08BE695E00E94990B88ED91E01A
:102C10000E944F0F81E391E00E945D0F68EE73E028
:102C200080E090E00E945D0748E050E069E271E0DA
:102C300082E696E00E947A0568E070E08BE695E017
:102C40000E94990B85EF91E00E944F0F89E291E07D
:102C50000E945D0F68EE73E080E090E00E945D07E7
:102C600048E050E061E271E082E696E00E947A0579
:102C700068E070E08BE695E00E94990B89E192E0B4
:102C80000E944F0F81E291E00E945D0F68EE73E0B9
:102C900080E090E00E945D078E010F5F1F4F0E9451
:102CA00038102091EC043091ED04892B09F0ADC06F
:102CB0002530310508F0A9C01B8A1A8A1D8A1C8A92
:102CC0001F8A1E8A4AE0B801C9010E945F19F801F3
:102CD00001900020E9F731977F01E01AF10AB7016E
:102CE000CE0142960E94D80F811178C0CE01429643
:102CF0000E94C60F1A8219821C821B821E821D82AC
:102D000065E370E0C8010E94D80F81116FC0C8014F
:102D10000E94C60FEE88FF88CA88DB88C114D104E0
:102D200009F46FC0E114F104B1F08D819E81E80EC9
:102D3000F91EB701C8010E94D80F882309F461C0A9
:102D400029813A818D819E81B601820F931F0E9455
:102D5000991CFE82ED824D815E8169817A8183E7D3
:102D600095E00E947A0589E891E00E94C50E89816C
:102D70009A81009711F00E944A1B8A899B890097CB
:102D800011F00E944A1B8BE891E00E948D0464E1DF
:102D900070E080E090E00E945D0786E792E00E948C
:102DA0008D0464EC79E080E090E00E945D07809102
:102DB000EC049091ED0401969093ED048093EC0463
:102DC0006ECF9E3040F42850310981E001C0880F59
:102DD0002A95EAF7C2CE2E503109F7CFFF8AEE8A44
:102DE000B8018A899B890E94991C84CF85E390E071
:102DF0009E838D8360E472E089819A810E94991C90
:102E000089CFC8010E94C60FA6CF25303105A9F48D
:102E100060ED77E080E090E00E945D078AE792E055
:102E20000E944F0F88E19AE00FB6F894A89580931E
:102E300060000FBE90936000FFCF83E892E00E9495
:102E40004F0F8BE891E00E948D046AE070E080E013
:102E500090E00E945D0784EA92E00E948D0464EC99
:102E600079E080E090E00E945D0789EA92E00E94AC
:102E70004F0F60EA7FE080E090E00E945D0787EB03
:102E800092E00E94C50E0EE110E081EC92E00E94FB
:102E90008D0468EE73E080E090E00E945D07C80159
:102EA0000E940705C8010E94370F68EE73E080E0BA
:102EB00090E00E945D07025011090E3F8FEF180746
:102EC00021F786EC92E00E944F0F89ED92E00E947C
:102ED0008D0468E873E180E090E00E945D0790E077
:102EE000E92E90E0F92E332433940AE411E0CC2447
:102EF000C394D12C0E9438109093FA048093F90463
:102F0000181619060CF03EC18EED92E00E94C50E17
:102F10008091F9049091FA040E94370F8BE891E0B8
:102F20000E948D046AE070E080E090E00E945D07FE
:102F30008091F9049091FA040E9407058091470658
:102F4000909148064091F9045091FA042091F704B9
:102F50003091F804421753070CF41FC13092350624
:102F600010923606109338060093370610923A06F0
:102F70001092390610933C0600933B0630923D06B2
:102F800030923E06D0924006C0923F061092420612
:102F900010924106109235068F60809347069F601D
:102FA000909348060E948F072B013C018FE00E94FE
:102FB000B006892B09F017C18091F604882309F423
:102FC00001C18091F2049091F304A091F404B091B6
:102FD000F50488579C4EAF4FBF4F84159505A60545
:102FE000B70508F07FC01092F1048BE891E00E94D1
:102FF0008D0464E670E080E090E00E945D0785EF5C
:1030000092E00E944F0F84E1882E912CA12CB12CCC
:103010008EE293E00E948D0468EE73E080E090E021
:103020000E945D074AE0C501B4010E94D20E84E708
:1030300092E00E94C50E0E9438109093FA0480938B
:10304000F9048EED92E00E94C50E8091F9049091F2
:10305000FA040E94370FC4010E94070568EE73E06E
:1030600080E090E00E945D0781E10E94B006892B1C
:1030700009F09AC062E370E080E090E00E945D0792
:1030800081E10E94B006892B09F08EC03092F104D4
:103090008091F104811124C064E670E080E090E04A
:1030A0000E945D0748E050E069E371E082E696E047
:1030B0000E947A0568E070E08BE695E00E94990B2B
:1030C00083E393E00E94C50E89E391E00E945D0FC7
:1030D00060EA7FE080E090E00E945D071092F604D5
:1030E0001092F10480E10E94B006892B09F0C8C05B
:1030F0008091F004882309F4B4C08091F204909187
:10310000F304A091F404B091F50488579C4EAF4F9E
:10311000BF4F84159505A605B70508F087C081EA5D
:1031200093E00E944F0F0E948E0F81E10E94B00633
:10313000019709F05EC06AE070E080E090E00E94D4
:103140005D0780E10E94B006892B79F762E370E0A9
:1031500080E090E00E945D0780E10E94B006892B2C
:1031600021F78091EF048F5F883008F03FC0809393
:10317000EF040E948E0F68EC70E080E090E00E9407
:103180005D07D3CF89EE92E00E944F0F6AE070E0B6
:1031900080E090E00E945D07D1CE907F909348063A
:1031A000807F80934706FECE82E0881A9108A108AE
:1031B000B1088EEF88168FEF9806A806B80609F0BA
:1031C00027CF66CF0E948F076093F2047093F304B9
:1031D0008093F4049093F5043092F60480E693E033
:1031E0000E944F0F7FCF1092F6047CCF1092EF0415
:1031F000C0CF62E370E080E090E00E945D0781E173
:103200000E94B006892B41F56091EF0490E080E0C8
:103210000E94E3191092F0048EEA93E00E94C50E1A
:103220008091F7049091F8040E94370F85E294E0B2
:103230000E944F0F60ED77E080E090E00E945D0714
:10324000E114F10409F456CE0E94E405882309F440
:1032500051CE0E9400004ECE8FEB93E00E944F0FA4
:10326000E5CF0E948F076093F2047093F30480937C
:10327000F4049093F5043092F00487ED93E0EECFE0
:103280001092F004D3CF8BE791E090936306809384
:1032900062068091EA049091EB048256964071F4A4
:1032A000E0917506F0917606908180917706809581
:1032B000892380831092EB041092EA040895BB27BF
:1032C000FB015527AA27880F991FAA1FA41710F0E2
:1032D000A41B83955051B9F7A05DAA3308F0A95DEE
:1032E000A193009779F7B111B1931192CB010C948E
:1032F0007919DC01FC01672F71917723E1F732978F
:1033000004C07C916D9370836291AE17BF07C8F3C0
:1033100008950E948E1908F481E00895990F00081D
:10332000550FAA0BE0E8FEEF16161706E807F90797
:10333000C0F012161306E407F50798F0621B730B32
:10334000840B950B39F40A2661F0232B242B252BB3
:1033500021F408950A2609F4A140A6958FEF811D56
:10336000811D089557FD9058440F551F59F05F3F38
:1033700071F04795880F97FB991F61F09F3F79F097
:1033800087950895121613061406551FF2CF469519
:10339000F1DF08C0161617061806991FF1CF86959B
:1033A0007105610508940895E894BB27662777277F
:1033B000CB0197F90895F999FECF92BD81BDF89A96
:1033C000992780B50895262FF999FECF1FBA92BD8F
:1033D00081BD20BD0FB6F894FA9AF99A0FBE0196F6
:1033E00008952F923F924F925F926F927F928F92A9
:1033F0009F92AF92BF92CF92DF92EF92FF920F9384
:103400001F93CF93DF93CDB7DEB7CA1BDB0B0FB68D
:10341000F894DEBF0FBECDBF09942A88398848884A
:103420005F846E847D848C849B84AA84B984C884E0
:10343000DF80EE80FD800C811B81AA81B981CE0FD7
:10344000D11D0FB6F894DEBF0FBECDBFED010895BC
:103450000E942F1A6894B1110C94D51908950E94F6
:10346000BA1988F09F5798F0B92F9927B751B0F043
:10347000E1F0660F771F881F991F1AF0BA95C9F7F8
:1034800014C0B13091F00E94D419B1E008950C94A9
:10349000D419672F782F8827B85F39F0B93FCCF35C
:1034A000869577956795B395D9F73EF49095809575
:1034B000709561957F4F8F4F9F4F089597FB072E13
:1034C00016F4009407D077FD09D00E94941A07FCE7
:1034D00005D03EF4909581959F4F08957095619524
:1034E0007F4F0895A1E21A2EAA1BBB1BFD010DC040
:1034F000AA1FBB1FEE1FFF1FA217B307E407F507A4
:1035000020F0A21BB30BE40BF50B661F771F881F7F
:10351000991F1A9469F760957095809590959B0115
:10352000AC01BD01CF010895AA1BBB1B51E107C02F
:10353000AA1FBB1FA617B70710F0A61BB70B881F43
:10354000991F5A95A9F780959095BC01CD010895D2
:10355000EE0FFF1F0590F491E02D09940F931F9338
:10356000CF93DF938230910510F482E090E0E091F8
:103570008306F091840630E020E0B0E0A0E03097D0
:1035800099F42115310509F44AC0281B390B243060
:103590003105D8F58A819B816115710589F1FB019F
:1035A00093838283FE0111C0408151810281138186
:1035B00048175907E0F04817590799F4109761F038
:1035C00012960C93129713961C933296CF01DF91AB
:1035D000CF911F910F910895009383061093840655
:1035E000F4CF2115310551F04217530738F0A901E6
:1035F000DB019A01BD01DF01F801C1CFEF01F9CF75
:103600009093840680938306CDCFFE01E20FF31FD3
:10361000819391932250310939832883D7CF209108
:10362000810630918206232B41F4209109013091CB
:103630000A01309382062093810620910701309180
:1036400008012115310541F42DB73EB740910B011A
:1036500050910C01241B350BE0918106F0918206FC
:10366000E217F307A0F42E1B3F0B2817390778F059
:10367000AC014E5F5F4F2417350748F04E0F5F1FB8
:103680005093820640938106819391939FCFF0E0FF
:10369000E0E09CCFCF93DF930097E9F0FC013297F5
:1036A00013821282A0918306B0918406ED0130E06E
:1036B00020E01097A1F420813181820F931F209187
:1036C0008106309182062817390709F061C0F0930E
:1036D0008206E0938106DF91CF910895EA01CE172B
:1036E000DF07E8F54A815B819E0141155105B1F77D
:1036F000E901FB83EA8349915991C40FD51FEC1767
:10370000FD0761F4808191810296840F951FE90184
:1037100099838883828193819B838A83F0E0E0E0B0
:1037200012968D919C9113970097B9F52D913C912C
:103730001197CD010296820F931F2091810630913F
:1037400082062817390739F6309751F5109284060A
:1037500010928306B0938206A0938106BCCFD383D8
:10376000C28340815181840F951FC817D90761F426
:103770004E5F5F4F88819981480F591F5183408365
:103780008A819B81938382832115310509F0B0CF13
:10379000F0938406E09383069ECFFD01DC01C0CF49
:1037A00013821282D7CFB0E0A0E0E9EDFBE10C94E8
:1037B000F3198C01009751F4CB010E94AE1A8C01D1
:1037C000C801CDB7DEB7E0E10C940F1AFC01E60F9B
:1037D000F71F9C0122503109E217F30708F49DC03E
:1037E000D901CD91DC911197C617D70798F0C53054
:1037F000D10530F3CE0104978617970708F3C61B4F
:10380000D70B2297C193D1936D937C93CF010E94E4
:103810004A1BD6CF5B01AC1ABD0A4C018C0E9D1E13
:10382000A0918306B0918406512C412CF12CE12CFF
:10383000109731F58091810690918206881599053F
:1038400009F05CC04616570608F058C08091070181
:1038500090910801009741F48DB79EB740910B01FC
:1038600050910C01841B950BE817F90708F055C01F
:10387000F0938206E0938106F90171836083A0CF03
:103880008D919C91119712966C90129713967C9043
:103890001397A815B90559F56C0142E0C40ED11C67
:1038A000CA14DB0420F1AC014A195B09DA01129653
:1038B000159780F06282738251834083D9016D93A2
:1038C0007C93E114F10471F0D7011396FC93EE930D
:1038D000129776CF22968C0F9D1FF90191838083DA
:1038E000F301EFCFF0938406E093830669CF481687
:1038F000590608F42C017D01D3019ACFCB010E9417
:10390000AE1A7C01009749F0AE01B8010E94901CEC
:10391000C8010E944A1B870153CF10E000E050CF3E
:10392000FB01DC0102C001900D9241505040D8F7DC
:103930000895FB01DC0101900D920020E1F708954C
:1039400014E0C2E6D4E004C0FE010E94A81A219649
:0A395000C336D107C9F7F894FFCF82
:10395A0004EB0AFFFFFFFF000085068000202020FD
:10396A0020000F10116103002800064C60F1F2F4E8
:10397A00F86106003A0000A06761060025000210FF
:10398A0060610600360000606461060039019051EA
:10399A009B8883A7A1868E908BCFF1B6C7B6ABA3BF
:1039AA008C98AF9287E3B6B6B691B6C0F9A4B0992F
:1039BA009282F88090000000001A067A05A705672F
:1039CA0006D805B605CA0500000000040B7A05E60C
:1039DA000BC909600B780BEC0A0D0A00646F6E655F
:1039EA00006661696C6564006661696C0042454500
:1039FA0050206C6576656C3A2000526561642053EC
:103A0A00656E736F723A20004641494C00537461E7
:103A1A007274205343443330204D6F6462757320AF
:103A2A006C65637475726500537461727420636F98
:103A3A006E74696E696F7573206D656173757265F1
:103A4A006D656E7400536574206D6561737572657A
:103A5A006D656E7420696E74657276616C203220B1
:103A6A007365636F6E64732000446561637469767D
:103A7A00617465204175746F6D6174696320536563
:103A8A006C662D43616C6962726174696F6E2000A5
:103A9A004169722073656E736F72206E6F74206451
:103AAA00657465637465642E20506C656173652066
:103ABA00636865636B20776972696E672E2E2E20A4
:103ACA005472792320006261640052455345542E92
:103ADA002E2E004169722073656E736F72206465C1
:103AEA00746563746564205343443330204D6F64B6
:103AFA0062757300676F6F640053434433302072FA
:103B0A00656164204F4B00507265686561743A20A4
:103B1A000048454154005374617274206D656173A5
:103B2A007572656D656E747300434F322D00434F95
:103B3A00322870706D293A20004552524F52204364
:103B4A004F323D300053746172742063616C696254
:103B5A00726174696F6E2070726F636573733A2055
:103B6A00333030207365636F6E6473206F66203460
:103B7A0030302070706D20737461626C650043414F
:103B8A004C2D00526573657474696E6720666F7296
:103B9A006365642063616C6962726174696F6E2027
:103BAA00666163746F7220746F203430303A20007B
:103BBA00427574746F6E2043414C494220686173A8
:103BCA00206265656E20707265737365642C206867
:103BDA006F6C64203573206D6F726520746F20736B
:103BEA00746172742063616C6962726174696F6E68
:103BFA0000526F7574696E652042454550004E65E6
:103C0A007720426565702056616C75653A20006EB2
:103C1A006F206368616E676520696E204245455072
:103C2A002076616C756500427574746F6E2042452A
:103C3A00455020686173206265656E2070726573F5
:103C4A007365642C20686F6C64203573206D6F7205
:103C5A006520746F20737461727420424545502048
:103C6A006C6576656C206368616E676520726F7536
:103C7A0074696E650057616974696E6720666F7250
:0A3C8A00206E65772064617461000C
:00000001FF
