:100000000C9463000C948B000C948B000C94990E50
:100010000C94990E0C94990E0C948B000C948B00FC
:100020000C948B000C948B000C948B000C948B0024
:100030000C948B000C94720E0C948B000C948B001F
:100040000C940D0D0C948B000C94DB0C0C94B50CE3
:100050000C948B000C948B000C948B000C948B00F4
:100060000C94570D0C948B00000000002400270016
:100070002A0000000008000201000003040700003D
:1000800000000000000000000000230026002900FE
:1000900000000000250028002B00040404040404D0
:1000A0000404020202020202030303030303010227
:1000B00004081020408001020408102001020408F6
:1000C0001020110FD71411241FBECFEFD8E0DEBFD0
:1000D000CDBF25E0A6ECB3E001C01D92A63FB2075C
:1000E000E1F713E0A0E0B1E0E2E7FFE202C0059033
:1000F0000D92A63CB107D9F710E0C2E6D0E004C0EB
:100100002197FE010E94B415C136D107C9F70E949C
:1001100059100C94AC170C940000CF93DF9300D0CF
:1001200000D0CDB7DEB719821A821B821C82DC0197
:1001300090E04FE7ED91E1110CC0E1E0F0E0EC0F51
:10014000FD1FE90FF11D8FEF943028F481939F5F1D
:10015000FBCF943098F08981809303018A8180934A
:1001600004018B81809305018C81809306010F909F
:100170000F900F900F90DF91CF910895EE3299F488
:10018000992371F0292F2150330BF90161E070E0C0
:100190006C0F7D1FE60FF71F80818F778083CACF9A
:1001A000498391E0C7CF292F30E080ED8E0F8A3050
:1001B00070F4F0E0E15EFE4F8081E1E0F0E0EC0FF2
:1001C000FD1F2E0F3F1FF90180839F5FB3CF8FE983
:1001D0008E0F8A3120F4F0E0EC52FF4FEDCF8FEB21
:1001E0008E0F8A3120F4F0E0EC50FF4FE5CF8FEB1B
:1001F000ED3219F32CF48FEFE032F9F286EBDDCF1C
:100200008FE7EE32D1F287EFEF35B9F2F7CFEF9209
:10021000FF920F931F93CF93DF9300D000D01F92D4
:10022000CDB7DEB725E0EDE0F1E0DE0111960190FB
:100230000D922A95E1F79C0129513C4F273F3A4204
:1002400090F085E48C83CE0101960E948D000F9082
:100250000F900F900F900F90DF91CF911F910F9102
:10026000FF90EF900895009711F480E3EBCF20E02A
:1002700097FF04C091958195910921E0E3E03AE070
:10028000E32EF12C01E010E00C0F1D1F0E0F111DCD
:10029000B7010E946A15805DD8018C93CB01E150B3
:1002A000009781F7222379F281E090E08C0F9D1F67
:1002B0008E0F911DFC018DE28083C5CF909190053A
:1002C000963009F0B0F4E0919105F0E0EF57FA4F65
:1002D0008187809190058F5F809390058091910533
:1002E0008F5F8093910580919105863010F0109278
:1002F00091050895AF92BF92CF92DF92EF92FF9255
:100300000F931F93CF93DF936C017B018B01040F3D
:10031000151FEB015E01AE18BF08C017D10759F0D9
:100320006991D601ED91FC910190F081E02DC6011B
:100330000995892B79F7C501DF91CF911F910F9115
:10034000FF90EF90DF90CF90BF90AF900895FC01A9
:10035000538D448D252F30E0842F90E0821B930B2A
:10036000541710F0CF96089501970895FC01918DD0
:10037000828D981761F0A28DAE0FBF2FB11D5D96D3
:100380008C91928D9F5F9F73928F90E008958FEF75
:100390009FEF0895FC01918D828D981731F0828D29
:1003A000E80FF11D858D90E008958FEF9FEF089580
:1003B000FC01918D228D892F90E0805C9F4F821BE4
:1003C00091098F739927089584EE94E00E94D801D3
:1003D00021E0892B09F420E0822F089580E090E04D
:1003E000892B29F00E94E40181110C9400000895EA
:1003F000FC01A48DA80FB92FB11DA35ABF4F2C919A
:10040000848D90E001968F739927848FA689B78990
:100410002C93A089B1898C91837080648C93938D87
:10042000848D981306C00288F389E02D80818F7D2A
:1004300080830895EF92FF920F931F93CF93DF93E2
:10044000EC0181E0888F9B8D8C8D98131AC0E88910
:10045000F989808185FF15C09FB7F894EE89FF89DF
:100460006083E889F98980818370806480839FBF7D
:1004700081E090E0DF91CF911F910F91FF90EF907D
:100480000895F62E0B8D10E00F5F1F4F0F7311278D
:10049000E02E8C8D8E110CC00FB607FCFACFE889C8
:1004A000F989808185FFF5CFCE010E94F801F1CF57
:1004B000EB8DEC0FFD2FF11DE35AFF4FF0829FB73C
:1004C000F8940B8FEA89FB8980818062CFCFCF932C
:1004D000DF93EC01888D8823B9F0AA89BB89E8896C
:1004E000F9898C9185FD03C0808186FD0DC00FB612
:1004F00007FCF7CF8C9185FFF2CF808185FFEDCF90
:10050000CE010E94F801E9CFDF91CF9108958330A9
:1005100081F028F4813099F08230A9F00895873075
:10052000A9F08830C9F08430B1F4809180008F7DCB
:1005300003C0809180008F7780938000089584B5F8
:100540008F7784BD089584B58F7DFBCF8091B000F7
:100550008F778093B00008958091B0008F7DF9CFA0
:10056000CF93DF93282F30E0F901EE58FF4F8491AD
:10057000F901E255FF4FD491F901E656FF4FC491BE
:10058000CC23A1F081110E948702EC2FF0E0EE0F46
:10059000FF1FEA57FF4FA591B491EC91ED2381E045
:1005A00090E009F480E0DF91CF91089580E090E041
:1005B000FACF1F93CF93DF93282F30E0F901EE5845
:1005C000FF4F8491F901E255FF4FD491F901E656AE
:1005D000FF4FC491CC23A9F0162F81110E948702EE
:1005E000EC2FF0E0EE0FFF1FE057FF4FA591B49105
:1005F0008FB7F894EC91111108C0D095DE23DC93ED
:100600008FBFDF91CF911F910895DE2BF8CFCF934D
:10061000DF9390E0FC01E255FF4F249186569F4FF7
:10062000FC0184918823D1F090E0880F991FFC0190
:10063000E859FF4FA591B491FC01E057FF4FC591D8
:10064000D49161110EC09FB7F8948C91E22FE09580
:100650008E238C932881E223E8839FBFDF91CF9183
:1006600008958FB7F894EC91E22BEC938FBFF6CFFF
:100670003FB7F8948091590490915A04A0915B047B
:10068000B0915C0426B5A89B05C02F3F19F00196D8
:10069000A11DB11D3FBFBA2FA92F982F8827BC01DC
:1006A000CD01620F711D811D911D42E0660F771F04
:1006B000881F991F4A95D1F708958F929F92AF9204
:1006C000BF92CF92DF92EF92FF924B015C010E94AA
:1006D00038036B017C010E9438036C197D098E0977
:1006E0009F09683E734081059105A8F321E0821AB5
:1006F0009108A108B10888EEC80E83E0D81EE11C5D
:10070000F11C81149104A104B10429F7FF90EF902A
:10071000DF90CF90BF90AF909F908F9008952FB7AC
:10072000F89460915504709156048091570490910B
:1007300058042FBF08951F93CF93DF93C1E0C09358
:100740001004882399F1D091B8001091BA008091DB
:10075000BC008A7B8093BC0060E082E10E94D902E9
:1007600060E083E10E94D9021092B604C093B50400
:100770001092900461E082E10E94D90261E083E17D
:100780000E94D9028091B9008E7F8093B900809138
:10079000B9008D7F8093B90088E48093B80085E428
:1007A0008093BC001093BA00D093B800DF91CF9132
:1007B0001F9108958F929F92AF92BF92CF92DF9236
:1007C000EF92FF920F931F93CF93DF93D091DF04AB
:1007D000D13208F0D7C0182FC091DE040E94380330
:1007E0006B017C018091B60481116BC082E0809323
:1007F000B6041093B5048FEF8093B4041092B30441
:10080000D093B204AEEBB4E0E2E9F4E080E0D813B8
:1008100091C01092910480919104CC0FC82BC09389
:10082000910480919004813009F088C01092900466
:100830000E9438036B017C01809191048093BB007E
:100840008091B8049091B904A091BA04B091BB040E
:10085000892B8A2B8B2BA1F00E9438030091B804BE
:100860001091B9042091BA043091BB046C197D0930
:100870008E099F09061717072807390708F442C091
:100880008091BC0083FDD8CF85EC8093BC000E9492
:1008900038036B017C018091B604823009F450C0AA
:1008A0008091B4048F3F09F46FC08091B40480320A
:1008B00009F46CC08091B404803309F469C084E009
:1008C00026C08091B8049091B904A091BA04B09167
:1008D000BB04892B8A2B8B2B09F484CF0E9438030D
:1008E0008090B8049090B904A090BA04B090BB0472
:1008F0006C197D098E099F0986169706A806B90608
:1009000008F070CF8091B7040E949B0385E010929D
:10091000BD041092DF041092BC04DF91CF911F91AF
:100920000F91FF90EF90DF90CF90BF90AF909F908E
:100930008F9008959D9191938F5F69CF85EEA5CF9C
:100940008091B8049091B904A091BA04B091BB040D
:10095000892B8A2B8B2B09F49ECF0E9438030091A0
:10096000B8041091B9042091BA043091BB046C19F9
:100970007D098E099F09061717072807390708F010
:100980008ACFC0CF81E0C3CF80E0C1CF82E0BFCFAC
:1009900083E0BDCF8F929F92AF92BF92CF92DF92B2
:1009A000EF92FF920F931F93CF93DF93D82FC62F11
:1009B000142F613208F09CC00E9438036B017C0147
:1009C0008091B60481116FC081E08093B6041093CA
:1009D000B5049FEF9093B4041092B3049C0F9093CE
:1009E000B2048093910480919104DD0FD82BD093B1
:1009F000910480919004813009F07CC010929004A1
:100A00000E9438036B017C01809191048093BB00AC
:100A10008091B8049091B904A091BA04B091BB043C
:100A2000892B8A2B8B2BA1F00E9438030091B804EC
:100A30001091B9042091BA043091BB046C197D095E
:100A40008E099F09061717072807390708F44CC0B5
:100A50008091BC0083FDD8CF85EC8093BC000E94C0
:100A600038036B017C018091B604813009F444C0E5
:100A70008091B3048C1710F4C091B304E2E9F4E060
:100A8000A0E7B4E080E08C1359C08C2FDF91CF91A8
:100A90001F910F91FF90EF90DF90CF90BF90AF909C
:100AA0009F908F9008958091B8049091B904A0917F
:100AB000BA04B091BB04892B8A2B8B2B09F480CF0D
:100AC0000E9438038090B8049090B904A090BA04B2
:100AD000B090BB046C197D098E099F098616970694
:100AE000A806B90608F06CCF8091B7040E949B035A
:100AF000C0E0CBCF85EEB1CF8091B8049091B9041E
:100B0000A091BA04B091BB04892B8A2B8B2B09F4DA
:100B1000AACF0E9438030091B8041091B904209123
:100B2000BA043091BB046C197D098E099F09061720
:100B300017072807390708F096CFD6CF91919D93D4
:100B40008F5FA1CF20913104260F3327331F21322D
:100B50003105ECF42091B604FC0190E080E02430F3
:100B600069F082E00895A09131042191AC014F5EBB
:100B70005B4FA40FB52FB11D2C930196861798F3E8
:100B800080913104680F6093310480E0089581E022
:100B900008950895E0910F0480910E04E81730F451
:100BA000F0E0E059FB4F808190E008958FEF9FEFD8
:100BB000089590910F0480910E042FEF3FEF981746
:100BC00048F4E92FF0E0E059FB4F208130E09F5FCF
:100BD00090930F04C901089580910E0490910F0421
:100BE000891B990B0895CF92DF92EF92FF920F939A
:100BF0001F93CF93DF937C01CB018A012091BC042A
:100C0000222389F0EB016B01C40ED51ECC15DD0546
:100C100069F06991D701ED91FC910190F081E02D8F
:100C2000C7010995F3CF642F0E94A205C801DF9187
:100C3000CF911F910F91FF90EF90DF90CF9008958B
:100C4000CF93DF931F92CDB7DEB769832091BC04A9
:100C50002223F9F02091DF04203258F021E030E027
:100C6000FC013383228390E080E00F90DF91CF91ED
:100C700008958091BD04E82FF0E0E254FB4F998184
:100C800090838F5F8093BD048093DF0481E090E0C8
:100C9000ECCF61E0CE0101960E94A205F7CF813032
:100CA00061F028F0823079F0833099F0089566235E
:100CB00011F02D9A08952D980895662311F02C9A1D
:100CC00008952C980895662311F02B9A08952B9877
:100CD0000895662311F02A9A08952A9808955C9839
:100CE00027E030E070E0AB01022E02C05595479539
:100CF0000A94E2F740FF1FC0289A5F9A5F9821503C
:100D0000310988F727E030E0E82FF0E0E75EFE4F9A
:100D1000808190E0AC01022E02C0559547950A945F
:100D2000E2F740FF0AC0289A5F9A5F982150310984
:100D300088F75C9A08952898E0CF2898F5CFCF934C
:100D4000DF93362FBA01DC0112968D919C9141E020
:100D50004093BC043093DE041092BD041092DF0473
:100D6000422F50E0DC01ED91FC910280F381E02DF7
:100D70000995EC0181E00E94DA0381E0CD2B09F4B2
:100D800080E0DF91CF9108951F93CF93DF93122FCF
:100D9000DC0112968D919C9121E02093BC0460931C
:100DA000DE041092BD041092DF04DC01ED91FC9191
:100DB0000190F081E02D642F0995EC0181E0111183
:100DC00080E00E94DA0381E0CD2B09F480E0DF911E
:100DD000CF911F910895089520915F043091600490
:100DE0002817390771F490915D0480915E0498177B
:100DF00041F0E0915D04F0E0E253FC4F808190E02F
:100E000008958FEF9FEF0895EF92FF920F931F9336
:100E1000CF93DF93DC015C96ED90FC905D97E1143D
:100E2000F10479F481E090E013969C938E931297ED
:100E300090E080E0DF91CF911F910F91FF90EF90B4
:100E400008955196ED91FC91529750968C91509740
:100E5000982F90950FB75E962C915E97122F127077
:100E600021FD6095F8942081112319F1282B20830E
:100E7000E7012197F1F728E0462F50E0308160FF2D
:100E80001AC0382B3083E7012197F1F7BA01759525
:100E90006795215089F7112381F080818923808310
:100EA0000FBF5C968D919C910197F1F781E090E0E6
:100EB000C1CF2923DCCF3923E5CF9081892BEFCF18
:100EC00020915F04309160042817390771F48091F4
:100ED0005E0420915D0490E0805C9F4F821B91092D
:100EE00060E470E00E946A15089590E080E0089543
:100EF00020915F043091600428173907B9F490916C
:100F00005D0480915E04981789F0E0915D04F0E043
:100F1000E253FC4F808120915D0430E02F5F3F4F12
:100F20002F73332720935D0490E008958FEF9FEF98
:100F300008958F929F92AF92BF92EF92FF920F937C
:100F40001F93CF93DF937B018C01D0E0C0E00E9420
:100F50008F036093DB057093DC058093DD05909330
:100F6000DE0583ED95E00E94780797FF27C00E9479
:100F70008F038090DB059090DC05A090DD05B0909C
:100F8000DE05681979098A099B098090D705909038
:100F9000D805A090D905B090DA05681579058A05BD
:100FA0009B05F8F2CE01DF91CF911F910F91FF9039
:100FB000EF90BF90AF909F908F900895F80181932C
:100FC0008F012196EC16FD0611F6ECCF90E080E043
:100FD0000895CF92DF92EF92FF920F931F93CF93DA
:100FE000DF9380910001815009F4A2C08093000139
:100FF0008091A60581112AC08091A8059091A9052C
:10100000892B21F18091AC059091AD05892B51F48C
:101010008091A705813009F434C108F420C18230E1
:1010200009F459C18091AC059091AD05892B49F027
:101030008091AC059091AD0501979093AD0580939B
:10104000AC058091A705811161C15B9880919305E2
:10105000909194058233910508F472C11092940521
:101060001092930501E815E07801D0E0DD24D394D7
:10107000C6B1D13009F44CC1D23009F44DC1C69586
:10108000C170CC2ECD24F7018489DF5F8C1539F037
:10109000C11146C18D2F0E945E01F701C48AC111A2
:1010A00018C0F8018789908D8531910540F08370D3
:1010B0009927892B21F48D2F80680E945E01F80109
:1010C0008789908D8F3F980721F00196F801908FC6
:1010D000878B0E5F1F4FFFEFEF1AFF0AD33041F6E9
:1010E0008091BB05882309F47DC18091BD058111E4
:1010F00079C1E6E8F0E0A591B4918C918091C805A2
:10110000882329F08091C305882309F41FC1209109
:10111000C1053091C2058091BE059091BF05281789
:10112000390708F4A8C11092C5051092C40539C149
:1011300084E0809300014091B505411106C0809183
:10114000B905811102C0D1E011C08091B7058F5F50
:101150008093B705D091B605DD2309F466C08234CB
:1011600090F31092B6051092B705D0E08091B405C7
:10117000282F30E050E0082E02C0559547950A947C
:10118000E2F740FF03C06FEFDD2321F02D5F3E4FFC
:10119000F90160810E946F068091B4058F5F8430F1
:1011A00008F04CC08093B4058091B805C091B90592
:1011B000C8239FEF9D0FC923C8278091BA05C81780
:1011C00009F416CF10E000E0802F2091BA052C27FB
:1011D00030E0002E02C0359527950A94E2F720FFF3
:1011E0001CC02091B90530E0002E02C0359527952E
:1011F0000A94E2F720FF25C061E0DD2361F06091F1
:10120000B80570E0002E02C0759567950A94E2F764
:101210006095709561700E944F060F5F1F4F0430FC
:10122000110591F6C093BA05E3CE853108F49ECF3F
:1012300081E08093B6051092B70585CF1092B40572
:10124000B3CF6091B80570E0002E02C07595679528
:101250000A94E2F76095709561707727DCCF8091F2
:10126000AA059091AB05892B61F08091AA05909118
:10127000AB059093AD058093AC0581E08093A70505
:10128000D1CE8091AF0581508093AF058091AF059D
:10129000882359F08091A8059091A9059093AD05F8
:1012A0008093AC051092A705BDCE8091AE058093CA
:1012B000AF058091B2059091B3059093AD058093F1
:1012C000AC0582E08093A7058091B2059091B305AB
:1012D000892B09F0A7CE8091B0059091B105892B9B
:1012E000C9F28091B0059091B10501979093B10535
:1012F0008093B0058091B0059091B105892B51F68E
:101300001092A9051092A8055B9A8CCE5B9A9ECE8E
:10131000C2FBCC27C0F9B5CEC3FBCC27C0F9B1CEF8
:10132000F8018789908D459740F08D2F806C0E9441
:101330005E01F801108E178AB0CE8D2F8064F7CF32
:1013400001969093940580939305CACE8091C90528
:101350009091CA05A091CB05B091CC050196A11D35
:10136000B11D8093C9059093CA05A093CB05B09396
:10137000CC052091C1053091C2058091BE059091A8
:10138000BF052817390708F073C08091C1059091F7
:10139000C2059093C5058093C4051092C2051092B2
:1013A000C1058091BC05811118C08091C405909140
:1013B000C5059093C7058093C6058091C905909196
:1013C000CA05A091CB05B091CC058093CD05909333
:1013D000CE05A093CF05B093D0058091C8058111AB
:1013E0001092C80580919E0590919F05A091A0053F
:1013F000B091A105892B8A2B8B2BB9F080918605A2
:10140000811113C080919E0590919F05A091A00528
:10141000B091A1050197A109B10980939E05909310
:101420009F05A093A005B093A1058091850581112A
:1014300010C080919E0590919F05A091A005B0914C
:10144000A1058093A2059093A305A093A405B09352
:10145000A505E0918105F09182053097B1F0DF910B
:10146000CF911F910F91FF90EF90DF90CF90099453
:1014700090E080E08ECF8091C1059091C2050196E9
:101480009093C2058093C1058CCFDF91CF911F91BE
:101490000F91FF90EF90DF90CF9008950F931F93DF
:1014A000CF93DF93EC01862F8A0141E061E00E9437
:1014B000CA0410920F0480930E048A819B81DC0180
:1014C000ED91FC910084F185E02D0995892B89F03F
:1014D0008A819B81DC01ED91FC910284F385E02DF2
:1014E0000995F801808381E0DF91CF911F910F91E1
:1014F000089580E0F9CFCF92DF92EF92FF920F93A1
:101500001F93CF93DF936C01862FD42FC52FE22E2C
:10151000F12C622F213208F060E241E00E94CA04FF
:1015200010920F0480930E040D2F1C2FD0E0C0E00A
:10153000D60112968D919C91DC01ED91FC91008475
:10154000F185E02D0995892B91F0CE15DF057CF40E
:10155000F60182819381DC01ED91FC910284F38597
:10156000E02D0995F80181938F012196E1CF81E06B
:10157000EC16FD0609F080E0DF91CF911F910F91ED
:10158000FF90EF90DF90CF900895FC010190002034
:10159000E9F73197AF01481B590BBC0184EE94E089
:1015A0000C947A018F929F92AF92BF920F931F93E8
:1015B000CF93DF93CDB7DEB7A1970FB6F894DEBF18
:1015C0000FBECDBF19A2423008F44AE08E010F5D74
:1015D0001F4F842E912CB12CA12CA50194010E94A7
:1015E0007E15E62FB901CA01EA30F4F4E05DD801B6
:1015F000EE938D01232B242B252B79F790E080E0AF
:10160000109719F0CD010E94C50AA1960FB6F89463
:10161000DEBF0FBECDBFDF91CF911F910F91BF9065
:10162000AF909F908F900895E95CE1CFCF92DF92C9
:10163000EF92FF92CF93DF936B017C016DE284EE1A
:1016400094E00E941A02EC0166277727CB016C19FF
:101650007D098E099F094AE00E94D20A8C0F9D1FC6
:10166000DF91CF91FF90EF90DF90CF900895CF93CF
:10167000DF93BC01990F880B990B97FF0CC00E9458
:10168000160BEC018DE791E00E94C50A8C0F9D1F9F
:10169000DF91CF9108954AE00E94D20AF2CFCF9312
:1016A000DF930E94C50AEC018DE791E00E94C50A14
:1016B0008C0F9D1FDF91CF910895E0EEF4E09C0127
:1016C0002C5F3F4FDC015D91CD014191541315C05A
:1016D000A217B307B9F780E891E00E944F0B8FE79C
:1016E00091E00E948D006AE070E080E090E00E944E
:1016F0005D0380E891E00C948D0085E891E00E9404
:101700004F0B8FE791E00E948D006AE070E080E06F
:1017100090E00E945D038CE891E0EDCF809164043D
:101720008F3F11F4109264048091640424E6829F38
:10173000C00111249C0128513C4F253145E034075C
:10174000F4F430936D0420936C0481E991E00E94DD
:10175000C50A80916C0490916D040E94370B85E35B
:1017600093E00E948D0068EE73E080E090E00E94BC
:101770005D0380916C0490916D040C940701845D6D
:101780009E4F90936D0480936C04DFCF0F931F9353
:10179000CF93DF93EC0188819981009759F02A81DA
:1017A0003B812617370730F081E0DF91CF911F9101
:1017B0000F9108958B016F5F7F4F0E94DF16009796
:1017C00059F0998388831B830A832C813D81232BC5
:1017D00059F7FC011082E8CF80E0E7CFEF92FF924B
:1017E0000F931F93CF93DF93EC017B018A01BA0122
:1017F0000E94C60B28813981811114C02115310541
:1018000019F0C9010E945616198218821D821C8285
:101810001B821A82CE01DF91CF911F910F91FF9011
:10182000EF9008951D830C83B701C9010E94A5178D
:10183000F1CF85ED8093BC008091B8049091B904FC
:10184000A091BA04B091BB040796A11DB11D23E07D
:10185000B695A795979587952A95D1F72091BC00C5
:1018600024FD03C01092B60408954091B80450912D
:10187000B9046091BA047091BB04452B462B472BE9
:1018800069F30097A105B10541F025E32A95F1F729
:1018900000000197A109B109E1CF8091B7040C9430
:1018A0009B03E6ECF3E088E0DF011D928A95E9F7FF
:1018B00044E050E065E171E083ED95E00E947A013B
:1018C00068E070E086EC93E00E9499078091C9037C
:1018D000282F30E0322F22278091CA03820F932FC6
:1018E000911D90936F0480936E04009721F1E6ECB4
:1018F000F3E050E040E02191420F511DB3E0ED3C98
:10190000FB07C9F72091C603263149F45091CD0356
:1019100020E031E0241B31095217130629F183ED31
:1019200095E00E94600718161906E4F483ED95E02F
:101930000E947807F4CF85E891E00E944F0B8FE773
:1019400091E00E948D006AE070E080E090E00E94EB
:101950005D038CE891E00E948D0080916E0490916F
:101960006F04089590E080E008951F920F920FB6E3
:101970000F9211242F933F934F935F936F937F9315
:101980008F939F93AF93BF93EF93FF9384EE94E075
:101990000E94F801FF91EF91BF91AF919F918F91BC
:1019A0007F916F915F914F913F912F910F900FBE5B
:1019B0000F901F9018951F920F920FB60F9211243F
:1019C0002F938F939F93EF93FF93E091F404F09103
:1019D000F5048081E091FA04F091FB0482FD1BC0C4
:1019E00090818091FD048F5F8F732091FE04821798
:1019F00041F0E091FD04F0E0EC51FB4F958F8093B6
:101A0000FD04FF91EF919F918F912F910F900FBE49
:101A10000F901F9018958081F4CF1F920F920FB6F0
:101A20000F9211242F933F938F939F93AF93BF9364
:101A30008091550490915604A0915704B091580498
:101A40003091540423E0230F2D3758F50196A11D42
:101A5000B11D209354048093550490935604A09391
:101A60005704B09358048091590490915A04A0915E
:101A70005B04B0915C040196A11DB11D80935904D3
:101A800090935A04A0935B04B0935C04BF91AF9110
:101A90009F918F913F912F910F900FBE0F901F90AC
:101AA000189526E8230F0296A11DB11DD2CF1F92D3
:101AB0000F920FB60F9211242F933F934F935F9382
:101AC0006F937F938F939F93AF93BF93EF93FF9306
:101AD0008091B900887F803609F44AC0F0F58832D9
:101AE00009F4A5C018F5803109F499C0B8F4882329
:101AF00009F4F5C0883009F492C0FF91EF91BF91CD
:101B0000AF919F918F917F916F915F914F913F9195
:101B10002F910F900FBE0F901F901895883109F4E8
:101B200086C0803251F78093B40414C0803409F425
:101B30009BC040F48033B9F38833F9F68093B40442
:101B400085ECAEC0803509F483C0883509F494C0B3
:101B5000883499F60E94190CD0CF883909F48AC0CC
:101B600038F5883729F050F4883611F0803729F697
:101B700083E08093B6041092530455C0883809F46A
:101B800079C0803919F0803809F0B7CF80915304BB
:101B9000803208F06FC0E091530481E08E0F809393
:101BA00053048091BB00F0E0ED5CFB4F80833BC0B1
:101BB000803B39F0D0F4803A09F477C0883A09F0D4
:101BC0009CCF84E08093B6041092320410923104CA
:101BD000F0E0E0E009958091310481110FC081E0CF
:101BE000809331041092110409C0803C09F4A8CFFD
:101BF000883C09F4A5CF883B09F07FCFE0913204FF
:101C000081E08E0F80933204F0E0EF5EFB4F808125
:101C10008093BB00909132048091310429C080915F
:101C200091048093BB0085EC8093BC0066CF9091BB
:101C3000B3048091B204981758F5E091B30481E0A1
:101C40008E0F8093B304F0E0EE56FB4F8081E9CF16
:101C5000E091B30481E08E0F8093B3048091BB00C8
:101C6000F0E0EE56FB4F80839091B3048091B20474
:101C70009817C8F285E8D8CFE091B30481E08E0FC1
:101C80008093B3048091BB00F0E0EE56FB4F80835D
:101C90008091B50481115ECF81E08093900484EA45
:101CA0008093BC001092B60428CF85EC8093BC00D2
:101CB0001092B60480915304803230F4E0915304C2
:101CC000F0E0ED5CFB4F10826091530470E083E321
:101CD00094E0F0E0E0E00995109253040ECF1092EA
:101CE000B40438CF1F920F920FB60F9211242F9386
:101CF0003F934F935F936F937F938F939F93AF9394
:101D0000BF93EF93FF93E0910101F09102010995D8
:101D1000FF91EF91BF91AF919F918F917F916F91C3
:101D20005F914F913F912F910F900FBE0F901F9099
:101D300018951F920F920FB60F9211242F933F9375
:101D40004F935F936F937F938F939F93AF93BF93C3
:101D5000EF93FF93E0915F04F0916004309749F0B6
:101D6000A685B7858585968D91FF14C09C918923A2
:101D7000A1F4FF91EF91BF91AF919F918F917F91CE
:101D80006F915F914F913F912F910F900FBE0F90E8
:101D90001F9018959C91892361F7A389B4899C9120
:101DA0008589809589238C93868997890197F1F796
:101DB000608D718DA685B785558538E020E0CB0113
:101DC0000197F1F7822F90E095958795282F4C91F8
:101DD000452309F02068315091F7868D81FD2095CB
:101DE00080915E0490E001968F73992730915D0495
:101DF000381799F0A0915E04B0E0A253BC4F2C9329
:101E000080935E04828D938D0197F1F7A389B48945
:101E10008C919589892B8C93ACCF868D8160868F30
:101E2000F1CF1092E7041092E60488EE93E0A0E070
:101E3000B0E08093E8049093E904A093EA04B0939F
:101E4000EB042DE531E03093E5042093E40425EC28
:101E500030E03093F1042093F00424EC30E0309330
:101E6000F3042093F20420EC30E03093F504209347
:101E7000F40421EC30E03093F7042093F60422ECD4
:101E800030E03093F9042093F80426EC30E03093EE
:101E9000FB042093FA041092FD041092FE041092A9
:101EA000FF04109200051092820510928105109295
:101EB0008505109286052091120130911301409101
:101EC000140120938705309388054093890510926B
:101ED000900510929105109292051092940510921F
:101EE0009305109295051092960510929705109201
:101EF00099051092980510929B0510929A051092E0
:101F00009D0510929C0510929E0510929F051092BF
:101F1000A0051092A1051092A2051092A30510929F
:101F2000A4051092A5051092A6051092A70510927F
:101F3000A9051092A8051092AB051092AA0510925F
:101F4000AD051092AC051092AE051092AF0510923F
:101F5000B1051092B0051092B3051092B20510921F
:101F6000B4051092B5051092B6051092B7051092FF
:101F7000B8051092B9051092BA051092BB051092DF
:101F8000BC051092BD0528EB3BE03093BF052093C4
:101F9000BE054FE04093C0053093C2052093C105B4
:101FA0001092C3051092C5051092C4051092C70582
:101FB0001092C6051092C8051092C9051092CA0564
:101FC0001092CB051092CC051092CD051092CE0543
:101FD0001092CF051092D00561E06093D105609317
:101FE000D2051092D6051092D5058093D70590930F
:101FF000D805A093D905B093DA058FE691E09093C8
:10200000D4058093D3051092EA051092E905109249
:10201000EC051092EB051092EE051092ED05109272
:10202000F0051092EF058091F1058E7F8D7F8093F2
:10203000F10586958170682785E00E94D90261E0EC
:1020400085E00E940703E3EBF0E0E491E093E30511
:10205000EFE9F0E0E491F0E0EE0FFF1FE057FF4FF3
:10206000859194919093E5058093E40560E086E086
:102070000E9407038091F10581FD04C061E086E0C4
:102080000E94D90286E08093DF05E4EBF0E0E49162
:10209000E093E005E0EAF0E0E491F0E0EE0FFF1FEE
:1020A000EA57FF4F859194919093E2058093E10563
:1020B0000895CF93DF93CDB7DEB767970FB6F89447
:1020C000DEBF0FBECDBF789484B5826084BD84B579
:1020D000816084BD85B5826085BD85B5816085BD23
:1020E00080916E00816080936E00109281008091DB
:1020F0008100826080938100809181008160809363
:102100008100809180008160809380008091B10087
:1021100084608093B1008091B00081608093B000B2
:1021200080917A00846080937A0080917A00826046
:1021300080937A0080917A00816080937A00809108
:102140007A00806880937A001092C10010E11093A9
:1021500081001092800082E19AE79093870080933B
:10216000860084E18093810061E08DE00E94070396
:1021700061E08CE00E94070361E08BE00E940703AE
:1021800061E08AE00E94070361E08DE00E94D902CD
:1021900061E08CE00E94D90261E08BE00E94D902EC
:1021A00061E08AE00E94D90261E084E00E940703B6
:1021B00061E087E00E94070361E088E00E94070376
:1021C0006FEF80E00E946F0661E083E00E940703EA
:1021D00061E083E00E94D90283E694E09093840555
:1021E0008093830580E49FE190938700809386002D
:1021F00081E18093810089EE97E0909302018093C2
:10220000010181E080936F00E091F404F091F50406
:1022100082E08083E091F004F091F1041082E0917B
:10222000F204F091F30410831092FC04E091F8049E
:10223000F091F90486E08083E091F604F091F704D0
:10224000808180618083E091F604F091F7048081C1
:1022500088608083E091F604F091F70480818068C3
:102260008083E091F604F091F70480818F7D808374
:102270008EE991E00E944F0B1092EE051092ED0551
:102280001092EC051092EB051092EA051092E90508
:102290008DE991E09093F0058093EF059091DF0533
:1022A000963108F047C02DEB30E03093EA052093DB
:1022B000E9052BE931E03093EC052093EB052CE2A6
:1022C00031E03093EE052093ED052091680084E025
:1022D000983048F031E09E3008F430E081E001C0F1
:1022E000880F3A95EAF7822B809368002DE630E05C
:1022F000983050F02BE630E09E3030F02CE630E0A5
:10230000963110F030E020E03093E7052093E605A9
:10231000292F30E0983008F0F8C081E001C0880F24
:102320009A95EAF78093E8058091EF059091F00582
:102330000197F1F78091ED059091EE05892B49F118
:10234000E0915F04F091600485E0E33DF80709F156
:10235000309739F0A389B4899C9185898095892328
:102360008C938091F1058E7F8093F10510925E042D
:1023700010925D0483ED95E09093600480935F0478
:10238000E091E605F091E70580819091E805892BC1
:10239000808368EE73E080E090E00E945D0390E04F
:1023A00080E00E941D15809364040E948E0B6CEDEA
:1023B00075E080E090E00E945D034AE050E061E259
:1023C00071E083ED95E00E947A0164E070E080EEB8
:1023D00094E00E94990783EB91E00E94C50A8DE189
:1023E00091E00E945D0B68EE73E080E090E00E9457
:1023F0005D038E010F5F1F4F0E94510C20916104FD
:1024000030916204892B09F09AC02530310508F01B
:1024100096C01B8A1A8A1D8A1C8A1F8A1E8A4AE055
:10242000B801C9010E94F314F80101900020E9F7F6
:102430003197AF01401B510BB801CE0142960E946B
:10244000EE0B1A8219821C821B821E821D8245E3BA
:1024500050E061ED71E0C8010E94EE0BEE88FF884C
:10246000CA88DB88C114D10409F45CC0E114F1040A
:10247000B1F08D819E81E80EF91EB701C8010E945E
:10248000C60B882309F44EC029813A818D819E8133
:10249000B601820F931F0E94A517FE82ED824D8127
:1024A0005E8169817A8184EE94E00E947A018DE7F1
:1024B00091E00E94C50A89819A81009711F00E94DB
:1024C00056168A899B89009711F00E9456168FE74D
:1024D00091E00E948D0064E170E080E090E00E9455
:1024E0005D0387E092E00E948D0064EC79E080E07B
:1024F00090E00E945D0380916104909162040196D6
:10250000909362048093610477CF9E3040F428500A
:10251000310981E001C0880F2A95EAF703CF2E50D8
:102520003109F7CF89819A81009711F00E945616E0
:102530001A8219821E821D821C821B82B0CF253016
:102540003105A9F460ED77E080E090E00E945D0342
:102550008BE092E00E944F0B88E19AE00FB6F8946E
:10256000A895809360000FBE90936000FFCF84E138
:1025700092E00E944F0B8FE791E00E948D006AE08D
:1025800070E080E090E00E945D038FE292E00E94A4
:102590008D0084E392E00E944F0B60EA7FE080E0D0
:1025A00090E00E945D0383E492E00E94C50A0EE180
:1025B00010E08DE492E00E948D0068EE73E080E010
:1025C00090E00E945D03C8010E940701C8010E94BB
:1025D000370B68EE73E080E090E00E945D030250EC
:1025E00011090E3F8FEF180721F782E592E00E9454
:1025F0004F0B85E692E00E948D0068E873E180E071
:1026000090E00E945D0390E0E92E90E0F92E3324E3
:1026100033940AE411E0CC24C394D12C0E94510CD1
:1026200090936F0480936E04181619060CF03EC147
:102630008AE692E00E94C50A80916E0490916F0430
:102640000E94370B8FE791E00E948D006AE070E0F6
:1026500080E090E00E945D0380916E0490916F0491
:102660000E9407018091B8059091B90540916E04D0
:1026700050916F0420916C0430916D044217530700
:102680000CF41FC13092A6051092A7051093A9055E
:102690000093A8051092AB051092AA051093AD0502
:1026A0000093AC053092AE053092AF05D092B105E3
:1026B000C092B0051092B3051092B2051092A60513
:1026C0008F608093B8059F609093B9050E948F0337
:1026D0002B013C018FE00E94B002892B09F017C149
:1026E00080916B04882309F401C180916704909163
:1026F0006804A0916904B0916A0488579C4EAF4F5A
:10270000BF4F84159505A605B70508F07FC0109248
:1027100066048FE791E00E948D0064E670E080E03F
:1027200090E00E945D0381E892E00E944F0B84E1FB
:10273000882E912CA12CB12C8AEB92E00E948D0066
:1027400068EE73E080E090E00E945D034AE0C5011E
:10275000B4010E94D20A85E092E00E94C50A0E945C
:10276000510C90936F0480936E048AE692E00E946D
:10277000C50A80916E0490916F040E94370BC401CA
:102780000E94070168EE73E080E090E00E945D0324
:1027900081E10E94B002892B09F09AC062E370E0E7
:1027A00080E090E00E945D0381E10E94B002892BED
:1027B00009F08EC03092660480916604811124C0B5
:1027C00064E670E080E090E00E945D038FEB92E0B1
:1027D0000E94C50A46E050E06FE271E083ED95E0AB
:1027E0000E947A0164E070E080EE94E00E94990714
:1027F0008BE291E00E945D0B60EA7FE080E090E078
:102800000E945D0310926B041092660480E10E94A6
:10281000B002892B09F0C8C080916504882309F4AF
:10282000B4C08091670490916804A0916904B0914C
:102830006A0488579C4EAF4FBF4F84159505A60577
:10284000B70508F087C08DE293E00E944F0B0E940D
:102850008E0B81E10E94B002019709F05EC06AE030
:1028600070E080E090E00E945D0380E10E94B00291
:10287000892B79F762E370E080E090E00E945D03CD
:1028800080E10E94B002892B21F7809164048F5F60
:10289000883008F03FC0809364040E948E0B68EC7F
:1028A00070E080E090E00E945D03D3CF85E792E086
:1028B0000E944F0B6AE070E080E090E00E945D03B0
:1028C000D1CE907F9093B905807F8093B805FECEDE
:1028D00082E0881A9108A108B1088EEF88168FEF60
:1028E0009806A806B80609F027CF66CF0E948F0386
:1028F00060936704709368048093690490936A04FA
:1029000030926B048CEE92E00E944F0B7FCF1092BE
:102910006B047CCF10926404C0CF62E370E080E06F
:1029200090E00E945D0381E10E94B002892B41F595
:102930006091640490E080E00E9425151092650487
:102940008AE393E00E94C50A80916C0490916D0423
:102950000E94370B81EB93E00E944F0B60ED77E014
:1029600080E090E00E945D03E114F10409F456CE8A
:102970000E94E401882309F451CE0E9400004ECE4B
:102980008BE493E00E944F0BE5CF0E948F0360938E
:102990006704709368048093690490936A0430928A
:1029A000650483E693E0EECF10926504D3CF8FE603
:1029B00091E09093D4058093D30580915F0490912A
:1029C0006004835D954071F4E091E605F091E705C0
:1029D00090818091E805809589238083109260041E
:1029E00010925F040895BB27FB015527AA27880F83
:1029F000991FAA1FA41710F0A41B83955051B9F773
:102A0000A05DAA3308F0A95DA193009779F7B111F1
:102A1000B1931192CB010C940D15DC01FC01672FD1
:102A200071917723E1F7329704C07C916D937083A5
:102A30006291AE17BF07C8F30895F999FECF92BD12
:102A400081BDF89A992780B50895262FF999FECF70
:102A50001FBA92BD81BD20BD0FB6F894FA9AF99ABB
:102A60000FBE019608952F923F924F925F926F9200
:102A70007F928F929F92AF92BF92CF92DF92EF920E
:102A8000FF920F931F93CF93DF93CDB7DEB7CA1B8F
:102A9000DB0B0FB6F894DEBF0FBECDBF09942A88BA
:102AA000398848885F846E847D848C849B84AA8462
:102AB000B984C884DF80EE80FD800C811B81AA81EF
:102AC000B981CE0FD11D0FB6F894DEBF0FBECDBFBA
:102AD000ED01089597FB072E16F4009407D077FDBB
:102AE00009D00E94A01507FC05D03EF49095819571
:102AF0009F4F0895709561957F4F0895A1E21A2E1A
:102B0000AA1BBB1BFD010DC0AA1FBB1FEE1FFF1F91
:102B1000A217B307E407F50720F0A21BB30BE40BE1
:102B2000F50B661F771F881F991F1A9469F7609528
:102B30007095809590959B01AC01BD01CF010895E2
:102B4000AA1BBB1B51E107C0AA1FBB1FA617B707D3
:102B500010F0A61BB70B881F991F5A95A9F78095EF
:102B60009095BC01CD010895EE0FFF1F0590F491E3
:102B7000E02D09940F931F93CF93DF93823091053B
:102B800010F482E090E0E091F405F091F50530E07A
:102B900020E0B0E0A0E0309799F42115310509F468
:102BA0004AC0281B390B24303105D8F58A819B8116
:102BB0006115710589F1FB0193838283FE0111C0C8
:102BC000408151810281138148175907E0F048176D
:102BD000590799F4109761F012960C931297139677
:102BE0001C933296CF01DF91CF911F910F910895E1
:102BF0000093F4051093F505F4CF2115310551F03C
:102C00004217530738F0A901DB019A01BD01DF012A
:102C1000F801C1CFEF01F9CF9093F5058093F4054A
:102C2000CDCFFE01E20FF31F819391932250310922
:102C300039832883D7CF2091F2053091F305232BD8
:102C400041F42091090130910A013093F30520935A
:102C5000F20520910701309108012115310541F459
:102C60002DB73EB740910B0150910C01241B350B41
:102C7000E091F205F091F305E217F307A0F42E1BA3
:102C80003F0B2817390778F0AC014E5F5F4F2417D0
:102C9000350748F04E0F5F1F5093F3054093F20540
:102CA000819391939FCFF0E0E0E09CCFCF93DF93AF
:102CB0000097E9F0FC01329713821282A091F4058B
:102CC000B091F505ED0130E020E01097A1F42081EE
:102CD0003181820F931F2091F2053091F30528175F
:102CE000390709F061C0F093F305E093F205DF9135
:102CF000CF910895EA01CE17DF07E8F54A815B819D
:102D00009E0141155105B1F7E901FB83EA83499121
:102D10005991C40FD51FEC17FD0761F48081918193
:102D20000296840F951FE90199838883828193819C
:102D30009B838A83F0E0E0E012968D919C9113973B
:102D40000097B9F52D913C911197CD010296820F14
:102D5000931F2091F2053091F3052817390739F6B2
:102D6000309751F51092F5051092F405B093F305E4
:102D7000A093F205BCCFD383C28340815181840FDD
:102D8000951FC817D90761F44E5F5F4F88819981FD
:102D9000480F591F518340838A819B81938382838B
:102DA0002115310509F0B0CFF093F505E093F40556
:102DB0009ECFFD01DC01C0CF13821282D7CFB0E0DD
:102DC000A0E0E5EEF6E10C9435158C01009751F486
:102DD000CB010E94BA158C01C801CDB7DEB7E0E186
:102DE0000C945115FC01E60FF71F9C01225031098C
:102DF000E217F30708F49DC0D901CD91DC9111973A
:102E0000C617D70798F0C530D10530F3CE01049727
:102E10008617970708F3C61BD70B2297C193D19348
:102E20006D937C93CF010E945616D6CF5B01AC1AEE
:102E3000BD0A4C018C0E9D1EA091F405B091F505C4
:102E4000512C412CF12CE12C109731F58091F20599
:102E50009091F3058815990509F05CC04616570650
:102E600008F058C08091070190910801009741F443
:102E70008DB79EB740910B0150910C01841B950BAF
:102E8000E817F90708F055C0F093F305E093F20551
:102E9000F90171836083A0CF8D919C911197129657
:102EA0006C90129713967C901397A815B90559F555
:102EB0006C0142E0C40ED11CCA14DB0420F1AC0149
:102EC0004A195B09DA011296159780F062827382C3
:102ED00051834083D9016D937C93E114F10471F027
:102EE000D7011396FC93EE93129776CF22968C0F10
:102EF0009D1FF90191838083F301EFCFF093F505D6
:102F0000E093F40569CF4816590608F42C017D01B9
:102F1000D3019ACFCB010E94BA157C01009749F0EA
:102F2000AE01B8010E949C17C8010E945616870185
:102F300053CF10E000E050CFFB01DC0102C0019054
:102F40000D9241505040D8F70895FB01DC010190EB
:102F50000D920020E1F7089510E0C2E6D0E004C031
:102F6000FE010E94B4152196C336D107C9F7F89423
:022F7000FFCF91
:102F720004EB06FFFFFFFF0000F605800020202083
:102F820020000F1011110101EDF1F2F4F8160110F9
:102F9200D911071064020701906476160103E61145
:102FA20003030190588883A7A1868E908BCFF1B638
:102FB200C7B6ABA38C98AF9287E3B6B6B691B6C04C
:102FC200F9A4B0999282F88090000000001A027A67
:102FD20001A7016702D801B601CA0100000000047E
:102FE200077A01E607C90560077807EC060D0A00B3
:102FF200646F6E65006661696C6564006661696C28
:103002000042454550206C6576656C3A2000537449
:1030120061727420434D31313036206C65637475B2
:10302200726500434D313130362053746F70204148
:1030320075746F63616C6962726174696F6E3A2054
:10304200004169722073656E736F72206E6F742017
:1030520064657465637465642E20506C6561736584
:1030620020636865636B20776972696E672E2E2E06
:103072002054727923200062616400524553455402
:103082002E2E2E004169722073656E736F7220645A
:103092006574656374656420434D31313036006771
:1030A2006F6F6400434D31313036207265616420A8
:1030B2004F4B00507265686561743A200048454183
:1030C20054005374617274206D6561737572656D1D
:1030D200656E747300434F322D00434F3228707077
:1030E2006D293A20004552524F5220434F323D3013
:1030F2000053746172742063616C696272617469F5
:103102006F6E2070726F636573733A2033303020B4
:103112007365636F6E6473206F6620343030207085
:10312200706D20737461626C650043414C2D0052D6
:103132006573657474696E6720666F726365642077
:1031420063616C6962726174696F6E206661637437
:103152006F7220746F203430303A200042757474DC
:103162006F6E2043414C494220686173206265655D
:103172006E20707265737365642C20686F6C6420B6
:103182003573206D6F726520746F20737461727471
:103192002063616C6962726174696F6E00526F754F
:1031A20074696E652042454550004E657720426540
:1031B20065702056616C75653A20006E6F206368F9
:1031C200616E676520696E20424545502076616CCC
:1031D200756500427574746F6E20424545502068D3
:1031E2006173206265656E20707265737365642C0D
:1031F20020686F6C64203573206D6F726520746F68
:103202002073746172742042454550206C65766566
:103212006C206368616E676520726F7574696E6594
:103222000057616974696E6720666F72206E6577F8
:06323200206461746100DC
:00000001FF
