:100000000C9494000C94BC000C94BC000C94B60AA4
:100010000C94B60A0C94B60A0C94BC000C94B80963
:100020000C94BC000C94BC000C94BC000C94BC0060
:100030000C94BC000C94BC000C94BC000C94BC0050
:100040000C946C0A0C94BC000C943A0A0C94140A9C
:100050000C94BC000C94BC000C94BC000C94BC0030
:100060000C94BC000C94BC00000622766D247F200A
:10007000390F5C50104008063F065B4F666D7D07E8
:100080007F6F303058484C535F777F395E79713DD0
:1000900076060E753815373F7367336D783E1C2A28
:1000A000766E5B39300F1308105F7C585E7B716F82
:1000B00074040C753015545C7367506D781C1C2AE1
:1000C00076665B79064F40000000000024002700A0
:1000D0002A000000000800020100000304070000DD
:1000E000000000000000020000000023002600299C
:1000F0000000000000250028002B00040404040474
:1001000004040402020202020203030303030301C4
:10011000020408102040800102040810200102049B
:10012000081020002E0B341111241FBECFEFD8E091
:10013000DEBFCDBF24E0A4E9B3E001C01D92AC3D19
:10014000B207E1F713E0A0E0B1E0ECE2F8E202C0B0
:1001500005900D92A439B107D9F710E0C3E9D0E0BA
:1001600004C02197FE010E941112C239D107C9F7BC
:100170000E94160C0C9409140C940000AF92BF92CC
:10018000CF92DF92EF92FF920F931F93CF93DF9363
:100190006C017B018B01040F151FEB015E01AE1892
:1001A000BF08C017D10759F06991D601ED91FC91B4
:1001B0000190F081E02DC6010995892B79F7C501E1
:1001C000DF91CF911F910F91FF90EF90DF90CF9033
:1001D000BF90AF900895FC01538D448D252F30E0E2
:1001E000842F90E0821B930B541710F0CF96089544
:1001F00001970895FC01918D828D981761F0A28D71
:10020000AE0FBF2FB11D5D968C91928D9F5F9F7336
:10021000928F90E008958FEF9FEF0895FC01918DEC
:10022000828D981731F0828DE80FF11D858D90E059
:1002300008958FEF9FEF0895FC01918D228D892FF6
:1002400090E0805C9F4F821B91098F7399270895DE
:100250008BE094E00E941C0121E0892B09F420E04E
:10026000822F089580E090E0892B29F00E942801D8
:1002700081110C9400000895FC01A48DA80FB92FE2
:10028000B11DA35ABF4F2C91848D90E001968F73BE
:100290009927848FA689B7892C93A089B1898C91DD
:1002A000837080648C93938D848D981306C002882C
:1002B000F389E02D80818F7D80830895EF92FF92F6
:1002C0000F931F93CF93DF93EC0181E0888F9B8D79
:1002D0008C8D98131AC0E889F989808185FF15C033
:1002E0009FB7F894EE89FF896083E889F989808156
:1002F0008370806480839FBF81E090E0DF91CF9125
:100300001F910F91FF90EF900895F62E0B8D10E046
:100310000F5F1F4F0F731127E02E8C8D8E110CC0B5
:100320000FB607FCFACFE889F989808185FFF5CF00
:10033000CE010E943C01F1CFEB8DEC0FFD2FF11DA2
:10034000E35AFF4FF0829FB7F8940B8FEA89FB893D
:1003500080818062CFCFCF93DF93EC01888D88239B
:10036000B9F0AA89BB89E889F9898C9185FD03C018
:10037000808186FD0DC00FB607FCF7CF8C9185FFFD
:10038000F2CF808185FFEDCFCE010E943C01E9CF05
:10039000DF91CF910895833081F028F4813099F076
:1003A0008230A9F008958730A9F08830C9F08430F0
:1003B000B1F4809180008F7D03C0809180008F77A1
:1003C00080938000089584B58F7784BD089584B5A7
:1003D0008F7DFBCF8091B0008F778093B000089520
:1003E0008091B0008F7DF9CFCF93DF93282F30E03D
:1003F000F901EE52FF4F8491F901E15FFE4FD49174
:10040000F901E550FF4FC491CC23A1F081110E9466
:10041000CB01EC2FF0E0EE0FFF1FE951FF4FA5914C
:10042000B491EC91ED2381E090E009F480E0DF915C
:10043000CF91089580E090E0FACF1F93CF93DF93A0
:10044000282F30E0F901EE52FF4F8491F901E15F6E
:10045000FE4FD491F901E550FF4FC491CC23A9F090
:10046000162F81110E94CB01EC2FF0E0EE0FFF1F41
:10047000EF50FF4FA591B4918FB7F894EC91111103
:1004800008C0D095DE23DC938FBFDF91CF911F9101
:100490000895DE2BF8CF9091000189130BC0E6EE92
:1004A000F0E0E4919FEF90930001E13049F028F0F3
:1004B000E23061F060E00C941D0210926E00FACF01
:1004C00090916F009D7F90936F00F4CF909170009A
:1004D0009D7F9093700091E09093B0009091B10057
:1004E000987F94609093B1001092B300E3CFCF93C4
:1004F000DF9390E0FC01E15FFE4F249185509F4F18
:10050000FC0184918823C9F090E0880F991FFC01B9
:10051000E853FF4FA591B491FC01EF50FF4FC591F7
:10052000D49161110DC09FB7F8948C9120958223CE
:100530008C938881282328839FBFDF91CF910895D2
:10054000623051F49FB7F8943C91822F80958323B9
:100550008C93E8812E2BEFCF8FB7F894EC912E2B54
:100560002C938FBFEACF3FB7F8948091E10390912D
:10057000E203A091E303B091E40326B5A89B05C074
:100580002F3F19F00196A11DB11D3FBFBA2FA92F12
:10059000982F8827BC01CD01620F711D811D911D0F
:1005A00042E0660F771F881F991F4A95D1F708957B
:1005B0008F929F92AF92BF92CF92DF92EF92FF9273
:1005C0006B017C010E94B3024B015C01C114D10498
:1005D000E104F104B9F00E94B302681979098A09AB
:1005E0009B09683E73408105910580F321E0C21AA2
:1005F000D108E108F10888EE880E83E0981EA11C5E
:10060000B11CE4CFFF90EF90DF90CF90BF90AF9000
:100610009F908F9008952FB7F8946091DD037091AB
:10062000DE038091DF039091E0032FBF0895CF9305
:10063000DF93EBE2F0E0883040F098EF980FE8E2CB
:10064000F0E0963010F4E5E2F0E0908142EF480FE0
:100650008E3010F4482F477021E030E001C0220FA7
:100660004A95EAF7322F309593239083AAE2B0E0BF
:10067000683040F098EF960FA7E2B0E0963010F4A3
:10068000A4E2B0E09C9122EF260F6E3010F4262FEA
:10069000277041E050E001C0440F2A95EAF74095E9
:1006A00049234C93CBE2D0E0683040F098EF960FAE
:1006B000C8E2D0E0963010F4C5E2D0E0288191E0A5
:1006C00042EF460F6E3010F4462F477001C0990F6D
:1006D0004A95EAF7292B2883CFE0D0E02197F1F75C
:1006E000C9E2D0E0683038F06850C6E2D0E0663049
:1006F00010F4C3E2D0E02881292361E009F060E032
:1007000050818E30B0F08E5021E001C0220F8A95CA
:10071000EAF7252B2083CFE0D0E02197F1F7208165
:10072000322330832C91922B9C93862FDF91CF9193
:1007300008958770E9CFCF93DF93EBE2F0E0883044
:1007400040F098EF980FE8E2F0E0963010F4E5E220
:10075000F0E0908142EF480F8E3010F4482F477040
:1007600021E030E001C0220F4A95EAF720952923C5
:100770002083AFE0B0E01197F1F7ABE2B0E0683072
:1007800040F098EF960FA8E2B0E0963010F4A5E2A2
:10079000B0E09C9142EF460F6E3010F4462F477048
:1007A00021E030E001C0220F4A95EAF72095292385
:1007B0002C93CFE0D0E02197F1F720818E30D8F054
:1007C00092EF980F81E001C0880F9A95EAF7822B8B
:1007D00080838FE090E00197F1F79C916E3098F064
:1007E0006E5081E001C0880F6A95EAF7892B8C93DF
:1007F000DF91CF910895877091E001C0990F8A959C
:10080000EAF7892FE4CF6770ECCFEBE2F0E06830D5
:1008100040F098EF960FE8E2F0E0963010F4E5E251
:10082000F0E0208191E032EF360F6E3010F4362F79
:10083000377001C0990F3A95EAF7922B9083ABE29B
:10084000B0E0883040F098EF980FA8E2B0E0963022
:1008500010F4A5E2B0E02C918E30D8F08E5091E0EB
:1008600001C0990F8A95EAF7892F822B8C938FE02C
:1008700090E00197F1F720816E3068F06E5081E0D2
:1008800090E001C0880F6A95EAF780958223808303
:1008900008958770E4CF6770F2CFBF92CF92DF9256
:1008A000EF92FF920F931F93CF93DF93982F977040
:1008B00021E030E0D90101C0AA0F9A95EAF792EF42
:1008C000980F01C0220F9A95EAF7FA2E8E3008F0A1
:1008D000F22EF094962F9770E1E0F0E0EF0101C066
:1008E000CC0F9A95EAF792EF960F01C0EE0F9A950A
:1008F000EAF7EC2E6E3008F0EE2EE094DC2EBC2EE3
:100900006E3008F0BE2ECA2E8E3008F42A2F58E022
:1009100098EF980F38EF360FCFE0D0E0ABE2B0E0C1
:10092000883030F0A5E2B0E0963010F0A8E2B0E0F8
:100930007C917F21ABE2B0E0883030F0A5E2B0E0FE
:10094000963010F0A8E2B0E07C93A42FB0E040FF16
:100950004AC00BE210E0683030F005E210E03630BB
:1009600010F008E210E0F80140817D2D0BE210E06C
:10097000683038F07B2D05E210E0363010F008E2E8
:1009800010E0472BF8014083FE013197F1F7B59550
:10099000A7954A2FABE2B0E0883030F0A5E2B0E096
:1009A000963010F0A8E2B0E07C91FC2DABE2B0E014
:1009B000883038F0F22FA5E2B0E0963010F0A8E2CF
:1009C000B0E07F2B7C93DE011197F1F7515009F0D5
:1009D000A5CFDF91CF911F910F91FF90EF90DF9006
:1009E000CF90BF9008950BE210E0683030F005E240
:1009F00010E0363010F008E210E0F80140814E219E
:100A00000BE210E0683008F4BDCF05E210E03630AC
:100A100008F4B8CF08E210E0B5CF1F93CF93DF936F
:100A2000C82FD62F142F0E940504412F6D2F8C2F15
:100A30000E944D046D2F8C2F0E941703182F6D2FCD
:100A40008C2F0E949B03812FDF91CF911F910895DE
:100A500008952091E7033091E8032817390771F4CE
:100A60009091E5038091E603981741F0E091E5034A
:100A7000F0E0E456FC4F808190E008958FEF9FEF07
:100A800008950895EF92FF920F931F93CF93DF93F2
:100A9000DC015C96ED90FC905D97E114F10479F433
:100AA00081E090E013969C938E93129790E080E003
:100AB000DF91CF911F910F91FF90EF900895519684
:100AC000ED91FC91529750968C915097982F90955C
:100AD0000FB75E962C915E97122F127021FD6095D4
:100AE000F8942081112319F1282B2083E701219705
:100AF000F1F728E0462F50E0308160FF1AC0382B14
:100B00003083E7012197F1F7BA0175956795215078
:100B100089F7112381F08081892380830FBF5C9640
:100B20008D919C910197F1F781E090E0C1CF29234D
:100B3000DCCF3923E5CF9081892BEFCF2091E703DC
:100B40003091E8032817390771F48091E60320916A
:100B5000E50390E0805C9F4F821B910960E470E0A8
:100B60000E94C711089590E080E008952091E70366
:100B70003091E80328173907B9F49091E503809183
:100B8000E603981789F0E091E503F0E0E456FC4FA6
:100B900080812091E50330E02F5F3F4F2F73332793
:100BA0002093E50390E008958FEF9FEF08958F92D3
:100BB0009F92AF92BF92EF92FF920F931F93CF93AA
:100BC000DF937B018C01D0E0C0E00E940B036093B7
:100BD000B0047093B1048093B2049093B30488EA94
:100BE00094E00E94B60597FF27C00E940B038090F7
:100BF000B0049090B104A090B204B090B30468190E
:100C000079098A099B098090AC049090AD04A0906A
:100C1000AE04B090AF04681579058A059B05F8F21B
:100C2000CE01DF91CF911F910F91FF90EF90BF9078
:100C3000AF909F908F900895F80181938F01219636
:100C4000EC16FD0611F6ECCF90E080E00895FB0174
:100C500001900020E9F73197AF01461B570BDC01EB
:100C6000ED91FC910280F381E02D09948F929F9287
:100C7000AF92BF92EF92FF920F931F93CF93DF93A8
:100C8000CDB7DEB7A1970FB6F894DEBF0FBECDBFCC
:100C90007C01FA01CB0119A2223008F42AE08E016E
:100CA0000F5D1F4F822E912CB12CA12CBF01A501ED
:100CB00094010E94DB11F901CA016A300CF5605DF4
:100CC000D8016E938D01232B242B252B79F790E0EF
:100CD00080E0109721F0BD01C7010E942706A19670
:100CE0000FB6F894DEBF0FBECDBFDF91CF911F913D
:100CF0000F91FF90EF90BF90AF909F908F900895CD
:100D0000695CDECFCF92DF92EF92FF920F931F9339
:100D1000CF93DF9377FF21C06A017B01EC01E8816B
:100D2000F9810190F081E02D6DE209958C01442755
:100D30005527BA014C195D096E097F092AE0CE01D9
:100D40000E943606800F911FDF91CF911F910F9166
:100D5000FF90EF90DF90CF9008952AE0DF91CF9140
:100D60001F910F91FF90EF90DF90CF900C9436067B
:100D7000CF93DF93AC0170E060E02AE08BE094E079
:100D80000E943606EC0163E571E08BE094E00E947E
:100D900027068C0F9D1FDF91CF910895CF93DF938E
:100DA000BC018BE094E00E942706EC0163E571E052
:100DB0008BE094E00E9427068C0F9D1FDF91CF915E
:100DC00008950C9427060F931F93CF93DF93EC01A4
:100DD00088819981009759F02A813B81261737072E
:100DE00030F081E0DF91CF911F910F9108958B0139
:100DF0006F5F7F4F0E943C13009759F0998388835F
:100E00001B830A832C813D81232B59F7FC0110821F
:100E1000E8CF80E0E7CFEF92FF920F931F93CF933D
:100E2000DF93EC017B018A01BA010E94E30628816D
:100E30003981811114C02115310519F0C9010E94B1
:100E4000B312198218821D821C821B821A82CE0163
:100E5000DF91CF911F910F91FF90EF9008951D8327
:100E60000C83B701C9010E940214F1CF8F929F92A7
:100E7000AF92BF92DF92EF92FF920F931F93CF93A7
:100E8000DF9300D000D01F92CDB7DEB77C015B01AD
:100E90008A01D22EFC0186819A012D0D311D821707
:100EA000130608F458C0CE0101964C0185E0F40108
:100EB00011928A95E9F78D2D8770806C8983CE0118
:100EC00002960E94F913F1E0FD1568F0F701948590
:100ED000D11024C00230110508F18B819923E1F073
:100EE00090E8892B8B830F5FF701D58014816D2DDE
:100EF000812F0E94050474018E2D88198017B8F483
:100F0000F70141917F016D2D812F0E944D046D2DC0
:100F1000812F0E941703F0CF90E0E3CF8A819923BD
:100F200021F090E8892B8A83DECF90E0FBCF6D2DF6
:100F3000812F0F900F900F900F900F90DF91CF9116
:100F40001F910F91FF90EF90DF90BF90AF909F9017
:100F50008F900C949B03182F1D19412F50E02D2DBD
:100F6000C7010E943607F7016285738590E080E033
:100F70000E94D8020D5F011B11E0F70146810417A2
:100F800090F050E0B501610F711D20E0C7010E9493
:100F90003607F7016285738590E080E00E94D802F1
:100FA00001501F5FEACF0F900F900F900F900F909E
:100FB000DF91CF911F910F91FF90EF90DF90BF9045
:100FC000AF909F908F9008950F931F93CF93DF93CF
:100FD00000D000D0CDB7DEB78C0119821A821B82F7
:100FE0001C8220E044E050E0BE016F5F7F4F0E9412
:100FF0003607F80111860F900F900F900F90DF9138
:10100000CF911F910F910895E7E0F4E09C012C5FD0
:101010003F4FDC015D91CD014191541317C0A217E0
:10102000B307B9F786E591E00E94CE066AE070E06A
:1010300080E090E00E94D80287EC94E00E94E407F0
:1010400066E571E087EC94E00C94E1068BE591E0B5
:101050000E94CE0687EC94E00E94E4076AE070E00C
:1010600080E090E00E94D80262E671E0EBCF1F932F
:10107000CF93DF9397FD29C011E0CFE0D7E2803115
:1010800027E292073CF4EC01C9318CEFD80714F445
:10109000C9E1DCEF87EC94E00E94E407111117C06E
:1010A000D195C195D10963E472E087EC94E00E9488
:1010B000E10681E0C436D1052CF482E0CA30D105C6
:1010C0000CF483E08093D00408C010E0DCCFC83E6D
:1010D00023E0D20774F31092D004AE01DD0F660B4B
:1010E000770B87EC94E0DF91CF911F910C948206EF
:1010F0008091FC038F3F11F41092FC038091FC035C
:1011000024E6829FC00111249C0128513C4F2937BD
:1011100045E0340734F5309304042093030467E674
:1011200071E08BE094E00E94E106809103049091CD
:1011300004040E94B80687EC94E00E94E40760E192
:1011400073E087EC94E00E94E10668EE73E080E0D3
:1011500090E00E94D80280910304909104040C94C2
:10116000370888539F4F9093040480930304D7CF8C
:101170000F931F93CF93DF93CDB7DEB7C058D1093C
:101180000FB6F894DEBF0FBECDBF362F272F8A01D2
:101190004138510510F000E810E0BE016F5F7F4F4D
:1011A000A32FB22F9B01A901461B570B40175107D4
:1011B00070F4ED9140E0E03234F00E2E000CFF0BA5
:1011C000E85BFF4F4491F90141939F01ECCFFC0193
:1011D0002185A8010E943607C801C058DF4F0FB60D
:1011E000F894DEBF0FBECDBFDF91CF911F910F915D
:1011F0000895EF92FF921F93CF93DF93EC01162F88
:1012000089859E81F12CE12C891326C0BE01635F84
:101210007F4F262FFB019E2F921B981718F4918168
:101220009193F9CF898590E0E0E010323CF0E12F16
:10123000012E000CFF0BE85BFF4FE4918C0F9D1F0C
:10124000DC011D96EC934E8150E020E0CE010E941F
:101250003607EE24E394F12C49858E81481708F572
:1012600050E0E0E0103234F0E12F110FFF0BE85BAB
:10127000FF4FE491DE01A40FB51F1D96EC934F5F65
:101280005F4F20E0BE01635F7F4FCE010E943607B3
:1012900089858F5F843008F083E08987BFEFEB1A80
:1012A000FB0AC701DF91CF911F91FF90EF90089546
:1012B000E4E9F3E088E0DF011D928A95E9F744E074
:1012C00050E067E071E088EA94E00E94BE0068E0C8
:1012D00070E084E993E00E94D70580919703282F5E
:1012E00030E0322F222780919803820F932F911D97
:1012F0009093060480930504009721F1E4E9F3E05C
:1013000050E040E02191420F511DB3E0EB39FB0763
:10131000C9F720919403263149F450919B0320E0B2
:1013200031E0241B31095217130609F188EA94E0D1
:101330000E949E0518161906C4F488EA94E00E94DB
:10134000B605F4CF84E791E00E94CE0687EC94E0E6
:101350000E94E40762E671E087EC94E00E94E106F7
:101360008091050490910604089590E080E008952E
:101370001F920F920FB60F9211242F933F934F930A
:101380005F936F937F938F939F93AF93BF93EF93ED
:10139000FF938091F0039091F103A091F203B0913B
:1013A000F303892B8A2B8B2BD1F19091EB03E091E6
:1013B000EC03F091ED038081892780838091F00315
:1013C0009091F103A091F203B091F303181619065E
:1013D0001A061B069CF48091F0039091F103A091F2
:1013E000F203B091F3030197A109B1098093F003CF
:1013F0009093F103A093F203B093F303FF91EF9165
:10140000BF91AF919F918F917F916F915F914F911C
:101410003F912F910F900FBE0F901F9018958091C4
:1014200000010E944B02EACF1F920F920FB60F925B
:1014300011242F933F934F935F936F937F938F93D9
:101440009F93AF93BF93EF93FF938BE094E00E9441
:101450003C01FF91EF91BF91AF919F918F917F914F
:101460006F915F914F913F912F910F900FBE0F9011
:101470001F9018951F920F920FB60F9211242F9361
:101480008F939F93EF93FF93E0911B04F0911C04C3
:101490008081E0912104F091220482FD1BC09081A3
:1014A000809124048F5F8F7320912504821741F06F
:1014B000E0912404F0E0E55FFB4F958F80932404D6
:1014C000FF91EF919F918F912F910F900FBE0F90F1
:1014D0001F9018958081F4CF1F920F920FB60F9234
:1014E00011242F933F938F939F93AF93BF9380913A
:1014F000DD039091DE03A091DF03B091E003309112
:10150000DC0323E0230F2D3758F50196A11DB11DF3
:101510002093DC038093DD039093DE03A093DF032D
:10152000B093E0038091E1039091E203A091E30383
:10153000B091E4030196A11DB11D8093E103909346
:10154000E203A093E303B093E403BF91AF919F91B3
:101550008F913F912F910F900FBE0F901F90189574
:1015600026E8230F0296A11DB11DD2CF1F920F9224
:101570000FB60F9211242F933F934F935F936F9366
:101580007F938F939F93AF93BF93EF93FF93E091DC
:10159000E703F091E803309749F0A685B785858584
:1015A000968D91FF14C09C918923A1F4FF91EF9136
:1015B000BF91AF919F918F917F916F915F914F916B
:1015C0003F912F910F900FBE0F901F9018959C91F7
:1015D000892361F7A389B4899C91858980958923A2
:1015E0008C93868997890197F1F7608D718DA68517
:1015F000B785558538E020E0CB010197F1F7822FC0
:1016000090E095958795282F4C91452309F0206807
:10161000315091F7868D81FD20958091E60390E011
:1016200001968F7399273091E503381799F0A091AF
:10163000E603B0E0A456BC4F2C938093E603828D62
:10164000938D0197F1F7A389B4898C919589892BA2
:101650008C93ACCF868D8160868FF1CF10920E0473
:1016600010920D0488EE93E0A0E0B0E080930F04A8
:1016700090931004A0931104B093120487E291E0B8
:1016800090930C0480930B0485EC90E090931804E5
:101690008093170484EC90E090931A0480931904CB
:1016A00080EC90E090931C0480931B0481EC90E00C
:1016B00090931E0480931D0482EC90E0909320048C
:1016C00080931F0486EC90E0909322048093210481
:1016D00010922404109225041092260410922704DC
:1016E0001092CA041092C9048BE491E09093C8044C
:1016F0008093C70489E08093CB0488E08093CC0476
:10170000219A209A299AE5E2F0E080818160808325
:101710001092D0048CE291E09093D2048093D10493
:101720001092D30484E68093CF044FE86091CC04F8
:101730008091CB040E940D0540E46091CC0480911F
:10174000CB040E940D058BE491E09093C804809334
:10175000C7041092AB041092AA0488EE93E0A0E0B4
:10176000B0E08093AC049093AD04A093AE04B0932A
:10177000AF0489E391E09093A9048093A8041092A8
:10178000BF041092BE041092C1041092C0041092C3
:10179000C3041092C2041092C5041092C404609154
:1017A000C6046E7F6D7F6093C6046695617081E0AC
:1017B000682786E00E941D0261E086E00E947702B1
:1017C000E5E1F1E0E491E093B804E1E0F1E0E491D7
:1017D000F0E0EE0FFF1FEF50FF4F85919491909333
:1017E000BA048093B90460E087E00E947702809198
:1017F000C60481FD04C061E087E00E941D0287E00D
:101800008093B404E6E1F1E0E491E093B504E2E012
:10181000F1E0E491F0E0EE0FFF1FE951FF4F8591F9
:1018200094919093B7048093B6040895CF93DF9377
:10183000CDB7DEB767970FB6F894DEBF0FBECDBF4A
:10184000789484B5826084BD84B5816084BD85B59B
:10185000826085BD85B5816085BD80916E008160A7
:1018600080936E001092810080918100826080934D
:10187000810080918100816080938100809180004F
:101880008160809380008091B10084608093B1007A
:101890008091B00081608093B00080917A00846074
:1018A00080937A0080917A00826080937A008091A0
:1018B0007A00816080937A0080917A0080688093BA
:1018C0007A001092C10062E082E00E94770262E03A
:1018D00081E10E94770261E084E00E94770260E08B
:1018E00084E00E941D0261E083E10E94770260E0D3
:1018F00083E10E941D02E0911B04F0911C0482E030
:101900008083E0911704F09118041082E09119048B
:10191000F0911A0480E1808310922304E0911F0467
:10192000F091200486E08083E0911D04F0911E0474
:10193000808180618083E0911D04F0911E0480818C
:1019400088608083E0911D04F0911E04808180688E
:101950008083E0911D04F0911E0480818F7D80833F
:1019600089E791E00E94CE061092C3041092C2044F
:101970001092C1041092C0041092BF041092BE04D1
:101980008DE991E09093C5048093C4049091B404D0
:10199000963108F047C02DEB30E03093BF04209320
:1019A000BE042BE931E03093C1042093C0042CE243
:1019B00031E03093C3042093C2042091680084E096
:1019C000983048F031E09E3008F430E081E001C00A
:1019D000880F3A95EAF7822B809368002DE630E075
:1019E000983050F02BE630E09E3030F02CE630E0BE
:1019F000963110F030E020E03093BC042093BB041B
:101A0000292F30E0983008F012C181E001C0880F22
:101A10009A95EAF78093BD048091C4049091C5041F
:101A20000197F1F78091C2049091C304892B49F189
:101A3000E091E703F091E80384E0E83AF80709F160
:101A4000309739F0A389B4899C9185898095892341
:101A50008C938091C6048E7F8093C6041092E60317
:101A60001092E50388EA94E09093E8038093E703FB
:101A7000E091BB04F091BC0480819091BD04892B5E
:101A8000808384E08093CD0481E08093CE0487EC52
:101A900094E00E94E40784E68093CF044FE86091CD
:101AA000CC048091CB040E940D0568EE73E080E0C9
:101AB00090E00E94D80290E080E00E947A1180932A
:101AC000FC030E9478086CED75E080E090E00E94D5
:101AD000D8024AE050E06FE071E088EA94E00E94AA
:101AE000BE0064E070E087E094E00E94D7056EE8F5
:101AF00071E08BE094E00E94E1068BE091E00E94AF
:101B0000040864E670E080E090E00E94D8028E0154
:101B10000F5F1F4F0E9458092091E9033091EA039B
:101B2000892B09F09EC02530310508F09AC01B8A28
:101B30001A8A1D8A1C8A1F8A1E8A4AE0B801C901B6
:101B40000E945011F80101900020E9F73197AF0190
:101B5000401B510BB801CE0142960E940B071A821E
:101B600019821C821B821E821D8245E350E06CEAB2
:101B700071E0C8010E940B07CA88DB88C114D10438
:101B800009F462C0EE88FF88E114F104B1F08D81A0
:101B90009E81E80EF91EB701C8010E94E306882362
:101BA00009F452C029813A818D819E81B601820F4C
:101BB000931F0E940214FE82ED824D815E81698135
:101BC0007A818BE094E00E94BE0063E571E08BE0D7
:101BD00094E00E94270689819A81009711F00E9463
:101BE000B3128A899B89009711F00E94B31287EC87
:101BF00094E00E94E40764E170E080E090E00E94DD
:101C0000D80262EE71E087EC94E00E94E10664EC99
:101C100079E080E090E00E94D8028091E903909101
:101C2000EA0301969093EA038093E90373CF9E3011
:101C300040F42850310981E001C0880F2A95EAF765
:101C4000E9CE2E503109F7CF89819A81009711F0A2
:101C50000E94B3121A8219821E821D821C821B826C
:101C6000ACCF25303105A9F460ED77E080E090E05D
:101C70000E94D80286EE91E00E94CE0688E19AE0AA
:101C80000FB6F894A895809360000FBE9093600003
:101C9000FFCF8FEE91E00E94CE0687EC94E00E9489
:101CA000E4076AE070E080E090E00E94D8026AE019
:101CB00072E087EC94E00E94E1068FE092E00E94DF
:101CC000CE0660EA7FE080E090E00E94D80287ECD8
:101CD00094E00E94E4076EE172E08BE094E00E94E1
:101CE000E1066EE1C62ED12CE12CF12C87EC94E0BC
:101CF0000E94E40768E272E087EC94E00E94E1064B
:101D000068EE73E080E090E00E94D80287EC94E0F7
:101D10000E94E407C6010E943708B701A6018BE0C4
:101D200094E00E94820663E571E08BE094E00E94FB
:101D3000270668EE73E080E090E00E94D80292E00F
:101D4000C91AD108E108F108EEEFCE16EFEFDE0672
:101D5000EE06FE0659F68DE292E00E94CE0687EC72
:101D600094E00E94E40760E472E087EC94E00E9453
:101D7000E10668E873E180E090E00E94D80246E066
:101D8000242E41E0342E88248A94982C54010E94F9
:101D900058099093060480930504892B09F443C0E5
:101DA00065E472E08BE094E00E94E1068091050416
:101DB000909106040E94B80687EC94E00E94E40724
:101DC0006AE070E080E090E00E94D8028091050413
:101DD000909106040E943708209105043091060472
:101DE00080910304909104042817390708F4D1C0A6
:101DF000809100018B3011F5E6EEF0E0149117FDB3
:101E0000BFC061E08BE00E947702112309F488C013
:101E1000123009F099C08091B100887F846080936E
:101E2000B10089E861C180E592E00E94CE066AE0D7
:101E300070E080E090E00E94D802CECF8F3F09F0A2
:101E40009FC08BE080930001E6EEF0E014911F3F0D
:101E500009F496C0113021F150F0123009F43EC05F
:101E600017FD8EC061E08BE00E947702D1CF14BCD9
:101E700015BC84B5826084BD85B5816085BDF101E6
:101E80008491E82FF0E0EE0FFF1FEF50FF4F859198
:101E90009491EAE1F1E084918093EF0310E0B1CFF7
:101EA0001092800010928100809181008860809360
:101EB000810080918100816080938100F101849193
:101EC000E82FF0E0EE0FFF1FEF50FF4F8591949148
:101ED000EAE1F1E084918093EE0393CF1092B00099
:101EE0001092B1008091B00082608093B000809128
:101EF000B10081608093B100F1018491E82FF0E09E
:101F0000EE0FFF1FEF50FF4F859194919093ED03DB
:101F10008093EC03EAE1F1E084918093EB0371CFCD
:101F200085B5887F836085BD89E887BD8092F80389
:101F30009092F903A092FA03B092FB0380916E0095
:101F4000826080936E001CC0113009F0C6C0809181
:101F50008100887F81608093810087EB92E290937B
:101F60008900809388008092F4039092F503A092F8
:101F7000F603B092F70380916F00826080936F0048
:101F80006AE471E080E090E00E94D8028BE00E9459
:101F90004B020E940B032B013C0182E00E94F401E2
:101FA000892B09F097C080910204882309F4ACC002
:101FB0008091FE039091FF03A0910004B091010471
:101FC00088579C4EAF4FBF4F84159505A605B705A2
:101FD00008F0ABC087EC94E00E94E40764E670E090
:101FE00080E090E00E94D8028CE592E00E94CE064C
:101FF0008CE2C82EDD24D394E12CF12C87EC94E004
:102000000E94E40765E972E087EC94E00E94E10633
:1020100068EE73E080E090E00E94D802B701A6016C
:102020008BE094E00E94820660EE71E08BE094E029
:102030000E94E1060E9458099093060480930504CB
:1020400065E472E08BE094E00E94E1068091050473
:10205000909106040E94B80687EC94E00E94E40781
:10206000C6010E94370868EE73E080E090E00E94AD
:10207000D80292E0C91AD108E108F108EEEFCE16B5
:10208000EFEFDE06EE06FE0609F0B8CF64E670E07C
:1020900080E090E00E94D8026AE972E08BE094E070
:1020A0000E94E10646E050E06DE171E088EA94E0CC
:1020B0000E94BE0064E070E087E094E00E94D705D3
:1020C00089E191E00E94040860EA7FE080E090E00E
:1020D0000E94D8021092020428C0123021F011117F
:1020E0004FCF87EB22CF87EB8093B3008092F00332
:1020F0009092F103A092F203B092F30380917000EA
:102100008260809370003CCF0E940B036093FE03BB
:102110007093FF03809300049093010481E0809307
:10212000020487EC92E00E94CE0681E10E94F40155
:10213000892B09F096C08091FD03882309F481C0A2
:102140008091FE039091FF03A0910004B0910104DF
:1021500088579C4EAF4FBF4F84159505A605B70510
:1021600008F053C088E093E00E94CE060E947808F1
:1021700082E00E94F401019749F56AE070E080E096
:1021800090E00E94D80281E10E94F401892B81F73E
:1021900062E370E080E090E00E94D80281E10E945A
:1021A000F401892B29F78091FC038F5F883058F464
:1021B0008093FC030E94780868EC70E080E090E077
:1021C0000E94D802D5CF1092FC03F4CF62E370E0F6
:1021D00080E090E00E94D80282E00E94F401892B06
:1021E00059F56091FC0390E080E00E94821110920A
:1021F000FD0365E173E08BE094E00E94E1068091CD
:102200000304909104040E94B8068EE793E00E94B4
:10221000CE0660ED77E080E090E00E94D80280E09A
:1022200090E0892B09F4B3CD0E942801882309F49A
:10223000AECD0E940000ABCD86E293E00E94CE06B8
:10224000E4CF0E940B036093FE037093FF0380931F
:1022500000049093010481E08093FD038EE393E0FA
:10226000EDCF1092FD03D1CF89E391E09093A904C3
:102270008093A8048091E7039091E803885A9440E2
:1022800071F4E091BB04F091BC0490818091BD0495
:102290008095892380831092E8031092E7030895C4
:1022A000BB27FB015527AA27880F991FAA1FA41730
:1022B00010F0A41B83955051B9F7A05DAA3308F024
:1022C000A95DA193009779F7B111B1931192CB0158
:1022D0000C946A11DC01FC01672F71917723E1F7FF
:1022E000329704C07C916D9370836291AE17BF07E3
:1022F000C8F30895F999FECF92BD81BDF89A992748
:1023000080B50895262FF999FECF1FBA92BD81BDE1
:1023100020BD0FB6F894FA9AF99A0FBE0196089567
:102320002F923F924F925F926F927F928F929F92E5
:10233000AF92BF92CF92DF92EF92FF920F931F93D3
:10234000CF93DF93CDB7DEB7CA1BDB0B0FB6F89484
:10235000DEBF0FBECDBF09942A88398848885F84C4
:102360006E847D848C849B84AA84B984C884DF8035
:10237000EE80FD800C811B81AA81B981CE0FD11D19
:102380000FB6F894DEBF0FBECDBFED01089597FBE9
:10239000072E16F4009407D077FD09D00E94FD1196
:1023A00007FC05D03EF4909581959F4F0895709558
:1023B00061957F4F0895A1E21A2EAA1BBB1BFD0158
:1023C0000DC0AA1FBB1FEE1FFF1FA217B307E40714
:1023D000F50720F0A21BB30BE40BF50B661F771F6C
:1023E000881F991F1A9469F760957095809590954C
:1023F0009B01AC01BD01CF010895AA1BBB1B51E19C
:1024000007C0AA1FBB1FA617B70710F0A61BB70B64
:10241000881F991F5A95A9F780959095BC01CD0109
:102420000895EE0FFF1F0590F491E02D09940F938E
:102430001F93CF93DF938230910510F482E090E0F8
:10244000E091DA04F091DB0430E020E0B0E0A0E0BD
:10245000309799F42115310509F44AC0281B390B2E
:1024600024303105D8F58A819B816115710589F188
:10247000FB0193838283FE0111C04081518102815F
:10248000138148175907E0F04817590799F4109736
:1024900061F012960C93129713961C933296CF010B
:1024A000DF91CF911F910F9108950093DA0410935B
:1024B000DB04F4CF2115310551F04217530738F0F2
:1024C000A901DB019A01BD01DF01F801C1CFEF01D4
:1024D000F9CF9093DB048093DA04CDCFFE01E20FB5
:1024E000F31F819391932250310939832883D7CFE9
:1024F0002091D8043091D904232B41F42091030179
:10250000309104013093D9042093D8042091010123
:10251000309102012115310541F42DB73EB74091AC
:10252000050150910601241B350BE091D804F09170
:10253000D904E217F307A0F42E1B3F0B2817390725
:1025400078F0AC014E5F5F4F2417350748F04E0F0F
:102550005F1F5093D9044093D804819391939FCFE8
:10256000F0E0E0E09CCFCF93DF930097E9F0FC012F
:10257000329713821282A091DA04B091DB04ED014C
:1025800030E020E01097A1F420813181820F931F69
:102590002091D8043091D9042817390709F061C077
:1025A000F093D904E093D804DF91CF910895EA0124
:1025B000CE17DF07E8F54A815B819E014115510581
:1025C000B1F7E901FB83EA8349915991C40FD51F03
:1025D000EC17FD0761F4808191810296840F951FAD
:1025E000E90199838883828193819B838A83F0E0C8
:1025F000E0E012968D919C9113970097B9F52D917B
:102600003C911197CD010296820F931F2091D8041F
:102610003091D9042817390739F6309751F51092BF
:10262000DB041092DA04B093D904A093D804BCCF91
:10263000D383C28340815181840F951FC817D90766
:1026400061F44E5F5F4F88819981480F591F518314
:1026500040838A819B81938382832115310509F010
:10266000B0CFF093DB04E093DA049ECFFD01DC01F0
:10267000C0CF13821282D7CFB0E0A0E0E2E4F3E152
:102680000C9492118C01009751F4CB010E94171207
:102690008C01C801CDB7DEB7E0E10C94AE11FC01AE
:1026A000E60FF71F9C0122503109E217F30708F4E7
:1026B0009DC0D901CD91DC911197C617D70798F02D
:1026C000C530D10530F3CE0104978617970708F37C
:1026D000C61BD70B2297C193D1936D937C93CF01E7
:1026E0000E94B312D6CF5B01AC1ABD0A4C018C0E0E
:1026F0009D1EA091DA04B091DB04512C412CF12CE9
:10270000E12C109731F58091D8049091D904881567
:10271000990509F05CC04616570608F058C080912C
:10272000010190910201009741F48DB79EB740914D
:10273000050150910601841B950BE817F90708F075
:1027400055C0F093D904E093D804F90171836083F4
:10275000A0CF8D919C91119712966C901297139621
:102760007C901397A815B90559F56C0142E0C40E89
:10277000D11CCA14DB0420F1AC014A195B09DA014F
:102780001296159780F06282738251834083D9013B
:102790006D937C93E114F10471F0D7011396FC93CF
:1027A000EE93129776CF22968C0F9D1FF90191839D
:1027B0008083F301EFCFF093DB04E093DA0469CF79
:1027C0004816590608F42C017D01D3019ACFCB019C
:1027D0000E9417127C01009749F0AE01B8010E94D7
:1027E000F913C8010E94B312870153CF10E000E033
:1027F00050CFFB01DC0102C001900D9241505040CE
:10280000D8F70895FB01DC0101900D920020E1F75B
:10281000089510E0C3E9D0E004C0FE010E94111247
:0C2820002196C439D107C9F7F894FFCF06
:10282C00FF0000DC048000110101ED160110D9112C
:10283C00071064020701906476160103E611030386
:10284C00019058000000005E01BE00EB00AB011CC3
:10285C0001FA000E01000000004205BE00240641F2
:10286C00059E05B605290500000000F908B80824E6
:10287C000628050D0A00646F6E65006661696C655B
:10288C0064006661696C0042454550206C65766554
:10289C006C3A20004641494C0053746172742043D9
:1028AC004D31313036206C65637475726500434D63
:1028BC00313130362053746F70204175746F636101
:1028CC006C6962726174696F6E3A200041697220A2
:1028DC0073656E736F72206E6F74206465746563BC
:1028EC007465642E20506C65617365206368656344
:1028FC006B20776972696E672E2E2E2054727923A5
:10290C0020006261640052455345542E2E2E004126
:10291C0069722073656E736F72206465746563747D
:10292C00656420434D3131303600676F6F6400436E
:10293C004D313130362072656164204F4B0050723E
:10294C0065686561743A20004845415400537461D0
:10295C007274206D6561737572656D656E7473004C
:10296C00434F322D00434F322870706D293A2000AE
:10297C004552524F5220434F323D300053746172D6
:10298C00742063616C6962726174696F6E2070721D
:10299C006F636573733A20333030207365636F6EE9
:1029AC006473206F66203430302070706D20737427
:1029BC0061626C650043414C2D0052657365747403
:1029CC00696E6720666F726365642063616C69620F
:1029DC00726174696F6E20666163746F7220746FBC
:1029EC00203430303A2000427574746F6E204341AD
:1029FC004C494220686173206265656E2070726577
:102A0C00737365642C20686F6C64203573206D6F54
:102A1C00726520746F2073746172742063616C69C9
:102A2C0062726174696F6E00526F7574696E6520A5
:102A3C0042454550004E65772042656570205661D1
:102A4C006C75653A20006E6F206368616E67652057
:102A5C00696E20424545502076616C756500427563
:102A6C0074746F6E20424545502068617320626516
:102A7C00656E20707265737365642C20686F6C646E
:102A8C00203573206D6F726520746F2073746172C2
:102A9C00742063616C6962726174696F6E00576156
:102AAC006974696E6720666F72206E657720646149
:042ABC007461000041
:00000001FF
