:100000000C9494000C94BC000C94BC000C94AB0CAD
:100010000C94AB0C0C94AB0C0C94BC000C94AD0B7E
:100020000C94BC000C94BC000C94BC000C94BC0060
:100030000C94BC000C94BC000C94BC000C94BC0050
:100040000C94610C0C94BC000C942F0C0C94090CB7
:100050000C94BC000C94BC000C94BC000C94BC0030
:100060000C94BC000C94BC00000622766D247F200A
:10007000390F5C50104008063F065B4F666D7D07E8
:100080007F6F303058484C535F777F395E79713DD0
:1000900076060E753815373F7367336D783E1C2A28
:1000A000766E5B39300F1308105F7C585E7B716F82
:1000B00074040C753015545C7367506D781C1C2AE1
:1000C00076665B79064F40000000000024002700A0
:1000D0002A000000000800020100000304070000DD
:1000E000000000000000020000000023002600299C
:1000F0000000000000250028002B00040404040474
:1001000004040402020202020203030303030301C4
:10011000020408102040800102040810200102049B
:1001200008102000230DBE1311241FBECFEFD8E00E
:10013000DEBFCDBF26E0A0EDB4E001C01D92A53426
:10014000B207E1F714E0A0E0B1E0ECE0FEE202C0AB
:1001500005900D92A03DB107D9F710E0C3E9D0E0BA
:1001600004C02197FE010E940115C239D107C9F7C9
:100170000E94160E0C94F9160C940000AF92BF92D8
:10018000CF92DF92EF92FF920F931F93CF93DF9363
:100190006C017B018B01040F151FEB015E01AE1892
:1001A000BF08C017D10759F06991D601ED91FC91B4
:1001B0000190F081E02DC6010995892B79F7C501E1
:1001C000DF91CF911F910F91FF90EF90DF90CF9033
:1001D000BF90AF900895FC01538D448D252F30E0E2
:1001E000842F90E0821B930B541710F0CF96089544
:1001F00001970895FC01918D828D981761F0A28D71
:10020000AE0FBF2FB11D5D968C91928D9F5F9F7336
:10021000928F90E008958FEF9FEF0895FC01918DEC
:10022000828D981731F0828DE80FF11D858D90E059
:1002300008958FEF9FEF0895FC01918D228D892FF6
:1002400090E0805C9F4F821B91098F7399270895DE
:100250008BE395E00E941C0121E0892B09F420E04A
:10026000822F089580E090E0892B29F00E942801D8
:1002700081110C9400000895FC01A48DA80FB92FE2
:10028000B11DA35ABF4F2C91848D90E001968F73BE
:100290009927848FA689B7892C93A089B1898C91DD
:1002A000837080648C93938D848D981306C002882C
:1002B000F389E02D80818F7D80830895EF92FF92F6
:1002C0000F931F93CF93DF93EC0181E0888F9B8D79
:1002D0008C8D98131AC0E889F989808185FF15C033
:1002E0009FB7F894EE89FF896083E889F989808156
:1002F0008370806480839FBF81E090E0DF91CF9125
:100300001F910F91FF90EF900895F62E0B8D10E046
:100310000F5F1F4F0F731127E02E8C8D8E110CC0B5
:100320000FB607FCFACFE889F989808185FFF5CF00
:10033000CE010E943C01F1CFEB8DEC0FFD2FF11DA2
:10034000E35AFF4FF0829FB7F8940B8FEA89FB893D
:1003500080818062CFCFCF93DF93EC01888D88239B
:10036000B9F0AA89BB89E889F9898C9185FD03C018
:10037000808186FD0DC00FB607FCF7CF8C9185FFFD
:10038000F2CF808185FFEDCFCE010E943C01E9CF05
:10039000DF91CF910895833081F028F4813099F076
:1003A0008230A9F008958730A9F08830C9F08430F0
:1003B000B1F4809180008F7D03C0809180008F77A1
:1003C00080938000089584B58F7784BD089584B5A7
:1003D0008F7DFBCF8091B0008F778093B000089520
:1003E0008091B0008F7DF9CFCF93DF93282F30E03D
:1003F000F901EE52FF4F8491F901E15FFE4FD49174
:10040000F901E550FF4FC491CC23A1F081110E9466
:10041000CB01EC2FF0E0EE0FFF1FE951FF4FA5914C
:10042000B491EC91ED2381E090E009F480E0DF915C
:10043000CF91089580E090E0FACF1F93CF93DF93A0
:10044000282F30E0F901EE52FF4F8491F901E15F6E
:10045000FE4FD491F901E550FF4FC491CC23A9F090
:10046000162F81110E94CB01EC2FF0E0EE0FFF1F41
:10047000EF50FF4FA591B4918FB7F894EC91111103
:1004800008C0D095DE23DC938FBFDF91CF911F9101
:100490000895DE2BF8CF9091000189130BC0E6EE92
:1004A000F0E0E4919FEF90930001E13049F028F0F3
:1004B000E23061F060E00C941D0210926E00FACF01
:1004C00090916F009D7F90936F00F4CF909170009A
:1004D0009D7F9093700091E09093B0009091B10057
:1004E000987F94609093B1001092B300E3CFCF93C4
:1004F000DF9390E0FC01E15FFE4F249185509F4F18
:10050000FC0184918823C9F090E0880F991FFC01B9
:10051000E853FF4FA591B491FC01EF50FF4FC591F7
:10052000D49161110DC09FB7F8948C9120958223CE
:100530008C938881282328839FBFDF91CF910895D2
:10054000623051F49FB7F8943C91822F80958323B9
:100550008C93E8812E2BEFCF8FB7F894EC912E2B54
:100560002C938FBFEACF3FB7F894809115059091F7
:100570001605A0911705B091180526B5A89B05C0D2
:100580002F3F19F00196A11DB11D3FBFBA2FA92F12
:10059000982F8827BC01CD01620F711D811D911D0F
:1005A00042E0660F771F881F991F4A95D1F708957B
:1005B0008F929F92AF92BF92CF92DF92EF92FF9273
:1005C0006B017C010E94B3024B015C01C114D10498
:1005D000E104F104B9F00E94B302681979098A09AB
:1005E0009B09683E73408105910580F321E0C21AA2
:1005F000D108E108F10888EE880E83E0981EA11C5E
:10060000B11CE4CFFF90EF90DF90CF90BF90AF9000
:100610009F908F9008952FB7F89460911105709175
:10062000120580911305909114052FBF0895CF9363
:10063000DF93EBE2F0E0883040F098EF980FE8E2CB
:10064000F0E0963010F4E5E2F0E0908142EF480FE0
:100650008E3010F4482F477021E030E001C0220FA7
:100660004A95EAF7322F309593239083AAE2B0E0BF
:10067000683040F098EF960FA7E2B0E0963010F4A3
:10068000A4E2B0E09C9122EF260F6E3010F4262FEA
:10069000277041E050E001C0440F2A95EAF74095E9
:1006A00049234C93CBE2D0E0683040F098EF960FAE
:1006B000C8E2D0E0963010F4C5E2D0E0288191E0A5
:1006C00042EF460F6E3010F4462F477001C0990F6D
:1006D0004A95EAF7292B2883CFE0D0E02197F1F75C
:1006E000C9E2D0E0683038F06850C6E2D0E0663049
:1006F00010F4C3E2D0E02881292361E009F060E032
:1007000050818E30B0F08E5021E001C0220F8A95CA
:10071000EAF7252B2083CFE0D0E02197F1F7208165
:10072000322330832C91922B9C93862FDF91CF9193
:1007300008958770E9CFCF93DF93EBE2F0E0883044
:1007400040F098EF980FE8E2F0E0963010F4E5E220
:10075000F0E0908142EF480F8E3010F4482F477040
:1007600021E030E001C0220F4A95EAF720952923C5
:100770002083AFE0B0E01197F1F7ABE2B0E0683072
:1007800040F098EF960FA8E2B0E0963010F4A5E2A2
:10079000B0E09C9142EF460F6E3010F4462F477048
:1007A00021E030E001C0220F4A95EAF72095292385
:1007B0002C93CFE0D0E02197F1F720818E30D8F054
:1007C00092EF980F81E001C0880F9A95EAF7822B8B
:1007D00080838FE090E00197F1F79C916E3098F064
:1007E0006E5081E001C0880F6A95EAF7892B8C93DF
:1007F000DF91CF910895877091E001C0990F8A959C
:10080000EAF7892FE4CF6770ECCFEBE2F0E06830D5
:1008100040F098EF960FE8E2F0E0963010F4E5E251
:10082000F0E0208191E032EF360F6E3010F4362F79
:10083000377001C0990F3A95EAF7922B9083ABE29B
:10084000B0E0883040F098EF980FA8E2B0E0963022
:1008500010F4A5E2B0E02C918E30D8F08E5091E0EB
:1008600001C0990F8A95EAF7892F822B8C938FE02C
:1008700090E00197F1F720816E3068F06E5081E0D2
:1008800090E001C0880F6A95EAF780958223808303
:1008900008958770E4CF6770F2CFBF92CF92DF9256
:1008A000EF92FF920F931F93CF93DF93982F977040
:1008B00021E030E0D90101C0AA0F9A95EAF792EF42
:1008C000980F01C0220F9A95EAF7FA2E8E3008F0A1
:1008D000F22EF094962F9770E1E0F0E0EF0101C066
:1008E000CC0F9A95EAF792EF960F01C0EE0F9A950A
:1008F000EAF7EC2E6E3008F0EE2EE094DC2EBC2EE3
:100900006E3008F0BE2ECA2E8E3008F42A2F58E022
:1009100098EF980F38EF360FCFE0D0E0ABE2B0E0C1
:10092000883030F0A5E2B0E0963010F0A8E2B0E0F8
:100930007C917F21ABE2B0E0883030F0A5E2B0E0FE
:10094000963010F0A8E2B0E07C93A42FB0E040FF16
:100950004AC00BE210E0683030F005E210E03630BB
:1009600010F008E210E0F80140817D2D0BE210E06C
:10097000683038F07B2D05E210E0363010F008E2E8
:1009800010E0472BF8014083FE013197F1F7B59550
:10099000A7954A2FABE2B0E0883030F0A5E2B0E096
:1009A000963010F0A8E2B0E07C91FC2DABE2B0E014
:1009B000883038F0F22FA5E2B0E0963010F0A8E2CF
:1009C000B0E07F2B7C93DE011197F1F7515009F0D5
:1009D000A5CFDF91CF911F910F91FF90EF90DF9006
:1009E000CF90BF9008950BE210E0683030F005E240
:1009F00010E0363010F008E210E0F80140814E219E
:100A00000BE210E0683008F4BDCF05E210E03630AC
:100A100008F4B8CF08E210E0B5CF1F93CF93DF936F
:100A2000C82FD62F142F0E940504412F6D2F8C2F15
:100A30000E944D046D2F8C2F0E941703182F6D2FCD
:100A40008C2F0E949B03812FDF91CF911F910895DE
:100A5000089520911B0530911C052817390771F462
:100A60009091190580911A05981741F0E0911905A8
:100A7000F0E0E053FB4F808190E008958FEF9FEF0F
:100A800008950895EF92FF920F931F93CF93DF93F2
:100A9000DC015C96ED90FC905D97E114F10479F433
:100AA00081E090E013969C938E93129790E080E003
:100AB000DF91CF911F910F91FF90EF900895519684
:100AC000ED91FC91529750968C915097982F90955C
:100AD0000FB75E962C915E97122F127021FD6095D4
:100AE000F8942081112319F1282B2083E701219705
:100AF000F1F728E0462F50E0308160FF1AC0382B14
:100B00003083E7012197F1F7BA0175956795215078
:100B100089F7112381F08081892380830FBF5C9640
:100B20008D919C910197F1F781E090E0C1CF29234D
:100B3000DCCF3923E5CF9081892BEFCF20911B05A6
:100B400030911C052817390771F480911A052091FE
:100B5000190590E0805C9F4F821B910960E470E072
:100B60000E94B714089590E080E0089520911B053D
:100B700030911C0528173907B9F490911905809117
:100B80001A05981789F0E0911905F0E0E053FB4F42
:100B900080812091190530E02F5F3F4F2F7333275D
:100BA0002093190590E008958FEF9FEF089590E04E
:100BB00080E00895CF93DF93CDB7DEB729970FB6C6
:100BC000F894DEBF0FBECDBFFE01339627E0DF01F4
:100BD0001D922A95E9F7E4EEF5E029E0DF011D9288
:100BE0002A95E9F72FEF298321E02A83FC01E95FA9
:100BF000FE4F20812B838630910579F108F501970E
:100C000031F1FE0132969E01275F3F4F80E09191C6
:100C1000890F2E173F07D9F78195898789E0FE0153
:100C20003196A4EEB5E001900D928A95E1F72996F0
:100C30000FB6F894DEBF0FBECDBFDF91CF91089500
:100C40008730910579F00897E1F66887DACF8091CF
:100C5000DF058111D6CF6C83D4CF6115710589F280
:100C60006F83CFCF6D83CDCFFB0101900020E9F7DB
:100C70003197AF01461B570BDC01ED91FC910280CF
:100C8000F381E02D09948F929F92AF92BF92EF92E1
:100C9000FF920F931F93CF93DF93CDB7DEB7A1974A
:100CA0000FB6F894DEBF0FBECDBF7C01FA01CB01B9
:100CB00019A2223008F42AE08E010F5D1F4F822E08
:100CC000912CB12CA12CBF01A50194010E94CB1441
:100CD000F901CA016A300CF5605DD8016E938D018F
:100CE000232B242B252B79F790E080E0109721F01F
:100CF000BD01C7010E943406A1960FB6F894DEBF6D
:100D00000FBECDBFDF91CF911F910F91FF90EF905C
:100D1000BF90AF909F908F900895695CDECFCF9386
:100D2000DF93BC018BE395E00E943406EC0165E49F
:100D300071E08BE395E00E9434068C0F9D1FDF91DC
:100D4000CF910895CF93DF93AC0170E060E02AE08B
:100D50008BE395E00E944306EC0165E471E08BE3D0
:100D600095E00E9434068C0F9D1FDF91CF9108956E
:100D70000C943406FF920F931F93CF93DF93EC01F3
:100D8000F42E8C01075F1F4F81E0481709F462C001
:100D9000611162C068E471E08BE395E00E94B806DF
:100DA0008091E305882391F165E571E08BE395E09F
:100DB0000E94B806499150E070E060E02AE08BE3C1
:100DC00095E00E94430664E173E08BE395E00E94A6
:100DD000B8060C171D0771F76EE571E08BE395E01F
:100DE0000E94B8064F2D50E070E060E02AE08BE3EF
:100DF00095E00E94430665E471E08BE395E0DF91A6
:100E0000CF911F910F91FF900C9434066BE571E028
:100E10008BE395E00E94B8068991803130F466E951
:100E200073E08BE395E00E94B806FE0131974081A4
:100E300050E070E060E020E18BE395E00E94430623
:100E400064E173E08BE395E00E94B806C017D10718
:100E5000E9F6C2CF662359F16BE671E08BE395E0CA
:100E60000E94B8068091E305882321F165E571E0D1
:100E70008BE395E00E94B806499150E070E060E095
:100E80002AE08BE395E00E94430664E173E08BE384
:100E900095E00E94B8060C171D0771F784E193E0F6
:100EA000DF91CF911F910F91FF900C948F0668E412
:100EB00071E0D4CF6BE571E08BE395E00E94B8065A
:100EC0008991803130F466E973E08BE395E00E940C
:100ED000B806FE013197408150E070E060E020E10B
:100EE0008BE395E00E94430664E173E08BE395E0B9
:100EF0000E94B8060C171D07E9F6D0CFCF93DF93F9
:100F0000EC018091E205882331F04091D80561E041
:100F1000CE010E94BA068091DD059091DE05DC01CC
:100F2000ED91FC910280F381E02D49E050E0BE019B
:100F300009958091DD059091DE05DC01ED91FC9134
:100F40000680F781E02DDF91CF9109941F93CF9315
:100F5000DF93182FC0E0C11719F18091DD05909142
:100F6000DE05DC01ED91FC910284F385E02D09950D
:100F7000D82F64E771E08BE395E00E94B8064D2F0F
:100F800050E070E060E02AE08BE395E00E944306C9
:100F900065E471E08BE395E00E943406CF5FDBCF20
:100FA000DF91CF911F9108958F929F92AF92BF9240
:100FB000CF92DF92EF92FF920F931F93CF93DF9325
:100FC000EC010E940B036B017C0189E0DE011D92A4
:100FD0008A95E9F71092D8058091DD059091DE059C
:100FE000DC01ED91FC910084F185E02D09950997D4
:100FF0006CF50E940B036C197D098E099F09643FF3
:1010000071408105910540F38EE891E00E948F06C2
:1010100082E08093D8058091DD059091DE05DC01AA
:10102000ED91FC910084F185E02D09950E94A607C1
:1010300082E0DF91CF911F910F91FF90EF90DF90B1
:10104000CF90BF90AF909F908F9008950091DD0555
:101050001091DE056E01B9E0CB0ED11C7E010E941D
:101060000B03F8016087718782879387D801ED9120
:10107000FC910284F385E02DC801099597FF58C0C3
:101080000E940B03F80180849184A284B3846819C0
:1010900079098A099B0984809580A680B7806815A4
:1010A00079058A059B0510F38091D805823009F2F5
:1010B000FE0131969E01285F3F4F80E09191890F9C
:1010C0002E173F07D9F781959885981719F084E076
:1010D0008093D80598818091E405981305C0998183
:1010E0008091E605981781F08091DD059091DE05ED
:1010F000DC01ED91FC910084F185E02D09950E94C1
:10110000A60783E08093D8058091D805811103C09C
:1011100081E08093D8058091E205882331F04091E9
:10112000D80560E0CE010E94BA068091D80581CF33
:10113000F70181937F01EC15FD0509F090CFB4CF45
:101140000F931F930E94DA0584EE95E00E947E07BC
:101150008091E605843879F58FEF95E00E94D407F9
:101160000E940B030091D9051091DA052091DB054F
:101170003091DC05601B710B820B930B0E940414F1
:1011800020E83BEC44E25CE40E94B21487FD20C0FE
:101190008091DF058823E1F00E940B036093D9055D
:1011A0007093DA058093DB059093DC0581E090E095
:1011B00070E060E0C7CF853819F48DEE95E0CECFB2
:1011C000863819F486EF95E0C9CF88E096E0C6CF5F
:1011D0001F910F910895CF9370E060E084E090E05C
:1011E0000E94A0088091D805813089F4C091E00563
:1011F000C11110C08091F105282F30E0322F222735
:101200008091F205820F932F911D97FF4CC090E0C3
:1012100080E049C070E060E085E090E00E94A008B6
:101220008091F105282F30E0322F22278091F2059E
:10123000820F932F911D2091F805422F50E0542FDB
:1012400044272091F905240F352F311D4091E105E8
:10125000442389F097FD0BC037FD09C0AC01421B48
:10126000530B4A305105F8F02A393140E1F485E05A
:101270008093D805CCCF97FF03C04C2F8FEF9FE70B
:1012800037FF03C04C2F2FEF3FE7BC01621B730BEE
:101290006A30710518F02A39314011F0442319F0F1
:1012A00025E02093D805CF9108950F931F93CF93F6
:1012B000DF93EC0188819981009759F02A813B8165
:1012C0002617370730F081E0DF91CF911F910F9102
:1012D00008958B016F5F7F4F0E942C16009759F085
:1012E000998388831B830A832C813D81232B59F7A3
:1012F000FC011082E8CF80E0E7CFEF92FF920F93DE
:101300001F93CF93DF93EC017B018A01BA010E9406
:10131000550928813981811114C02115310519F031
:10132000C9010E94A315198218821D821C821B828A
:101330001A82CE01DF91CF911F910F91FF90EF9014
:1013400008951D830C83B701C9010E94F216F1CFE5
:101350008F929F92AF92BF92DF92EF92FF920F9384
:101360001F93CF93DF9300D000D01F92CDB7DEB78D
:101370007C015B018A01D22EFC0186819A012D0D30
:10138000311D8217130608F458C0CE0101964C0196
:1013900085E0F40111928A95E9F78D2D8770806CB4
:1013A0008983CE0102960E94E916F1E0FD1568F0EE
:1013B000F7019485D11024C00230110508F18B810A
:1013C0009923E1F090E8892B8B830F5FF701D5809B
:1013D00014816D2D812F0E94050474018E2D8819B2
:1013E0008017B8F4F70141917F016D2D812F0E9484
:1013F0004D046D2D812F0E941703F0CF90E0E3CFB5
:101400008A81992321F090E8892B8A83DECF90E0AE
:10141000FBCF6D2D812F0F900F900F900F900F909D
:10142000DF91CF911F910F91FF90EF90DF90BF90D0
:10143000AF909F908F900C949B03182F1D19412FF4
:1014400050E02D2DC7010E94A809F7016285738520
:1014500090E080E00E94D8020D5F011B11E0F701CF
:101460004681041790F050E0B501610F711D20E036
:10147000C7010E94A809F7016285738590E080E0AA
:101480000E94D80201501F5FEACF0F900F900F907B
:101490000F900F90DF91CF911F910F91FF90EF90E0
:1014A000DF90BF90AF909F908F9008950F931F9300
:1014B000CF93DF9300D000D0CDB7DEB78C01198277
:1014C0001A821B821C8220E044E050E0BE016F5F64
:1014D0007F4F0E94A809F80111860F900F900F907E
:1014E0000F90DF91CF911F910F9108950F931F934C
:1014F000CF93DF93CDB7DEB7C058D1090FB6F894BC
:10150000DEBF0FBECDBF362F272F8A0141385105D0
:1015100010F000E810E0BE016F5F7F4FA32FB22FE5
:101520009B01A901461B570B4017510770F4ED9121
:1015300040E0E03234F00E2E000CFF0BE85BFF4F72
:101540004491F90141939F01ECCFFC012185A80151
:101550000E94A809C801C058DF4F0FB6F894DEBF3B
:101560000FBECDBFDF91CF911F910F910895EF92E4
:10157000FF921F93CF93DF93EC01162F89859E81F5
:10158000F12CE12C891326C0BE01635F7F4F262F0B
:10159000FB019E2F921B981718F491819193F9CF1C
:1015A000898590E0E0E010323CF0E12F012E000C44
:1015B000FF0BE85BFF4FE4918C0F9D1FDC011D9634
:1015C000EC934E8150E020E0CE010E94A809EE2469
:1015D000E394F12C49858E81481708F550E0E0E04E
:1015E000103234F0E12F110FFF0BE85BFF4FE49155
:1015F000DE01A40FB51F1D96EC934F5F5F4F20E0F7
:10160000BE01635F7F4FCE010E94A80989858F5F6D
:10161000843008F083E08987BFEFEB1AFB0AC7012B
:10162000DF91CF911F91FF90EF9008951F93CF937B
:10163000DF9397FD28C011E0CFE0D7E2803127E2A9
:1016400092073CF4EC01C9318CEFD80714F4C9E1DE
:10165000DCEF80E396E00E94560A111116C0D19586
:10166000C195D10965E773E080E396E00E94B80672
:1016700081E0C436D10524F4CA30D1058CF082E073
:101680008093390608C010E0DDCFC83E23E0D207C2
:101690007CF310923906AE01DD0F660B770B15C097
:1016A00083E080933906D7FFF6CF6DE280E396E0C2
:1016B0000E94B70AAE01DD0F660B770B709560953F
:1016C000509541955F4F6F4F7F4F2AE080E396E042
:1016D000DF91CF911F910C944306809130058F3F8D
:1016E00011F4109230058091300524E6829FC001EC
:1016F00011249C0128513C4F293745E0340734F52B
:10170000309338052093370565EB71E08BE395E066
:101710000E94B80680913705909138050E94A20674
:1017200080E396E00E94560A6DE474E080E396E060
:101730000E94B80668EE73E080E090E00E94D80254
:1017400080913705909138050C94160B88539F4F64
:101750009093380580933705D7CF1F920F920FB61D
:101760000F9211242F933F934F935F936F937F9327
:101770008F939F93AF93BF93EF93FF938091240533
:1017800090912505A0912605B0912705892B8A2BDC
:101790008B2BD1F190911F05E0912005F09121054F
:1017A0008081892780838091240590912505A091CF
:1017B0002605B0912705181619061A061B069CF473
:1017C0008091240590912505A0912605B0912705CB
:1017D0000197A109B1098093240590932505A09351
:1017E0002605B0932705FF91EF91BF91AF919F918F
:1017F0008F917F916F915F914F913F912F910F90BA
:101800000FBE0F901F901895809100010E944B020F
:10181000EACF1F920F920FB60F9211242F933F938E
:101820004F935F936F937F938F939F93AF93BF93E8
:10183000EF93FF938BE395E00E943C01FF91EF91C2
:10184000BF91AF919F918F917F916F915F914F91D8
:101850003F912F910F900FBE0F901F9018951F92E0
:101860000F920FB60F9211242F938F939F93EF93A4
:10187000FF93E0914B05F0914C058081E09151057B
:10188000F091520582FD1BC09081809154058F5FBD
:101890008F7320915505821741F0E0915405F0E0D7
:1018A000E55CFA4F958F80935405FF91EF919F91DE
:1018B0008F912F910F900FBE0F901F9018958081E0
:1018C000F4CF1F920F920FB60F9211242F933F93D4
:1018D0008F939F93AF93BF938091110590911205C1
:1018E000A0911305B09114053091100523E0230F4A
:1018F0002D3758F50196A11DB11D20931005809339
:10190000110590931205A0931305B09314058091CF
:10191000150590911605A0911705B091180501962F
:10192000A11DB11D8093150590931605A093170571
:10193000B0931805BF91AF919F918F913F912F91D7
:101940000F900FBE0F901F90189526E8230F029658
:10195000A11DB11DD2CF1F920F920FB60F9211246D
:101960002F933F934F935F936F937F938F939F93A7
:10197000AF93BF93EF93FF93E0911B05F0911C058C
:10198000309749F0A685B7858585968D91FF14C05F
:101990009C918923A1F4FF91EF91BF91AF919F9109
:1019A0008F917F916F915F914F913F912F910F9008
:1019B0000FBE0F901F9018959C91892361F7A38902
:1019C000B4899C918589809589238C938689978990
:1019D0000197F1F7608D718DA685B785558538E043
:1019E00020E0CB010197F1F7822F90E09595879544
:1019F000282F4C91452309F02068315091F7868DAE
:101A000081FD209580911A0590E001968F739927AA
:101A100030911905381799F0A0911A05B0E0A0533C
:101A2000BB4F2C9380931A05828D938D0197F1F70C
:101A3000A389B4898C919589892B8C93ACCF868DA1
:101A40008160868FF1CF10923E0510923D0588EEA1
:101A500093E0A0E0B0E080933F0590934005A09311
:101A60004105B093420589E191E090933C05809354
:101A70003B0585EC90E0909348058093470584EC06
:101A800090E090934A058093490580EC90E0909314
:101A90004C0580934B0581EC90E090934E0580932C
:101AA0004D0582EC90E09093500580934F0586ECB5
:101AB00090E0909352058093510510925405109236
:101AC0005505109256051092570510923306109244
:101AD00032068DE391E0909331068093300689E0E1
:101AE0008093340688E080933506219A209A299ABB
:101AF000E5E2F0E0808181608083109239068CE21B
:101B000091E090933B0680933A0610923C0684E65F
:101B1000809338064FE860913506809134060E9424
:101B20000D0540E460913506809134060E940D0554
:101B30008DE391E090933106809330061092140665
:101B40001092130688EE93E0A0E0B0E080931506B3
:101B500090931606A0931706B09318068BE291E0B7
:101B60009093120680931106109228061092270671
:101B700010922A061092290610922C0610922B061B
:101B800010922E0610922D0660912F066E7F6D7FAB
:101B900060932F066695617081E0682786E00E9459
:101BA0001D0261E086E00E947702E5E1F1E0E49148
:101BB000E0932106E1E0F1E0E491F0E0EE0FFF1F99
:101BC000EF50FF4F859194919093230680932206C6
:101BD00060E087E00E94770280912F0681FD04C0BB
:101BE00061E087E00E941D0287E080931D06E6E128
:101BF000F1E0E491E0931E06E2E0F1E0E491F0E030
:101C0000EE0FFF1FE951FF4F8591949190932006AD
:101C100080931F061092DF051092E00581E080930B
:101C2000E1051092E2058093E3050895CF93DF93D9
:101C3000CDB7DEB767970FB6F894DEBF0FBECDBF46
:101C4000789484B5826084BD84B5816084BD85B597
:101C5000826085BD85B5816085BD80916E008160A3
:101C600080936E0010928100809181008260809349
:101C7000810080918100816080938100809180004B
:101C80008160809380008091B10084608093B10076
:101C90008091B00081608093B00080917A00846070
:101CA00080937A0080917A00826080937A0080919C
:101CB0007A00816080937A0080917A0080688093B6
:101CC0007A001092C10062E082E00E94770262E036
:101CD00081E10E94770261E084E00E94770260E087
:101CE00084E00E941D0261E083E10E94770260E0CF
:101CF00083E10E941D02E0914B05F0914C0582E0CA
:101D00008083E0914705F09148051082E0914905F4
:101D1000F0914A0580E1808310925305E0914F05D0
:101D2000F091500586E08083E0914D05F0914E05DD
:101D3000808180618083E0914D05F0914E05808126
:101D400088608083E0914D05F0914E058081806828
:101D50008083E0914D05F0914E0580818F7D8083D9
:101D600082EC91E00E948F0610922C0610922B06B6
:101D700010922A0610922906109228061092270621
:101D80008DE991E090932E0680932D0690911D068B
:101D9000963108F047C02DEB30E0309328062093B1
:101DA00027062BE931E030932A06209329062CE2FE
:101DB00031E030932C0620932B062091680084E0BC
:101DC000983048F031E09E3008F430E081E001C006
:101DD000880F3A95EAF7822B809368002DE630E071
:101DE000983050F02BE630E09E3030F02CE630E0BA
:101DF000963110F030E020E0309325062093240641
:101E0000292F30E0983008F04DC181E001C0880FE3
:101E10009A95EAF78093260680912D0690912E06DA
:101E20000197F1F780912B0690912C06892B49F1AF
:101E3000E0911B05F0911C0526E0E131F20709F164
:101E4000309739F0A389B4899C918589809589233D
:101E50008C9380912F068E7F80932F0610921A0507
:101E60001092190581E196E090931C0580931B0563
:101E7000E0912406F0912506808190912606892B19
:101E8000808381E196E09093DE058093DD050E94DA
:101E90000B036B017C0170E060E084E090E00E9445
:101EA000DA0584EE95E00E947E078DEE95E00E94B3
:101EB000D407813009F403C10E940B036C197D091A
:101EC0008E099F09643F71408105910570F381EE91
:101ED00091E00E948F068091D805813021F084E83E
:101EE00092E00E948F0684E08093360611E0109302
:101EF000370680E396E00E94560A84E6809338060F
:101F00004FE860913506809134060E940D0568EE19
:101F100073E080E090E00E94D80290E080E00E94B0
:101F20006514809330050E946D0B6CED75E080E0C8
:101F300090E00E94D8021093DF0570E060E081E03D
:101F400090E00E94A00865EB72E08BE395E00E94B0
:101F5000B80670E060E082E090E00E94A008809106
:101F6000D805813029F480910F06882309F4D7C061
:101F700082ED92E00E948F0664E670E080E090E0DF
:101F80000E94D8028E010F5F1F4F0E94EB08209124
:101F90001D0530911E05892B09F0D1C02530310572
:101FA00008F0CDC01B8A1A8A1D8A1C8A1F8A1E8AC5
:101FB0004AE0B801C9010E94DA13F801019000203B
:101FC000E9F73197AF01401B510BB801CE014296A2
:101FD0000E947D091A8219821C821B821E821D8228
:101FE00045E350E060EE72E0C8010E947D09CA88B6
:101FF000DB88C114D10409F495C0EE88FF88E11490
:10200000F104B1F08D819E81E80EF91EB701C8017F
:102010000E945509882309F485C029813A818D8160
:102020009E81B601820F931F0E94F216FE82ED82FE
:102030004D815E8169817A818BE395E00E94BE00CB
:1020400065E471E08BE395E00E94340689819A8112
:10205000009711F00E94A3158A899B89009711F0BF
:102060000E94A31580E396E00E94560A64E170E0A6
:1020700080E090E00E94D80266E173E080E396E0A1
:102080000E94B80664EC79E080E090E00E94D802FB
:1020900080911D0590911E05019690931E058093D9
:1020A0001D0573CF9E3040F42850310981E001C0F6
:1020B000880F2A95EAF7AECE2E503109F7CF70E09F
:1020C00060E08CE090E00E94DA0584EE95E00E94EA
:1020D0007E070E940B036B017C0188E096E00E9462
:1020E000D407813071F00E940B036C197D098E09B1
:1020F0009F09643F71408105910578F383E192E087
:10210000E8CEEFEEF5E09191828D981719F085E415
:1021100092E0DFCE25E0E33FF207A9F7DCCE8AEDBF
:1021200092E028CF89819A81009711F00E94A3152F
:102130001A8219821E821D821C821B8279CF253051
:102140003105A9F460ED77E080E090E00E94D802CC
:102150008AE193E00E948F0688E19AE00FB6F89436
:10216000A895809360000FBE90936000FFCF83E23C
:1021700093E00E948F0680E396E00E94560A6AE090
:1021800070E080E090E00E94D8026DE373E080E3AD
:1021900096E00E94B80682E493E00E948F0660EA0F
:1021A0007FE080E090E00E94D80280E396E00E9409
:1021B000560A60E573E08BE395E00E94B80664EB95
:1021C000C62ED12CE12CF12C80E396E00E94560A19
:1021D0006AE573E080E396E00E94B80668EE73E07B
:1021E00080E090E00E94D80280E396E00E94560AC8
:1021F000C6010E94160B2AE0B701A6018BE395E009
:102200000E94430665E471E08BE395E00E9434068A
:1022100068EE73E080E090E00E94D80282E0C81A85
:10222000D108E108F1089EEFC9169FEFD906E9062B
:10223000F90651F68FE593E00E948F0680E396E061
:102240000E94560A62E773E080E396E00E94B806B7
:1022500068E873E180E090E00E94D80246E0242E16
:1022600041E0342E88248A94982C54010E94EB0873
:1022700090933A0580933905009791F487E793E0AE
:102280000E948F0680E396E00E94560A6CE773E096
:1022900080E396E00E94B8068091390590913A0556
:1022A00090933A0580933905892B09F443C061E87E
:1022B00073E08BE395E00E94B80680913905909118
:1022C0003A050E94A20680E396E00E94560A6AE060
:1022D00070E080E090E00E94D802809139059091F2
:1022E0003A050E94160B2091390530913A058091EC
:1022F0003705909138052817390708F4D1C0809127
:1023000000018B3011F5E6EEF0E0149117FDBFC02F
:1023100061E08BE00E947702112309F488C012303B
:1023200009F099C08091B100887F84608093B100EA
:1023300089E864C18CE893E00E948F066AE070E04F
:1023400080E090E00E94D802CECF8F3F09F09FC07E
:102350008BE080930001E6EEF0E014911F3F09F45A
:1023600096C0113021F150F0123009F43EC017FD33
:102370008EC061E08BE00E947702D1CF14BC15BC07
:1023800084B5826084BD85B5816085BDF10184918D
:10239000E82FF0E0EE0FFF1FEF50FF4F8591949173
:1023A000EAE1F1E084918093230510E0B1CF10922F
:1023B000800010928100809181008860809381006C
:1023C00080918100816080938100F1018491E82FE8
:1023D000F0E0EE0FFF1FEF50FF4F85919491EAE17F
:1023E000F1E084918093220593CF1092B000109277
:1023F000B1008091B00082608093B0008091B10004
:1024000081608093B100F1018491E82FF0E0EE0F3C
:10241000FF1FEF50FF4F859194919093210580937A
:102420002005EAE1F1E0849180931F0571CF85B525
:10243000887F836085BD89E887BD80922C05909256
:102440002D05A0922E05B0922F0580916E0082601E
:1024500080936E001CC0113009F0C9C080918100CA
:10246000887F81608093810087EB92E2909389005E
:10247000809388008092280590922905A0922A05D1
:10248000B0922B0580916F00826080936F006AE4A8
:1024900071E080E090E00E94D8028BE00E944B0245
:1024A0000E940B032B013C0182E00E94F401892B66
:1024B00009F09AC080913605882309F4AFC0809155
:1024C000320590913305A0913405B09135058857B8
:1024D0009C4EAF4FBF4F84159505A605B70508F074
:1024E000AEC080E396E00E94560A64E670E080E0A9
:1024F00090E00E94D80288E993E00E948F0680EB6A
:10250000C82E84E0D82EE12CF12C80E396E00E94C6
:10251000560A62ED73E080E396E00E94B80668EE2A
:1025200073E080E090E00E94D8022AE0B701A601A3
:102530008BE395E00E94430664E173E08BE395E052
:102540000E94B8060E94EB0890933A0580933905E3
:1025500061E873E08BE395E00E94B806809139054D
:1025600090913A050E94A20680E396E00E94560AE6
:10257000C6010E94160B68EE73E080E090E00E94B6
:10258000D80292E0C91AD108E108F108EEEFCE16A0
:10259000EFEFDE06EE06FE0609F0B7CF64E670E068
:1025A00080E090E00E94D80267ED73E08BE395E055
:1025B0000E94B80670E060E086E090E00E94A0080B
:1025C0008BED92E00E948F0680E396E00E94560A0F
:1025D0006BED72E080E396E00E94B80660EA7FE06F
:1025E00080E090E00E94D8021092360528C0123098
:1025F00021F011114CCF87EB1FCF87EB8093B300F5
:102600008092240590922505A0922605B092270578
:102610008091700082608093700039CF0E940B031C
:10262000609332057093330580933405909335059C
:1026300081E08093360584E094E00E948F0681E17A
:102640000E94F401892B09F096C0809131058823FE
:1026500009F481C08091320590913305A091340531
:10266000B091350588579C4EAF4FBF4F84159505E7
:10267000A605B70508F053C085E494E00E948F06D4
:102680000E946D0B82E00E94F401019749F56AE017
:1026900070E080E090E00E94D80281E10E94F401A5
:1026A000892B81F762E370E080E090E00E94D8021D
:1026B00081E10E94F401892B29F7809130058F5F19
:1026C000883058F4809330050E946D0B68EC70E000
:1026D00080E090E00E94D802D5CF10923005F4CF70
:1026E00062E370E080E090E00E94D80282E00E9405
:1026F000F401892B59F56091300590E080E00E944B
:102700006D141092310562E574E08BE395E00E9450
:10271000B80680913705909138050E94A2068BEB90
:1027200094E00E948F0660ED77E080E090E00E94E8
:10273000D80280E090E0892B09F498CD0E9428010E
:10274000882309F493CD0E94000090CD83E694E0A5
:102750000E948F06E4CF0E940B03609332057093B2
:102760003305809334059093350581E080933105DE
:102770008BE794E0EDCF10923105D1CF8BE291E061
:10278000909312068093110680911B0590911C0571
:102790008151964071F4E0912406F09125069081D4
:1027A0008091260680958923808310921C051092C3
:1027B0001B050895BB27FB015527AA27880F991FE2
:1027C000AA1FA41710F0A41B83955051B9F7A05D60
:1027D000AA3308F0A95DA193009779F7B111B193DD
:1027E0001192CB010C94F413DC01FC01672F719161
:1027F0007723E1F7329704C07C916D9370836291E7
:10280000AE17BF07C8F30895E89409C097FB3EF4DC
:1028100090958095709561957F4F8F4F9F4F99232D
:10282000A9F0F92F96E9BB279395F69587957795AB
:102830006795B795F111F8CFFAF4BB0F11F460FF6B
:102840001BC06F5F7F4F8F4F9F4F16C0882311F0C3
:1028500096E911C0772321F09EE8872F762F05C0D7
:10286000662371F096E8862F70E060E02AF09A9572
:10287000660F771F881FDAF7880F9695879597F967
:102880000895990F0008550FAA0BE0E8FEEF161601
:102890001706E807F907C0F012161306E407F50754
:1028A00098F0621B730B840B950B39F40A2661F0C8
:1028B000232B242B252B21F408950A2609F4A1406B
:1028C000A6958FEF811D811D0895F999FECF92BDC8
:1028D00081BDF89A992780B50895262FF999FECFE2
:1028E0001FBA92BD81BD20BD0FB6F894FA9AF99A2D
:1028F0000FBE019608952F923F924F925F926F9272
:102900007F928F929F92AF92BF92CF92DF92EF927F
:10291000FF920F931F93CF93DF93CDB7DEB7CA1B00
:10292000DB0B0FB6F894DEBF0FBECDBF09942A882B
:10293000398848885F846E847D848C849B84AA84D3
:10294000B984C884DF80EE80FD800C811B81AA8160
:10295000B981CE0FD11D0FB6F894DEBF0FBECDBF2B
:10296000ED0108950E94411408F48FEF089597FB3C
:10297000072E16F4009407D077FD09D00E94ED14BD
:1029800007FC05D03EF4909581959F4F0895709572
:1029900061957F4F0895A1E21A2EAA1BBB1BFD0172
:1029A0000DC0AA1FBB1FEE1FFF1FA217B307E4072E
:1029B000F50720F0A21BB30BE40BF50B661F771F86
:1029C000881F991F1A9469F7609570958095909566
:1029D0009B01AC01BD01CF010895AA1BBB1B51E1B6
:1029E00007C0AA1FBB1FA617B70710F0A61BB70B7F
:1029F000881F991F5A95A9F780959095BC01CD0124
:102A00000895EE0FFF1F0590F491E02D09940F93A8
:102A10001F93CF93DF938230910510F482E090E012
:102A2000E0914306F091440630E020E0B0E0A0E001
:102A3000309799F42115310509F44AC0281B390B48
:102A400024303105D8F58A819B816115710589F1A2
:102A5000FB0193838283FE0111C040815181028179
:102A6000138148175907E0F04817590799F4109750
:102A700061F012960C93129713961C933296CF0125
:102A8000DF91CF911F910F9108950093430610930A
:102A90004406F4CF2115310551F04217530738F0A1
:102AA000A901DB019A01BD01DF01F801C1CFEF01EE
:102AB000F9CF9093440680934306CDCFFE01E20FF9
:102AC000F31F819391932250310939832883D7CF03
:102AD0002091410630914206232B41F420910301BD
:102AE0003091040130934206209341062091010168
:102AF000309102012115310541F42DB73EB74091C7
:102B0000050150910601241B350BE0914106F0911F
:102B10004206E217F307A0F42E1B3F0B28173907D4
:102B200078F0AC014E5F5F4F2417350748F04E0F29
:102B30005F1F5093420640934106819391939FCF2C
:102B4000F0E0E0E09CCFCF93DF930097E9F0FC0149
:102B5000329713821282A0914306B0914406ED0190
:102B600030E020E01097A1F420813181820F931F83
:102B700020914106309142062817390709F061C0BB
:102B8000F0934206E0934106DF91CF910895EA0168
:102B9000CE17DF07E8F54A815B819E01411551059B
:102BA000B1F7E901FB83EA8349915991C40FD51F1D
:102BB000EC17FD0761F4808191810296840F951FC7
:102BC000E90199838883828193819B838A83F0E0E2
:102BD000E0E012968D919C9113970097B9F52D9195
:102BE0003C911197CD010296820F931F20914106CF
:102BF000309142062817390739F6309751F510926F
:102C0000440610924306B0934206A0934106BCCFFF
:102C1000D383C28340815181840F951FC817D90780
:102C200061F44E5F5F4F88819981480F591F51832E
:102C300040838A819B81938382832115310509F02A
:102C4000B0CFF0934406E09343069ECFFD01DC0134
:102C5000C0CF13821282D7CFB0E0A0E0E2E3F6E16A
:102C60000C947D148C01009751F4CB010E94071540
:102C70008C01C801CDB7DEB7E0E10C949914FC01DA
:102C8000E60FF71F9C0122503109E217F30708F401
:102C90009DC0D901CD91DC911197C617D70798F047
:102CA000C530D10530F3CE0104978617970708F396
:102CB000C61BD70B2297C193D1936D937C93CF0101
:102CC0000E94A315D6CF5B01AC1ABD0A4C018C0E35
:102CD0009D1EA0914306B0914406512C412CF12C2D
:102CE000E12C109731F580914106909142068815AC
:102CF000990509F05CC04616570608F058C0809147
:102D0000010190910201009741F48DB79EB7409167
:102D1000050150910601841B950BE817F90708F08F
:102D200055C0F0934206E0934106F9017183608338
:102D3000A0CF8D919C91119712966C90129713963B
:102D40007C901397A815B90559F56C0142E0C40EA3
:102D5000D11CCA14DB0420F1AC014A195B09DA0169
:102D60001296159780F06282738251834083D90155
:102D70006D937C93E114F10471F0D7011396FC93E9
:102D8000EE93129776CF22968C0F9D1FF9019183B7
:102D90008083F301EFCFF0934406E093430669CFBD
:102DA0004816590608F42C017D01D3019ACFCB01B6
:102DB0000E9407157C01009749F0AE01B8010E94FE
:102DC000E916C8010E94A315870153CF10E000E067
:102DD00050CFFB01DC0102C001900D9241505040E8
:102DE000D8F70895FB01DC0101900D920020E1F776
:102DF000089510E0C3E9D0E004C0FE010E9401156F
:0C2E00002196C439D107C9F7F894FFCF20
:102E0C00FF00004506800078797D84858687889947
:102E1C009B9CA0A2A3000000005E01BE00EB00ABD7
:102E2C00011C01FA000E01000000004205BE00D793
:102E3C000541059E05B605290500000000B70A7678
:102E4C000AD70528050D0A00526563696576656425
:102E5C00203E3E20004445433A2000307800455245
:102E6C00524F5220436F64653A200053656E7420B4
:102E7C003C3C2000215761726E696E673A20436CAE
:102E8C00656172696E6720427974653A200021454C
:102E9C0072726F723A2054696D6564206F7574207C
:102EAC0077616974696E6720666F722072657370E2
:102EBC006F6E73650042454550206C6576656C3AC3
:102ECC0020005374617274204D482D5A3134206F98
:102EDC0072204D482D5A3139206C656374757265BA
:102EEC0000214552524F523A204661696C6564206C
:102EFC00746F2076657269667920636F6E6E656398
:102F0C0074696F6E28312920746F2073656E736F2E
:102F1C00722E00214552524F523A204661696C651F
:102F2C006420746F2076657269667920636F6E6EAB
:102F3C00656374696F6E28322920746F2073656E17
:102F4C00736F722E00214552524F523A204C6173CE
:102F5C007420726573706F6E7365206973206E6F69
:102F6C00742061732065787065637465642C2076B9
:102F7C006572696669636174696F6E206661696CFC
:102F8C0065642E00214552524F523A20496E6974A5
:102F9C0069616C20636F6D6D756E69636174696FC7
:102FAC006E206572726F72436F646520726563691F
:102FBC0065766564004D485A31392053746F702022
:102FCC004175746F63616C6962726174696F6E3A9A
:102FDC002000206661696C65640020646F6E65007A
:102FEC004169722073656E736F72206E6F7420640A
:102FFC00657465637465642E20506C65617365201F
:10300C00636865636B20776972696E672E2E2E205C
:10301C005472792320006261640052455345542E4A
:10302C002E2E004169722073656E736F7220646579
:10303C00746563746564204D485A313900676F6F4D
:10304C0064004D485A31392072656164204F4B0041
:10305C00507265686561743A2000484541540053CC
:10306C0074617274206D6561737572656D656E74D3
:10307C007300434F322D004641494C006661696C28
:10308C0000434F322870706D293A20004552524F40
:10309C005220434F323D300053746172742063618F
:1030AC006C6962726174696F6E2070726F636573A4
:1030BC00733A2031323030207365636F6E64732045
:1030CC006F66203430302070706D20737461626CC8
:1030DC00650043414C2D00526573657474696E67CD
:1030EC0020666F726365642063616C6962726174DF
:1030FC00696F6E20666163746F7220746F20343058
:10310C00303A2000427574746F6E2043414C494232
:10311C0020686173206265656E20707265737365DB
:10312C00642C20686F6C64203573206D6F72652081
:10313C00746F2073746172742063616C6962726164
:10314C0074696F6E00526F7574696E6520424545E7
:10315C0050004E657720426565702056616C756530
:10316C003A20006E6F206368616E676520696E207F
:10317C00424545502076616C756500427574746FDC
:10318C006E204245455020686173206265656E2053
:10319C00707265737365642C20686F6C6420357372
:1031AC00206D6F726520746F20737461727420636C
:1031BC00616C6962726174696F6E005761697469E0
:1031CC006E6720666F72206E657720646174610093
:00000001FF
