:100000000C9494040C94BC040C94BC040C94DD0E6D
:100010000C94DD0E0C94DD0E0C94BC040C94DF0DDE
:100020000C94BC040C94BC040C94BC040C94BC0450
:100030000C94BC040C94BC040C94BC040C94BC0440
:100040000C94930E0C94BC040C94610E0C943B0E17
:100050000C94BC040C94BC040C94BC040C94BC0420
:100060000C94BC040C94BC040000C1C081C14001CC
:1000700001C3C003800241C201C6C006800741C758
:100080000005C1C581C4400401CCC00C800D41CD28
:10009000000FC1CF81CE400E000AC1CA81CB400BF8
:1000A00001C9C009800841C801D8C018801941D9C8
:1000B000001BC1DB81DA401A001EC1DE81DF401F58
:1000C00001DDC01D801C41DC0014C1D481D5401568
:1000D00001D7C017801641D601D2C012801341D378
:1000E0000011C1D181D0401001F0C030803141F108
:1000F0000033C1F381F240320036C1F681F7403758
:1001000001F5C035803441F4003CC1FC81FD403D27
:1001100001FFC03F803E41FE01FAC03A803B41FBF7
:100120000039C1F981F840380028C1E881E9402947
:1001300001EBC02B802A41EA01EEC02E802F41EF57
:10014000002DC1ED81EC402C01E4C024802541E567
:100150000027C1E781E640260022C1E281E3402377
:1001600001E1C021802041E001A0C060806141A187
:100170000063C1A381A240620066C1A681A7406757
:1001800001A5C065806441A4006CC1AC81AD406D27
:1001900001AFC06F806E41AE01AAC06A806B41ABF7
:1001A0000069C1A981A840680078C1B881B94079C7
:1001B00001BBC07B807A41BA01BEC07E807F41BF57
:1001C000007DC1BD81BC407C01B4C074807541B567
:1001D0000077C1B781B640760072C1B281B3407377
:1001E00001B1C071807041B00050C1908191405107
:1001F0000193C053805241920196C0568057419757
:100200000055C19581944054019CC05C805D419D26
:10021000005FC19F819E405E005AC19A819B405BF6
:100220000199C059805841980188C0488049418946
:10023000004BC18B818A404A004EC18E818F404F56
:10024000018DC04D804C418C0044C1848185404566
:100250000187C047804641860182C0428043418376
:100260000041C1818180404000000190016000F0A8
:1002700002C0035003A0023007C0065006A007309A
:1002800005000490046005F00DC00C500CA00D306A
:100290000F000E900E600FF00A000B900B600AF03A
:1002A00008C0095009A0083019C0185018A019300A
:1002B0001B001A901A601BF01E001F901F601EF09A
:1002C0001CC01D501DA01C3014001590156014F0AA
:1002D00016C0175017A0163013C0125012A01330BA
:1002E00011001090106011F031C0305030A031304A
:1002F00033003290326033F036003790376036F09A
:1003000034C0355035A034303C003D903D603CF069
:100310003EC03F503FA03E303BC03A503AA03B3039
:1003200039003890386039F028002990296028F089
:100330002AC02B502BA02A302FC02E502EA02F3099
:100340002D002C902C602DF025C0245024A02530A9
:1003500027002690266027F022002390236022F0B9
:1003600020C0215021A0203061C0605060A06130C9
:1003700063006290626063F066006790676066F099
:1003800064C0655065A064306C006D906D606CF069
:100390006EC06F506FA06E306BC06A506AA06B3039
:1003A00069006890686069F078007990796078F009
:1003B0007AC07B507BA07A307FC07E507EA07F3099
:1003C0007D007C907C607DF075C0745074A07530A9
:1003D00077007690766077F072007390736072F0B9
:1003E00070C0715071A0703050005190516050F049
:1003F00052C0535053A0523057C0565056A0573099
:1004000055005490546055F05DC05C505CA05D3068
:100410005F005E905E605FF05A005B905B605AF038
:1004200058C0595059A0583049C0485048A0493088
:100430004B004A904A604BF04E004F904F604EF098
:100440004CC04D504DA04C3044004590456044F0A8
:1004500046C0475047A0463043C0425042A04330B8
:1004600041004090406041F0000051C0A1C0F00048
:1004700041C11001E001B1C181C2D002200271C2AC
:10048000C00391C361C3300301C55005A005F1C588
:10049000400411C4E1C4B0048007D1C721C770076C
:1004A000C1C69006600631C601CA500AA00AF1CA48
:1004B000400B11CBE1CBB00B8008D1C821C870082C
:1004C000C1C99009600931C9000F51CFA1CFF00F08
:1004D00041CE100EE00EB1CE81CDD00D200D71CDEC
:1004E000C00C91CC61CC300C01D45014A014F1D4C8
:1004F000401511D5E1D5B0158016D1D621D670168C
:10050000C1D79017601731D7001151D1A1D1F01187
:1005100041D01010E010B1D081D3D013201371D38B
:10052000C01291D261D23012001E51DEA1DEF01E47
:1005300041DF101FE01FB1DF81DCD01C201C71DC0B
:10054000C01D91DD61DD301D01DB501BA01BF1DB07
:10055000401A11DAE1DAB01A8019D1D921D970190B
:10056000C1D89018601831D801E85028A028F1E8C7
:10057000402911E9E1E9B029802AD1EA21EA702A6B
:10058000C1EB902B602B31EB002D51EDA1EDF02D47
:1005900041EC102CE02CB1EC81EFD02F202F71EF2B
:1005A000C02E91EE61EE302E002251E2A1E2F02247
:1005B00041E31023E023B1E381E0D020202071E06B
:1005C000C02191E161E1302101E75027A027F1E747
:1005D000402611E6E1E6B0268025D1E521E570252B
:1005E000C1E49024602431E4003C51FCA1FCF03CC7
:1005F00041FD103DE03DB1FD81FED03E203E71FE4B
:10060000C03F91FF61FF303F01F95039A039F1F946
:10061000403811F8E1F8B038803BD1FB21FB703B4A
:10062000C1FA903A603A31FA01F65036A036F1F646
:10063000403711F7E1F7B0378034D1F421F470344A
:10064000C1F59035603531F5003351F3A1F3F03346
:1006500041F21032E032B1F281F1D031203171F14A
:10066000C03091F061F03030000001FC01B800446E
:10067000013000CC008801740260039C03D802247E
:10068000035002AC02E8031404C0053C057804845E
:1006900005F0040C044805B406A0075C071806E43E
:1006A0000790066C062807D40BC00A3C0A780B8416
:1006B0000AF00B0C0B480AB409A0085C081809E4FE
:1006C0000890096C092808D40F000EFC0EB80F44DE
:1006D0000E300FCC0F880E740D600C9C0CD80D24BE
:1006E0000C500DAC0DE80C1415C0143C1478158496
:1006F00014F0150C154814B417A0165C161817E45E
:100700001690176C172816D4110010FC10B811445D
:10071000103011CC118810741360129C12D813245D
:10072000125013AC13E812141E001FFC1FB81E4415
:100730001F301ECC1E881F741C601D9C1DD81C24DD
:100740001D501CAC1CE81D141AC01B3C1B781A84DD
:100750001BF01A0C1A481BB418A0195C191818E4DD
:100760001990186C182819D429C0283C2878298495
:1007700028F0290C294828B42BA02A5C2A182BE43D
:100780002A902B6C2B282AD42D002CFC2CB82D441D
:100790002C302DCC2D882C742F602E9C2ED82F24FD
:1007A0002E502FAC2FE82E14220023FC23B8224415
:1007B000233022CC228823742060219C21D820243D
:1007C000215020AC20E8211426C0273C277826841D
:1007D00027F0260C264827B424A0255C251824E4FD
:1007E0002590246C242825D43C003DFC3DB83C4495
:1007F0003D303CCC3C883D743E603F9C3FD83E241D
:100800003F503EAC3EE83F1438C0393C397838841C
:1008100039F0380C384839B43AA03B5C3B183AE41C
:100820003B903A6C3A283BD437C0363C3678378414
:1008300036F0370C374836B435A0345C341835E41C
:100840003490356C352834D4330032FC32B833441C
:10085000323033CC338832743160309C30D831241C
:10086000305031AC31E83014000622766D247F2000
:10087000390F5C50104008063F065B4F666D7D07E0
:100880007F6F303058484C535F777F395E79713DC8
:1008900076060E753815373F7367336D783E1C2A20
:1008A000766E5B39300F1308105F7C585E7B716F7A
:1008B00074040C753015545C7367506D781C1C2AD9
:1008C00076665B79064F4000000000002400270098
:1008D0002A000000000800020100000304070000D5
:1008E0000000000000000200000000230026002994
:1008F0000000000000250028002B0004040404046C
:1009000004040402020202020203030303030301BC
:100910000204081020408001020408102001020493
:1009200008102000550FA41511241FBECFEFD8E0EA
:10093000DEBFCDBF25E0A2E0B4E001C01D92A53628
:10094000B207E1F714E0A0E0B1E0ECE1F2E302C0AD
:1009500005900D92A230B107D9F714E0C3E9D4E0B5
:1009600004C02197FE010E940917C239D107C9F7B7
:100970000E943D100C9401190C940000AF92BF929C
:10098000CF92DF92EF92FF920F931F93CF93DF935B
:100990006C017B018B01040F151FEB015E01AE188A
:1009A000BF08C017D10759F06991D601ED91FC91AC
:1009B0000190F081E02DC6010995892B79F7C501D9
:1009C000DF91CF911F910F91FF90EF90DF90CF902B
:1009D000BF90AF900895FC01538D448D252F30E0DA
:1009E000842F90E0821B930B541710F0CF9608953C
:1009F00001970895FC01918D828D981761F0A28D69
:100A0000AE0FBF2FB11D5D968C91928D9F5F9F732E
:100A1000928F90E008958FEF9FEF0895FC01918DE4
:100A2000828D981731F0828DE80FF11D858D90E051
:100A300008958FEF9FEF0895FC01918D228D892FEE
:100A400090E0805C9F4F821B91098F7399270895D6
:100A500084E994E00E941C0521E0892B09F420E040
:100A6000822F089580E090E0892B29F00E942805CC
:100A700081110C9400000895FC01A48DA80FB92FDA
:100A8000B11DA35ABF4F2C91848D90E001968F73B6
:100A90009927848FA689B7892C93A089B1898C91D5
:100AA000837080648C93938D848D981306C0028824
:100AB000F389E02D80818F7D80830895EF92FF92EE
:100AC0000F931F93CF93DF93EC0181E0888F9B8D71
:100AD0008C8D98131AC0E889F989808185FF15C02B
:100AE0009FB7F894EE89FF896083E889F98980814E
:100AF0008370806480839FBF81E090E0DF91CF911D
:100B00001F910F91FF90EF900895F62E0B8D10E03E
:100B10000F5F1F4F0F731127E02E8C8D8E110CC0AD
:100B20000FB607FCFACFE889F989808185FFF5CFF8
:100B3000CE010E943C05F1CFEB8DEC0FFD2FF11D96
:100B4000E35AFF4FF0829FB7F8940B8FEA89FB8935
:100B500080818062CFCFCF93DF93EC01888D882393
:100B6000B9F0AA89BB89E889F9898C9185FD03C010
:100B7000808186FD0DC00FB607FCF7CF8C9185FFF5
:100B8000F2CF808185FFEDCFCE010E943C05E9CFF9
:100B9000DF91CF910895833081F028F4813099F06E
:100BA0008230A9F008958730A9F08830C9F08430E8
:100BB000B1F4809180008F7D03C0809180008F7799
:100BC00080938000089584B58F7784BD089584B59F
:100BD0008F7DFBCF8091B0008F778093B000089518
:100BE0008091B0008F7DF9CFCF93DF93282F30E035
:100BF000F901EE52F74F8491F901E15FF64FD4917C
:100C0000F901E550F74FC491CC23A1F081110E9466
:100C1000CB05EC2FF0E0EE0FFF1FE951F74FA59148
:100C2000B491EC91ED2381E090E009F480E0DF9154
:100C3000CF91089580E090E0FACF1F93CF93DF9398
:100C4000282F30E0F901EE52F74F8491F901E15F6E
:100C5000F64FD491F901E550F74FC491CC23A9F098
:100C6000162F81110E94CB05EC2FF0E0EE0FFF1F35
:100C7000EF50F74FA591B4918FB7F894EC91111103
:100C800008C0D095DE23DC938FBFDF91CF911F91F9
:100C90000895DE2BF8CF9091000189130BC0E6EE8A
:100CA000F8E0E4919FEF90930001E13049F028F0E3
:100CB000E23061F060E00C941D0610926E00FACFF5
:100CC00090916F009D7F90936F00F4CF9091700092
:100CD0009D7F9093700091E09093B0009091B1004F
:100CE000987F94609093B1001092B300E3CFCF93BC
:100CF000DF9390E0FC01E15FF64F24918550974F20
:100D0000FC0184918823C9F090E0880F991FFC01B1
:100D1000E853F74FA591B491FC01EF50F74FC591FF
:100D2000D49161110DC09FB7F8948C9120958223C6
:100D30008C938881282328839FBFDF91CF910895CA
:100D4000623051F49FB7F8943C91822F80958323B1
:100D50008C93E8812E2BEFCF8FB7F894EC912E2B4C
:100D60002C938FBFEACF3FB7F8948091660490919F
:100D70006704A0916804B091690426B5A89B05C0DA
:100D80002F3F19F00196A11DB11D3FBFBA2FA92F0A
:100D9000982F8827BC01CD01620F711D811D911D07
:100DA00042E0660F771F881F991F4A95D1F7089573
:100DB0008F929F92AF92BF92CF92DF92EF92FF926B
:100DC0006B017C010E94B3064B015C01C114D1048C
:100DD000E104F104B9F00E94B306681979098A099F
:100DE0009B09683E73408105910580F321E0C21A9A
:100DF000D108E108F10888EE880E83E0981EA11C56
:100E0000B11CE4CFFF90EF90DF90CF90BF90AF90F8
:100E10009F908F9008952FB7F8946091620470911D
:100E2000630480916404909165042FBF0895CF936B
:100E3000DF93EBE2F0E0883040F098EF980FE8E2C3
:100E4000F0E0963010F4E5E2F0E0908142EF480FD8
:100E50008E3010F4482F477021E030E001C0220F9F
:100E60004A95EAF7322F309593239083AAE2B0E0B7
:100E7000683040F098EF960FA7E2B0E0963010F49B
:100E8000A4E2B0E09C9122EF260F6E3010F4262FE2
:100E9000277041E050E001C0440F2A95EAF74095E1
:100EA00049234C93CBE2D0E0683040F098EF960FA6
:100EB000C8E2D0E0963010F4C5E2D0E0288191E09D
:100EC00042EF460F6E3010F4462F477001C0990F65
:100ED0004A95EAF7292B2883CFE0D0E02197F1F754
:100EE000C9E2D0E0683038F06850C6E2D0E0663041
:100EF00010F4C3E2D0E02881292361E009F060E02A
:100F000050818E30B0F08E5021E001C0220F8A95C2
:100F1000EAF7252B2083CFE0D0E02197F1F720815D
:100F2000322330832C91922B9C93862FDF91CF918B
:100F300008958770E9CFCF93DF93EBE2F0E088303C
:100F400040F098EF980FE8E2F0E0963010F4E5E218
:100F5000F0E0908142EF480F8E3010F4482F477038
:100F600021E030E001C0220F4A95EAF720952923BD
:100F70002083AFE0B0E01197F1F7ABE2B0E068306A
:100F800040F098EF960FA8E2B0E0963010F4A5E29A
:100F9000B0E09C9142EF460F6E3010F4462F477040
:100FA00021E030E001C0220F4A95EAF7209529237D
:100FB0002C93CFE0D0E02197F1F720818E30D8F04C
:100FC00092EF980F81E001C0880F9A95EAF7822B83
:100FD00080838FE090E00197F1F79C916E3098F05C
:100FE0006E5081E001C0880F6A95EAF7892B8C93D7
:100FF000DF91CF910895877091E001C0990F8A9594
:10100000EAF7892FE4CF6770ECCFEBE2F0E06830CD
:1010100040F098EF960FE8E2F0E0963010F4E5E249
:10102000F0E0208191E032EF360F6E3010F4362F71
:10103000377001C0990F3A95EAF7922B9083ABE293
:10104000B0E0883040F098EF980FA8E2B0E096301A
:1010500010F4A5E2B0E02C918E30D8F08E5091E0E3
:1010600001C0990F8A95EAF7892F822B8C938FE024
:1010700090E00197F1F720816E3068F06E5081E0CA
:1010800090E001C0880F6A95EAF7809582238083FB
:1010900008958770E4CF6770F2CFBF92CF92DF924E
:1010A000EF92FF920F931F93CF93DF93982F977038
:1010B00021E030E0D90101C0AA0F9A95EAF792EF3A
:1010C000980F01C0220F9A95EAF7FA2E8E3008F099
:1010D000F22EF094962F9770E1E0F0E0EF0101C05E
:1010E000CC0F9A95EAF792EF960F01C0EE0F9A9502
:1010F000EAF7EC2E6E3008F0EE2EE094DC2EBC2EDB
:101100006E3008F0BE2ECA2E8E3008F42A2F58E01A
:1011100098EF980F38EF360FCFE0D0E0ABE2B0E0B9
:10112000883030F0A5E2B0E0963010F0A8E2B0E0F0
:101130007C917F21ABE2B0E0883030F0A5E2B0E0F6
:10114000963010F0A8E2B0E07C93A42FB0E040FF0E
:101150004AC00BE210E0683030F005E210E03630B3
:1011600010F008E210E0F80140817D2D0BE210E064
:10117000683038F07B2D05E210E0363010F008E2E0
:1011800010E0472BF8014083FE013197F1F7B59548
:10119000A7954A2FABE2B0E0883030F0A5E2B0E08E
:1011A000963010F0A8E2B0E07C91FC2DABE2B0E00C
:1011B000883038F0F22FA5E2B0E0963010F0A8E2C7
:1011C000B0E07F2B7C93DE011197F1F7515009F0CD
:1011D000A5CFDF91CF911F910F91FF90EF90DF90FE
:1011E000CF90BF9008950BE210E0683030F005E238
:1011F00010E0363010F008E210E0F80140814E2196
:101200000BE210E0683008F4BDCF05E210E03630A4
:1012100008F4B8CF08E210E0B5CF1F93CF93DF9367
:10122000C82FD62F142F0E940508412F6D2F8C2F09
:101230000E944D086D2F8C2F0E941707182F6D2FBD
:101240008C2F0E949B07812FDF91CF911F910895D2
:10125000089520916C0430916D042817390771F4BA
:1012600090916A0480916B04981741F0E0916A04B0
:10127000F0E0EF5DFB4F808190E008958FEF9FEFEE
:1012800008950895EF92FF920F931F93CF93DF93EA
:10129000DC015C96ED90FC905D97E114F10479F42B
:1012A00081E090E013969C938E93129790E080E0FB
:1012B000DF91CF911F910F91FF90EF90089551967C
:1012C000ED91FC91529750968C915097982F909554
:1012D0000FB75E962C915E97122F127021FD6095CC
:1012E000F8942081112319F1282B2083E7012197FD
:1012F000F1F728E0462F50E0308160FF1AC0382B0C
:101300003083E7012197F1F7BA0175956795215070
:1013100089F7112381F08081892380830FBF5C9638
:101320008D919C910197F1F781E090E0C1CF292345
:10133000DCCF3923E5CF9081892BEFCF20916C044E
:1013400030916D042817390771F480916B04209156
:101350006A0490E0805C9F4F821B910960E470E01A
:101360000E94BF16089590E080E0089520916C04DB
:1013700030916D0428173907B9F490916A0480916F
:101380006B04981789F0E0916A04F0E0EF5DFB4F81
:10139000808120916A0430E02F5F3F4F2F73332705
:1013A00020936A0490E008958FEF9FEF08958F9245
:1013B0009F92AF92BF92EF92FF920F931F93CF93A2
:1013C000DF937B018C01D0E0C0E00E940B076093AB
:1013D000390570933A0580933B0590933C0581E372
:1013E00095E00E94B60997FF27C00E940B078090E6
:1013F000390590903A05A0903B05B0903C056819DE
:1014000079098A099B098090350590903605A0904E
:101410003705B0903805681579058A059B05F8F2FF
:10142000CE01DF91CF911F910F91FF90EF90BF9070
:10143000AF909F908F900895F80181938F0121962E
:10144000EC16FD0611F6ECCF90E080E00895CF9306
:10145000DF93EC0188819981009711F00E94AB170E
:10146000198218821D821C821B821A82DF91CF9101
:101470000895FB0101900020E9F73197AF01461B69
:10148000570BDC01ED91FC910280F381E02D099472
:101490008F929F92AF92BF92EF92FF920F931F9302
:1014A000CF93DF93CDB7DEB7A1970FB6F894DEBF29
:1014B0000FBECDBF7C01FA01CB0119A2223008F486
:1014C0002AE08E010F5D1F4F822E912CB12CA12C92
:1014D000BF01A50194010E94D316F901CA016A3027
:1014E0000CF5605DD8016E938D01232B242B252BE9
:1014F00079F790E080E0109721F0BD01C7010E94CC
:10150000390AA1960FB6F894DEBF0FBECDBFDF91AA
:10151000CF911F910F91FF90EF90BF90AF909F9050
:101520008F900895695CDECFCF92DF92EF92FF92A9
:101530000F931F93CF93DF9377FF21C06A017B0145
:10154000EC01E881F9810190F081E02D6DE20995CF
:101550008C0144275527BA014C195D096E097F0992
:101560002AE0CE010E94480A800F911FDF91CF919F
:101570001F910F91FF90EF90DF90CF9008952AE098
:10158000DF91CF911F910F91FF90EF90DF90CF905F
:101590000C94480ACF93DF93BC0184E994E00E9445
:1015A000390AEC016FE571E084E994E00E94390AA0
:1015B0008C0F9D1FDF91CF910895CF93DF93AC01E6
:1015C00070E060E02AE084E994E00E94480AEC01BF
:1015D0006FE571E084E994E00E94390A8C0F9D1F49
:1015E000DF91CF9108950C94390A0F931F93CF93F5
:1015F000DF93EC0188819981009759F02A813B8122
:101600002617370730F081E0DF91CF911F910F91BE
:1016100008958B016F5F7F4F0E943418009759F037
:10162000998388831B830A832C813D81232B59F75F
:10163000FC011082E8CF80E0E7CF8F929F92AF92BB
:10164000BF92DF92EF92FF920F931F93CF93DF939E
:1016500000D000D01F92CDB7DEB77C015B018A01BC
:10166000D22EFC0186819A012D0D311D82171306A1
:1016700008F458C0CE0101964C0185E0F4011192A6
:101680008A95E9F78D2D8770806C8983CE0102964B
:101690000E94F118F1E0FD1568F0F7019485D11072
:1016A00024C00230110508F18B819923E1F090E804
:1016B000892B8B830F5FF701D58014816D2D812FCE
:1016C0000E94050874018E2D88198017B8F4F7015F
:1016D00041917F016D2D812F0E944D086D2D812F2D
:1016E0000E941707F0CF90E0E3CF8A81992321F081
:1016F00090E8892B8A83DECF90E0FBCF6D2D812F80
:101700000F900F900F900F900F90DF91CF911F913E
:101710000F91FF90EF90DF90BF90AF909F908F90D0
:101720000C949B07182F1D19412F50E02D2DC70138
:101730000E941D0BF7016285738590E080E00E9496
:10174000D8060D5F011B11E0F7014681041790F0E8
:1017500050E0B501610F711D20E0C7010E941D0B13
:10176000F7016285738590E080E00E94D806015001
:101770001F5FEACF0F900F900F900F900F90DF91A7
:10178000CF911F910F91FF90EF90DF90BF90AF909E
:101790009F908F9008950F931F93CF93DF9300D066
:1017A00000D0CDB7DEB78C0119821A821B821C8251
:1017B00020E044E050E0BE016F5F7F4F0E941D0BB0
:1017C000F80111860F900F900F900F90DF91CF913D
:1017D0001F910F910895ECE8F4E09C01285F3F4FC2
:1017E000DC015D91CD014191541317C0A217B307DD
:1017F000B9F782E691E00E94CA0A6AE070E080E0F0
:1018000090E00E94D80680E595E00E94CB0B62E64E
:1018100071E080E595E00C94F30A87E691E00E9480
:10182000CA0A80E595E00E94CB0B6AE070E080E098
:1018300090E00E94D8066EE671E0EBCF1F93CF9345
:10184000DF9397FD29C011E0CFE0D7E2803127E296
:1018500092073CF4EC01C9318CEFD80714F4C9E1CC
:10186000DCEF80E595E00E94CB0B111117C0D195FC
:10187000C195D10962EB72E080E595E00E94F30A20
:1018800081E0C436D1052CF482E0CA30D1050CF4D5
:1018900083E08093590508C010E0DCCFC83E23E008
:1018A000D20774F310925905AE01DD0F660B770B6A
:1018B00080E595E0DF91CF911F910C94940A80917F
:1018C00081048F3F11F4109281048091810424E6F9
:1018D000829FC00111249C0128513C4F293745E0CB
:1018E000340734F5309389042093880463E771E06A
:1018F00084E994E00E94F30A80918804909189041D
:101900000E94DD0A80E595E00E94CB0B6FE773E053
:1019100080E595E00E94F30A68EE73E080E090E0D5
:101920000E94D80680918804909189040C941E0C22
:1019300088539F4F9093890480938804D7CF0F9347
:101940001F93CF93DF93CDB7DEB7C058D1090FB641
:10195000F894DEBF0FBECDBF362F272F8A01413846
:10196000510510F000E810E0BE016F5F7F4FA32F1C
:10197000B22F9B01A901461B570B4017510770F46A
:10198000ED9140E0E03234F00E2E000CFF0BE85BEE
:10199000F74F4491F90141939F01ECCFFC01218560
:1019A000A8010E941D0BC801C058DF4F0FB6F89464
:1019B000DEBF0FBECDBFDF91CF911F910F91089574
:1019C000EF92FF921F93CF93DF93EC01162F89853F
:1019D0009E81F12CE12C891326C0BE01635F7F4FED
:1019E000262FFB019E2F921B981718F4918191933B
:1019F000F9CF898590E0E0E010323CF0E12F012E34
:101A0000000CFF0BE85BF74FE4918C0F9D1FDC018E
:101A10001D96EC934E8150E020E0CE010E941D0BFC
:101A2000EE24E394F12C49858E81481708F550E0A7
:101A3000E0E0103234F0E12F110FFF0BE85BF74FBD
:101A4000E491DE01A40FB51F1D96EC934F5F5F4F2D
:101A500020E0BE01635F7F4FCE010E941D0B898590
:101A60008F5F843008F083E08987BFEFEB1AFB0AB1
:101A7000C701DF91CF911F91FF90EF900895E0E1B2
:101A8000F4E081E1DF011D928A95E9F748E050E03A
:101A900067E071E081E395E00E94BE0461E170E0DF
:101AA00080E194E00E94D70960E871E084E994E065
:101AB0000E94F30A8091160480930C04809115040F
:101AC00080930D048091140480930E04809113047C
:101AD00080930F0420E030E0A90160910C04709124
:101AE0000D0480910E0490910F040E94EA15882342
:101AF00009F456C080910404811103C081E08093F1
:101B00000404A0E1B4E08FEF9FEF2FE030E0FD018F
:101B1000AD0143705527452B99F42A0F3B1FA2179F
:101B2000B30711F1492F5527ED91F0E0E827EE0FAB
:101B3000FF1FE859FF4F8591949184279527EFCF98
:101B40002115310589F0492F55271196E081F0E0E4
:101B5000E827EE0FFF1FE859FF4F859194918427E6
:101B6000952721503109D3CF909303048093020429
:101B700020911F04281314C080912004891310C0E1
:101B800089E892E00E94CA0A60910C0470910D04E9
:101B900080910E0490910F040E948916CB01089544
:101BA0008EE891E00E94CA0A80E595E00E94CB0B86
:101BB0006EE671E080E595E00E94F30AE5CF1F92A2
:101BC0000F920FB60F9211242F933F934F935F9371
:101BD0006F937F938F939F93AF93BF93EF93FF93F5
:101BE0008091750490917604A0917704B091780467
:101BF000892B8A2B8B2BD1F190917004E091710489
:101C0000F09172048081892780838091750490917E
:101C10007604A0917704B0917804181619061A0674
:101C20001B069CF48091750490917604A091770432
:101C3000B09178040197A109B1098093750490933C
:101C40007604A0937704B0937804FF91EF91BF914D
:101C5000AF919F918F917F916F915F914F913F9144
:101C60002F910F900FBE0F901F901895809100013B
:101C70000E944B06EACF1F920F920FB60F921124CB
:101C80002F933F934F935F936F937F938F939F9384
:101C9000AF93BF93EF93FF9384E994E00E943C05D8
:101CA000FF91EF91BF91AF919F918F917F916F9134
:101CB0005F914F913F912F910F900FBE0F901F900A
:101CC00018951F920F920FB60F9211242F938F9396
:101CD0009F93EF93FF93E091A404F091A50480817A
:101CE000E091AA04F091AB0482FD1BC09081809129
:101CF000AD048F5F8F732091AE04821741F0E091A5
:101D0000AD04F0E0EC56FB4F958F8093AD04FF914E
:101D1000EF919F918F912F910F900FBE0F901F9079
:101D200018958081F4CF1F920F920FB60F92112455
:101D30002F933F938F939F93AF93BF9380916204B0
:101D400090916304A0916404B091650430916104A2
:101D500023E0230F2D3758F50196A11DB11D2093C7
:101D600061048093620490936304A0936404B0932D
:101D700065048091660490916704A0916804B09115
:101D800069040196A11DB11D8093660490936704B8
:101D9000A0936804B0936904BF91AF919F918F9114
:101DA0003F912F910F900FBE0F901F90189526E82E
:101DB000230F0296A11DB11DD2CF1F920F920FB615
:101DC0000F9211242F933F934F935F936F937F93C1
:101DD0008F939F93AF93BF93EF93FF93E0916C0426
:101DE000F0916D04309749F0A685B7858585968D6D
:101DF00091FF14C09C918923A1F4FF91EF91BF91B1
:101E0000AF919F918F917F916F915F914F913F9192
:101E10002F910F900FBE0F901F9018959C918923C2
:101E200061F7A389B4899C918589809589238C93D6
:101E3000868997890197F1F7608D718DA685B785A1
:101E4000558538E020E0CB010197F1F7822F90E033
:101E500095958795282F4C91452309F0206831509E
:101E600091F7868D81FD209580916B0490E001961D
:101E70008F73992730916A04381799F0A0916B04F9
:101E8000B0E0AF5DBB4F2C9380936B04828D938D3C
:101E90000197F1F7A389B4898C919589892B8C934B
:101EA000ACCF868D8160868FF1CF1092970410920F
:101EB000960488EE93E0A0E0B0E0809398049093BD
:101EC0009904A0939A04B0939B0483E391E09093C8
:101ED00095048093940485EC90E09093A104809302
:101EE000A00484EC90E09093A3048093A20480EC7F
:101EF00090E09093A5048093A40481EC90E09093EB
:101F0000A7048093A60482EC90E09093A9048093A8
:101F1000A80486EC90E09093AB048093AA041092FE
:101F2000AD041092AE041092AF041092B00410925F
:101F300053051092520587E591E0909351058093E7
:101F4000500589E08093540588E080935505219AD7
:101F5000209A299AE5E2F0E08081816080831092E6
:101F600059058CE291E090935B0580935A0510929D
:101F70005C0584E6809358054FE860915505809193
:101F800054050E940D0940E4609155058091540567
:101F90000E940D0987E591E09093510580935005CB
:101FA000109234051092330588EE93E0A0E0B0E083
:101FB0008093350590933605A0933705B093380587
:101FC00085E491E0909332058093310510924805A5
:101FD0001092470510924A051092490510924C053F
:101FE00010924B0510924E0510924D0560914F05D1
:101FF0006E7F6D7F60934F056695617081E0682705
:1020000086E00E941D0661E086E00E947706E5E119
:10201000F9E0E491E0934105E1E0F9E0E491F0E0DA
:10202000EE0FFF1FEF50F74F85919491909343056A
:102030008093420560E087E00E94770680914F051B
:1020400081FD04C061E087E00E941D0687E0809367
:102050003D05E6E1F9E0E491E0933E05E2E0F9E0D8
:10206000E491F0E0EE0FFF1FE951F74F8591949155
:102070009093400580933F050895CF93DF93CDB7AC
:10208000DEB767970FB6F894DEBF0FBECDBF78946A
:1020900084B5826084BD84B5816084BD85B582606D
:1020A00085BD85B5816085BD80916E00816080931E
:1020B0006E00109281008091810082608093810087
:1020C0008091810081608093810080918000816097
:1020D000809380008091B10084608093B1008091F2
:1020E000B00081608093B00080917A00846080931A
:1020F0007A0080917A00826080937A0080917A00E1
:10210000816080937A0080917A00806880937A0061
:102110001092C10062E082E00E94770662E081E1F5
:102120000E94770661E084E00E94770660E084E028
:102130000E941D0661E083E10E94770660E083E172
:102140000E941D06E091A404F091A50482E0808322
:10215000E091A004F091A1041082E091A204F0911A
:10216000A30480E180831092AC04E091A804F09174
:10217000A90486E08083E091A604F091A704808101
:1021800080618083E091A604F091A704808188603B
:102190008083E091A604F091A70480818068808309
:1021A000E091A604F091A70480818F7D808383E96C
:1021B00091E00E94CA0A10924C0510924B051092B1
:1021C0004A051092490510924805109247058DEC7A
:1021D00090E090934E0580934D0590913D0596318A
:1021E00008F047C025E530E03093480520934705C7
:1021F0002BEC30E030934A052093490520E930E08C
:1022000030934C0520934B052091680084E0983072
:1022100048F031E09E3008F430E081E001C0880FE2
:102220003A95EAF7822B809368002DE630E09830EB
:1022300050F02BE630E09E3030F02CE630E0963166
:1022400010F030E020E03093450520934405292F1D
:1022500030E0983008F051C181E001C0880F9A95B4
:10226000EAF78093460580914D0590914E050197C0
:10227000F1F780914B0590914C05892B49F1E09144
:102280006C04F0916D0485E0E133F80709F13097B3
:1022900039F0A389B4899C918589809589238C9391
:1022A00080914F058E7F80934F0510926B041092A2
:1022B0006A0481E395E090936D0480936C04E0914F
:1022C0004405F0914505808190914605892B8083D6
:1022D00084E08093560581E08093570580E595E082
:1022E0000E94CB0B84E6809358054FE8609155051A
:1022F000809154050E940D0968EE73E080E090E043
:102300000E94D80690E080E00E943C1680938104F1
:102310000E945F0C6CED75E080E090E00E94D806B2
:1023200048E050E06FE171E081E395E00E94BE0477
:1023300068E070E08CE894E00E94D7098EEA91E0B2
:102340000E94CA0A8FE191E00E94EB0B68EE73E0F5
:1023500080E090E00E94D80648E050E067E171E03C
:1023600081E395E00E94BE0468E070E08CE894E0B0
:102370000E94D7098BEC91E00E94CA0A87E191E0A4
:102380000E94EB0B68EE73E080E090E00E94D806BC
:1023900048E050E06FE071E081E395E00E94BE0408
:1023A00068E070E08CE894E00E94D7098FEE91E03D
:1023B0000E94CA0A8FE091E00E94EB0B68EE73E086
:1023C00080E090E00E94D8068E010F5F1F4F0E94B0
:1023D0003F0D20916E0430916F04892B09F0B1C03C
:1023E0002530310508F0ADC01B8A1A8A1D8A1C8A67
:1023F0001F8A1E8A4AE0B801C9010E94C015F8016F
:1024000001900020E9F731977F01E01AF10AB70146
:10241000CE0142960E94F50A81117CC0CE014296FF
:102420000E94270A1A8219821C821B821E821D8228
:1024300065E370E0C8010E94F50A811173C0C8010C
:102440000E94270ACA88DB88C114D10409F475C028
:10245000EE88FF88E114F104B1F08D819E81E80ED1
:10246000F91EB701C8010E94F50A882309F465C066
:1024700029813A818D819E81B601820F931F0E942E
:10248000FA18FE82ED824D815E8169817A8184E94C
:1024900094E00E94BE046FE571E084E994E00E943C
:1024A000390A89819A81009711F00E94AB178A89B5
:1024B0009B89009711F00E94AB1780E595E00E9480
:1024C000CB0B64E170E080E090E00E94D8066CE401
:1024D00072E080E595E00E94F30A64EC79E080E028
:1024E00090E00E94D80680916E0490916F0401964E
:1024F00090936F0480936E046ACF9E3040F428500E
:10250000310981E001C0880F2A95EAF7AACE2E5042
:102510003109F7CFFF8AEE8AB8018A899B890E9428
:10252000FA1880CF85E390E09E838D8366E172E0A8
:1025300089819A810E94FA1885CFC8010E94270AD2
:10254000A2CF25303105A9F460ED77E080E090E07E
:102550000E94D80680E592E00E94CA0A88E19AE0CB
:102560000FB6F894A895809360000FBE909360001A
:10257000FFCF89E592E00E94CA0A80E595E00E94BB
:10258000CB0B6AE070E080E090E00E94D8066AE73A
:1025900072E080E595E00E94F30A8FE792E00E94E6
:1025A000CA0A60EA7FE080E090E00E94D80680E5F9
:1025B00095E00E94CB0B6DE872E084E994E00E9404
:1025C000F30A6EE1C62ED12CE12CF12C80E595E0CA
:1025D0000E94CB0B67E972E080E595E00E94F30A68
:1025E00068EE73E080E090E00E94D80680E595E018
:1025F0000E94CB0BC6010E941E0CB701A60184E904
:1026000094E00E94940A6FE571E084E994E00E94EE
:10261000390A68EE73E080E090E00E94D80692E00C
:10262000C91AD108E108F108EEEFCE16EFEFDE0689
:10263000EE06FE0659F68CE992E00E94CA0A80E591
:1026400095E00E94CB0B6FEA72E080E595E00E9476
:10265000F30A68E873E180E090E00E94D80646E063
:10266000242E49E0342E88248A94982C54010E9408
:102670003F0D90938B0480938A04892B09F443C007
:1026800064EB72E084E994E00E94F30A80918A048A
:1026900090918B040E94DD0A80E595E00E94CB0BAF
:1026A0006AE070E080E090E00E94D80680918A04A1
:1026B00090918B040E941E0C20918A0430918B040F
:1026C00080918804909189042817390708F4D1C0B3
:1026D000809100018B3011F5E6EEF8E0149117FDC2
:1026E000BFC061E08BE00E947706112309F488C027
:1026F000123009F099C08091B100887F8460809386
:10270000B10089E861C18FEB92E00E94CA0A6AE0D9
:1027100070E080E090E00E94D806CECF8F3F09F0B5
:102720009FC08BE080930001E6EEF8E014911F3F1C
:1027300009F496C0113021F150F0123009F43EC076
:1027400017FD8EC061E08BE00E947706D1CF14BCEC
:1027500015BC84B5826084BD85B5816085BDF101FD
:102760008491E82FF0E0EE0FFF1FEF50F74F8591B7
:102770009491EAE1F9E084918093740410E0B1CF80
:102780001092800010928100809181008860809377
:10279000810080918100816080938100F1018491AA
:1027A000E82FF0E0EE0FFF1FEF50F74F8591949167
:1027B000EAE1F9E084918093730493CF1092B00022
:1027C0001092B1008091B00082608093B00080913F
:1027D000B10081608093B100F1018491E82FF0E0B5
:1027E000EE0FFF1FEF50F74F859194919093720475
:1027F00080937104EAE1F9E084918093700471CFD1
:1028000085B5887F836085BD89E887BD80927D041A
:1028100090927E04A0927F04B092800480916E001A
:10282000826080936E001CC0113009F0C6C0809198
:102830008100887F81608093810087EB92E2909392
:102840008900809388008092790490927A04A09203
:102850007B04B0927C0480916F00826080936F0053
:102860006AE471E080E090E00E94D8068BE00E946C
:102870004B060E940B072B013C0182E00E94F405ED
:10288000892B09F097C080918704882309F4ACC094
:102890008091830490918404A0918504B091860472
:1028A00088579C4EAF4FBF4F84159505A605B705B9
:1028B00008F0ABC080E595E00E94CB0B64E670E0C9
:1028C00080E090E00E94D8068BEC92E00E94CA0A59
:1028D0008CE2C82EDD24D394E12CF12C80E595E028
:1028E0000E94CB0B64E073E080E595E00E94F30A60
:1028F00068EE73E080E090E00E94D806B701A60180
:1029000084E994E00E94940A6AE472E084E994E025
:102910000E94F30A0E943F0D90938B0480938A04D7
:1029200064EB72E084E994E00E94F30A80918A04E7
:1029300090918B040E94DD0A80E595E00E94CB0B0C
:10294000C6010E941E0C68EE73E080E090E00E94D9
:10295000D80692E0C91AD108E108F108EEEFCE16C8
:10296000EFEFDE06EE06FE0609F0B8CF64E670E093
:1029700080E090E00E94D80648E050E067E271E015
:1029800081E395E00E94BE0468E070E08CE894E08A
:102990000E94D70969E073E084E994E00E94F30A99
:1029A00087E291E00E94EB0B60EA7FE080E090E03C
:1029B0000E94D8061092870428C0123021F011110D
:1029C0004FCF87EB22CF87EB8093B30080927504C3
:1029D00090927604A0927704B0927804809170006F
:1029E0008260809370003CCF0E940B076093830449
:1029F00070938404809385049093860481E080938F
:102A0000870486E393E00E94CA0A81E10E94F405EC
:102A1000892B09F096C080918204882309F481C033
:102A20008091830490918404A0918504B0918604E0
:102A300088579C4EAF4FBF4F84159505A605B70527
:102A400008F053C087E793E00E94CA0A0E945F0C17
:102A500082E00E94F405019749F56AE070E080E0A9
:102A600090E00E94D80681E10E94F405892B81F74D
:102A700062E370E080E090E00E94D80681E10E946D
:102A8000F405892B29F7809181048F5F883058F4F1
:102A9000809381040E945F0C68EC70E080E090E01D
:102AA0000E94D806D5CF10928104F4CF62E370E083
:102AB00080E090E00E94D80682E00E94F405892B15
:102AC00059F56091810490E080E00E9444161092D4
:102AD000820464E873E084E994E00E94F30A809140
:102AE0008804909189040E94DD0A8DEE93E00E9493
:102AF000CA0A60ED77E080E090E00E94D80680E0AE
:102B000090E0892B09F4B3CD0E942805882309F4AD
:102B1000AECD0E940000ABCD85E993E00E94CA0AC9
:102B2000E4CF0E940B076093830470938404809326
:102B300085049093860481E0809382048DEA93E07B
:102B4000EDCF10928204D1CF85E491E090933205CD
:102B50008093310580916C0490916D048153954070
:102B600071F4E0914405F09145059081809146050E
:102B700080958923808310926D0410926C040895CF
:102B8000BB27FB015527AA27880F991FAA1FA41747
:102B900010F0A41B83955051B9F7A05DAA3308F03B
:102BA000A95DA193009779F7B111B1931192CB016F
:102BB0000C94DA15DC01FC01672F71917723E1F7A2
:102BC000329704C07C916D9370836291AE17BF07FA
:102BD000C8F308950E94EF1508F481E00895990F55
:102BE0000008550FAA0BE0E8FEEF16161706E807D7
:102BF000F907C0F012161306E407F50798F0621BF8
:102C0000730B840B950B39F40A2661F0232B242BCC
:102C1000252B21F408950A2609F4A140A6958FEFEB
:102C2000811D811D089557FD9058440F551F59F07F
:102C30005F3F71F04795880F97FB991F61F09F3FA9
:102C400079F087950895121613061406551FF2CFD2
:102C50004695F1DF08C0161617061806991FF1CF22
:102C600086957105610508940895E894BB27662749
:102C70007727CB0197F90895F999FECF92BD81BDD1
:102C8000F89A992780B50895262FF999FECF1FBA93
:102C900092BD81BD20BD0FB6F894FA9AF99A0FBE85
:102CA000019608952F923F924F925F926F927F927A
:102CB0008F929F92AF92BF92CF92DF92EF92FF924C
:102CC0000F931F93CF93DF93CDB7DEB7CA1BDB0BF8
:102CD0000FB6F894DEBF0FBECDBF09942A8839889D
:102CE00048885F846E847D848C849B84AA84B984A4
:102CF000C884DF80EE80FD800C811B81AA81B981B0
:102D0000CE0FD11D0FB6F894DEBF0FBECDBFED01C3
:102D100008950E9490166894B1110C943616089587
:102D20000E941B1688F09F5798F0B92F9927B7512A
:102D3000B0F0E1F0660F771F881F991F1AF0BA955F
:102D4000C9F714C0B13091F00E943516B1E0089572
:102D50000C943516672F782F8827B85F39F0B93F64
:102D6000CCF3869577956795B395D9F73EF4909512
:102D70008095709561957F4F8F4F9F4F089597FB7A
:102D8000072E16F4009407D077FD09D00E94F5169F
:102D900007FC05D03EF4909581959F4F089570955E
:102DA00061957F4F0895A1E21A2EAA1BBB1BFD015E
:102DB0000DC0AA1FBB1FEE1FFF1FA217B307E4071A
:102DC000F50720F0A21BB30BE40BF50B661F771F72
:102DD000881F991F1A9469F7609570958095909552
:102DE0009B01AC01BD01CF010895AA1BBB1B51E1A2
:102DF00007C0AA1FBB1FA617B70710F0A61BB70B6B
:102E0000881F991F5A95A9F780959095BC01CD010F
:102E10000895EE0FFF1F0590F491E02D09940F9394
:102E20001F93CF93DF938230910510F482E090E0FE
:102E3000E0916305F091640530E020E0B0E0A0E0AF
:102E4000309799F42115310509F44AC0281B390B34
:102E500024303105D8F58A819B816115710589F18E
:102E6000FB0193838283FE0111C040815181028165
:102E7000138148175907E0F04817590799F410973C
:102E800061F012960C93129713961C933296CF0111
:102E9000DF91CF911F910F910895009363051093D7
:102EA0006405F4CF2115310551F04217530738F06E
:102EB000A901DB019A01BD01DF01F801C1CFEF01DA
:102EC000F9CF9093640580936305CDCFFE01E20FA7
:102ED000F31F819391932250310939832883D7CFEF
:102EE0002091610530916205232B41F4209103016B
:102EF0003091040130936205209361052091010116
:102F0000309102012115310541F42DB73EB74091B2
:102F1000050150910601241B350BE0916105F091EC
:102F20006205E217F307A0F42E1B3F0B28173907A1
:102F300078F0AC014E5F5F4F2417350748F04E0F15
:102F40005F1F5093620540936105819391939FCFDA
:102F5000F0E0E0E09CCFCF93DF930097E9F0FC0135
:102F6000329713821282A0916305B0916405ED013E
:102F700030E020E01097A1F420813181820F931F6F
:102F800020916105309162052817390709F061C069
:102F9000F0936205E0936105DF91CF910895EA0116
:102FA000CE17DF07E8F54A815B819E014115510587
:102FB000B1F7E901FB83EA8349915991C40FD51F09
:102FC000EC17FD0761F4808191810296840F951FB3
:102FD000E90199838883828193819B838A83F0E0CE
:102FE000E0E012968D919C9113970097B9F52D9181
:102FF0003C911197CD010296820F931F209161059C
:10300000309162052817390739F6309751F510923B
:10301000640510926305B0936205A0936105BCCF6F
:10302000D383C28340815181840F951FC817D9076C
:1030300061F44E5F5F4F88819981480F591F51831A
:1030400040838A819B81938382832115310509F016
:10305000B0CFF0936405E09363059ECFFD01DC01E2
:10306000C0CF13821282D7CFB0E0A0E0EAE3F8E14C
:103070000C9454168C01009751F4CB010E940F1749
:103080008C01C801CDB7DEB7E0E10C947016FC01ED
:10309000E60FF71F9C0122503109E217F30708F4ED
:1030A0009DC0D901CD91DC911197C617D70798F033
:1030B000C530D10530F3CE0104978617970708F382
:1030C000C61BD70B2297C193D1936D937C93CF01ED
:1030D0000E94AB17D6CF5B01AC1ABD0A4C018C0E17
:1030E0009D1EA0916305B0916405512C412CF12CDB
:1030F000E12C109731F5809161059091620588155A
:10310000990509F05CC04616570608F058C0809132
:10311000010190910201009741F48DB79EB7409153
:10312000050150910601841B950BE817F90708F07B
:1031300055C0F0936205E0936105F90171836083E6
:10314000A0CF8D919C91119712966C901297139627
:103150007C901397A815B90559F56C0142E0C40E8F
:10316000D11CCA14DB0420F1AC014A195B09DA0155
:103170001296159780F06282738251834083D90141
:103180006D937C93E114F10471F0D7011396FC93D5
:10319000EE93129776CF22968C0F9D1FF9019183A3
:1031A0008083F301EFCFF0936405E093630569CF6B
:1031B0004816590608F42C017D01D3019ACFCB01A2
:1031C0000E940F177C01009749F0AE01B8010E94E0
:1031D000F118C8010E94AB17870153CF10E000E03F
:1031E00050CFFB01DC0102C001900D9241505040D4
:1031F000D8F70895FB01DC0101900D920020E1F762
:10320000089514E0C3E9D4E004C0FE010E94091748
:0C3210002196C439D107C9F7F894FFCF0C
:10321C00FF0000650580006103002800064C60611A
:10322C0006003A0000A067610600250002106061EC
:10323C0006003600006064610600390190519B0065
:10324C000000005E05BE04EB04AB051C05FA040E81
:10325C0005000000004209BE04240A41099E09B67B
:10326C0009290900000000E00C9F0C240A28090D14
:10327C000A00646F6E65006661696C656400666166
:10328C00696C0042454550206C6576656C3A2000AF
:10329C00526561642053656E736F723A200046412B
:1032AC00494C005374617274205343443330204DA5
:1032BC006F64627573206C6563747572650053740A
:1032CC0061727420636F6E74696E696F7573206DB3
:1032DC006561737572656D656E7400536574206DF0
:1032EC006561737572656D656E7420696E74657257
:1032FC0076616C2032207365636F6E6473200044BA
:10330C00656163746976617465204175746F6D6174
:10331C007469632053656C662D43616C69627261DC
:10332C0074696F6E20004169722073656E736F72E1
:10333C00206E6F742064657465637465642E205010
:10334C006C6561736520636865636B20776972696E
:10335C006E672E2E2E205472792320006261640039
:10336C0052455345542E2E2E004169722073656EC2
:10337C00736F722064657465637465642053434491
:10338C003330204D6F6462757300676F6F64005348
:10339C00434433302072656164204F4B005072659A
:1033AC00686561743A200048454154005374617259
:1033BC0074206D6561737572656D656E7473004311
:1033CC004F322D00434F322870706D293A20004542
:1033DC0052524F5220434F323D300053746172743D
:1033EC002063616C6962726174696F6E2070726FB8
:1033FC00636573733A20333030207365636F6E648A
:10340C0073206F66203430302070706D20737461BF
:10341C00626C650043414C2D005265736574746990
:10342C006E6720666F726365642063616C6962729B
:10343C006174696F6E20666163746F7220746F20A3
:10344C003430303A2000427574746F6E2043414C16
:10345C00494220686173206265656E2070726573E5
:10346C007365642C20686F6C64203573206D6F72EB
:10347C006520746F2073746172742063616C69626F
:10348C00726174696F6E00526F7574696E6520425B
:10349C00454550004E657720426565702056616C3D
:1034AC0075653A20006E6F206368616E67652069F0
:1034BC006E20424545502076616C756500427574EE
:1034CC00746F6E20424545502068617320626565BB
:1034DC006E20707265737365642C20686F6C642049
:1034EC003573206D6F726520746F20737461727404
:1034FC002063616C6962726174696F6E00576169F7
:10350C0074696E6720666F72206E657720646174D3
:02351C0061004C
:00000001FF
